:020000040800F2
:1000000060360020B902000859370008953300080F
:1000100055370008C10400087559000800000000A9
:10002000000000000000000000000000D1370008C0
:100030008D0500080000000061370008FD3700084A
:10004000D3020008D3020008D3020008D30200083C
:10005000D3020008D3020008D3020008D30200082C
:10006000D3020008D3020008D30200087505000877
:1000700081050008D3020008D3020008D30200085B
:10008000D302000800000000D3020008D3020008D9
:1000900031580008D3020008D3020008D302000838
:1000A000D3020008D3020008D3020008D3020008DC
:1000B000D3020008D3020008D3020008D3020008CC
:1000C000D3020008D3020008D3020008D3020008BC
:1000D000D3020008D3020008D3020008D3020008AC
:1000E000D3020008D3020008D3020008D30200089C
:1000F000D3020008D3020008D30200080000000069
:1001000000000000D302000800000000D302000835
:10011000D302000800000000A9380008D30200083C
:10012000D3020008D3020008D3020008D30200085B
:10013000D30200080000000000000000D302000805
:10014000D3020008D30200080000000000000000F5
:10015000000000000000000000000000000000009F
:10016000000000000000000000000000D3020008B2
:10017000D3020008000000000000000000000000A2
:1001800000000000D3020008000000000000000092
:10019000000000000000000000000000000000005F
:1001A0000000000000000000D3020008D302000895
:1001B000D3020008D3020008D302000800000000A8
:1001C00000000000D3020008000000000000000052
:1001D000D3020008D302000800F002F800F05CF837
:1001E0000AA090E8000C82448344AAF10107DA4592
:1001F00001D100F051F8AFF2090EBAE80F0013F088
:10020000010F18BFFB1A43F001031847DC79000007
:10021000FC7900000A444FF0000C10F8013B13F089
:10022000070408BF10F8014B1D1108BF10F8015B4F
:10023000641E05D010F8016B641E01F8016BF9D142
:1002400013F0080F1EBF10F8014BAD1C0C1B09D199
:100250006D1E58BF01F801CBFAD505E014F8016B0B
:1002600001F8016B6D1EF9D59142D6D3704700009D
:100270000023002400250026103A28BF78C1FBD8AF
:10028000520728BF30C148BF0B6070471FB507F049
:100290006BFC1FBD10B510BD00F0D7F81146FFF77D
:1002A000F5FF05F09DFB00F0F5F803B4FFF7F2FF52
:1002B00003BC00F0FDF800000948804709480047EA
:1002C000FEE7FEE7FEE7FEE7FEE7FEE7FEE7FEE706
:1002D000FEE7FEE704480549054A064B7047000063
:1002E00095380008D90100086030002060360020F1
:1002F0006032002060320020032A40F2308010F08B
:10030000030C00F0158011F8013BBCF1020F6244B0
:1003100098BF11F801CB00F8013B38BF11F8013B41
:10032000A2F1040298BF00F801CB38BF00F8013BEE
:1003300011F0030300F05780083AC0F0088051F82C
:10034000043B083A51F804CBA0E80810F5E7121D69
:100350005CBF51F8043B40F8043BAFF30080D20788
:1003600024BF11F8013B11F801CB48BF11F8012B54
:1003700024BF00F8013B00F801CB48BF00F8012B77
:10038000704702F0FF0343EA032242EA024200F010
:1003900002B84FF0000200B5134694469646203945
:1003A00022BFA0E80C50A0E80C50B1F12001BFF42E
:1003B000F7AF090728BFA0E80C5048BF0CC05DF894
:1003C00004EB890028BF40F8042B08BF704748BFE2
:1003D00020F8022B11F0804F18BF00F8012B704756
:1003E00070477047704710B5203AC0F00B80B1E8F5
:1003F0001850A0E81850B1E81850A0E81850203A5A
:10040000BFF4F5AF5FEA027C24BFB1E81850A0E862
:10041000185044BF18C918C0BDE810405FEA827C7C
:1004200024BF51F8043B40F8043B08BF7047D20793
:1004300028BF31F8023B48BF11F8012B28BF20F834
:10044000023B48BF00F8012B7047754600F02CF8BE
:10045000AE4605006946534620F00700854618B0B1
:1004600020B5FFF737FFBDE820404FF000064FF002
:1004700000074FF000084FF0000BAC46ACE8C00995
:10048000ACE8C009ACE8C009ACE8C00921F007013C
:100490008D46704710B50446AFF300802046BDE896
:1004A0001040FFF702BF000000487047880100209D
:1004B00001491820ABBEFEE726000200704700008D
:1004C000FEE70000002070470020704710B540F69E
:1004D0001C74C2F2000440F61431C2F2000120463E
:1004E000002203F027FD40F21471C2F20001204601
:1004F00003F016FD002010BD10B540F61C74C2F2CA
:1005000000040146204603F00BFD204603F034FCB6
:10051000002010BD002070472DE9F0410D46064631
:1005200000F07EFA40F61C71C2F20001D1F8BC72F4
:10053000D7F8141200291CBF0120BDE8F08140F655
:100540001C78C2F200080446404631462A4603F0B1
:10055000F1FC404603F072FD054600BFD7F81402D7
:1005600020B100F05DFA001B0A28F7D32846BDE849
:10057000F081000041F2EC10C2F2000000F00EB871
:1005800041F24C20C2F2000000F008B870470000B1
:10059000EFF3108072B600BFFEE70000B0B5D0E9FF
:1005A00010C30268DCF8001003F01F030424D2F823
:1005B00000E09C400C4218BF1EF0040522D102242A
:1005C0009C400C4218BF1EF0020529D1D9400907F2
:1005D00024D51EF0080108BFB0BD116821F00E013E
:1005E0001160012101FA03F2CCF80420C16380F804
:1005F0002510416B002280F8242079B1BDE8B0407D
:10060000084700BF1168890603D4116821F004016E
:100610001160CCF80440016B0029EFD1B0BD00BFE0
:100620001168890606D4116821F00A0111600121C0
:1006300080F82510CCF80440C16A0022002980F817
:100640002420DBD1EAE7000000284FF0010100F090
:100650008E802DE9F04740F2000CC4F2020C0368D2
:100660004FF6F8320CF5816ECBF6FD72734538BF4C
:1006700002F580624CF6CD441A44CCF6CC44A2FB81
:10068000042803F0FC02A2F10802A2FB04290CF5E5
:1006900080656FF00304D0E90262D0F810A03CBF7F
:1006A0000025C4F2020504EA9804C0E910540225AA
:1006B00080F825501D6847F6F07725EA07073A438A
:1006C000476942EA0A0285693A43C7692A43056ACB
:1006D0003A432A4332431A600CF50262734538BF2D
:1006E0000CF50062A3180CF50862C264C9F3041289
:1006F00040F6840C01FA02F2B6F5804FC4F2020C07
:100700008364026506D1002141601960CCF80020A5
:100710001EE000BF41685FFA81FE013903294FF0F6
:100720000001C3F800E0CCF8002011D8AEF10102BE
:100730000CEB820747F87C1F02F01F01012202FA2E
:1007400001F30CF1BC023946CCF8C03002E000BF26
:100750000022002300F1540C8CE80E00002101223D
:10076000C16380F8252080F82410BDE8F0470846D2
:10077000704700002DE9F04190F824C0BCF1010F52
:1007800043D04FF0010C80F824C090F825C0BCF194
:10079000010F37D14FF0020C80F825C04FF0000C4C
:1007A000C0F83CC0D0F800C000F14C0E9EE83040CC
:1007B000DCF80060BEF1000F26F00106CCF8006006
:1007C00065601CBFD0E916456560D0E9107601254B
:1007D00006F01F068468B540D0F830807D60CCF804
:1007E00004300B46102C04BF13460A46CCF80830E0
:1007F000CCF80C20DCF80010B8F1000F08D041F064
:100800000E010DE0002180F824100220BDE8F081E7
:1008100021F00401CCF80010DCF8001041F00A01CE
:10082000CCF80010806C0168C90303D5016841F45D
:1008300080710160BEF1000F05D0DEF8000040F4C9
:100840008070CEF80000DCF8000040F00100CCF829
:1008500000000020BDE8F0812DE9F04F82B00D6866
:10086000002D00F0CB8041F2004400F13847C4F67F
:10087000000406224FEAB726A04208BF0522052E33
:1008800038BF4FEAB722002401274FF0000E0026A0
:10089000009209E00D68013635FA06F20EF1040EF9
:1008A00004F1020400F0AA8007FA06FB15EA0B081F
:1008B000F0D0D1F804A003220AF0030CACF101053A
:1008C000A240012D6FEA020910D88268CD6802EAC1
:1008D0000902A5402A4382604268CAF3001522EA51
:1008E0000B02B5402A43426006E000BFBCF1030F93
:1008F00002D14FF0030C21E0C2688D6802EA0902C0
:10090000A5402A43BCF1020FC26017D16FF0030269
:1009100002EA560202440EF01C030F25D2F820C052
:1009200005FA03FA0D692CEA0A0C05FA03F343EA07
:100930000C031362D1F804A00AF0030C02680CFA4D
:1009400004F302EA09021A431AF4403F0260A1D0FC
:1009500041F26003C4F202031A6840F2004942F017
:1009600001021A601A68C4F2010902F00102019240
:10097000019A26F003024FF6084A4A44CFF6FF7A5E
:1009800052F80AC00EF00C050F23009FAB402CEA72
:10099000030307FA05F52B4342F80A30D9F808C0DB
:1009A0004B684CEA0805DA0258BF2CEA080540F209
:1009B0000C4CC9F80850C4F2010CDCF800209F026E
:1009C00042EA080558BF22EA0805CCF80050D9F8D9
:1009D00004209D0342EA080758BF22EA0807C9F825
:1009E0000470D9F80020DB0342EA080758BF22EA66
:1009F0000807C9F8007001274CE700BF02B0BDE846
:100A0000F08F0000426902EA0103914341EA034189
:100A1000816170471823002A08BF2823C1507047FE
:100A200042F66410C2F200000068704740F2000015
:100A300042F66411C2F20000C2F2000140680A6886
:100A4000104408607047000080B5032000F0C8F82B
:100A50000F2000F009F800281CBF012080BD00F025
:100A60005BF8002080BD0000B0B586B041F25801AF
:100A7000C4F202010A68044642F010020A600968E2
:100A800001A801F0100101910199694601F044FBB0
:100A900001F064FB4DF68361C4F21B31A0FB010140
:100AA0004FF0FF3000EB914141F29C6041F20002B7
:100AB000C2F20000C4F2000240F2E7330025C0E9B0
:100AC0000021C0E90253056101F0BCFE054618B1E2
:100AD000284606B0B0BD00BF41F29C60C2F20000E3
:100AE00001F0E4FE05460028F2D1362000F038F887
:100AF0000F2C0DD8362021460022002500F044F8A6
:100B000040F20000C2F200000460284606B0B0BD0A
:100B10000125284606B0B0BD80B582B041F258002C
:100B2000C4F202008168002241F001018160816805
:100B300001F0010101910199016841F080510160CA
:100B400000680F2100F08050009000986FF00100C5
:100B500000F01AF802B0BDE8804001F013B80000C0
:100B6000002848BF7047C1B200F01F00012202FAFE
:100B700000F04EF20012CEF2000242EAD10121F062
:100B8000030108607047000010B54EF60C5CCEF211
:100B9000000CDCF80030C3F3022E8EF00704042CA6
:100BA00028BF0424BEF103034FF0FF3E0EFA04F405
:100BB00038BF0023A14399400EFA03F39A4311432F
:100BC00000F00F0200F160430901043A03F56443A9
:100BD0006244002848BF02F10C03197010BD0000E8
:100BE0004EF60C51CEF200010A684FF6FF031A4090
:100BF00060F30A2242F0806040F0FD7008607047A8
:100C000001220168C0F8E822002280F8E022B1F851
:100C1000540040F00100A1F85400B1F8540040F035
:100C200002020020A1F854207047000010B50129ED
:100C3000044613D011BBA06948B102F0EFFD4EF697
:100C40001050CEF20000016821F006010160D4F8D6
:100C5000F002BDE8104003F04FBC00BFD4F8F00232
:100C600003F0D0FCA069002808BF10BD4EF610505C
:100C7000CEF20000016841F00601016010BD0000E5
:100C800080B501F0070C0CEB8C0C00EBCC0C01EBED
:100C9000810E0CF1280C00EBCE00090658BF00F5C0
:100CA000B47C0020002A19BFCCF808300121ACF830
:100CB000063000218CF80C1080BD000001EB810291
:100CC000D0F8F03200EBC200C26B184603F0D2BA83
:100CD00001EB8102D0F8F03200EBC200D0F87C21A9
:100CE000184603F01BBB000010B5044648B2B0F133
:100CF000FF3F01F0070000EB800104EBC10205DDBE
:100D000002F5B471002382F8693104E0012302F195
:100D1000280182F8293094F8A8220870012A04BF1B
:100D2000022010BD2068012284F8A82204F06CF88B
:100D3000002084F8A80210BDB0B50446406801F058
:100D40000F02824284BF0120B0BD48B2B0F1FF3F24
:100D500001F0070000EB800104EBC10206DD02F5A3
:100D6000B471002382F8693105E000BF012302F16C
:100D7000280182F8293094F8A8220025012A8D70D4
:100D8000087004BF0220B0BD2068012284F8A822A8
:100D900004F0CEF8284684F8A852B0BD01F007014F
:100DA00001EB810100EBC100D0F884017047000025
:100DB00070B5064648B2B0F1FF3F01F0070000EB06
:100DC000800107DD06EBC10404F5B471002584F849
:100DD000695106E006EBC10C01240CF128018CF8E6
:100DE00029404D780870002D0A61CB7018BFC8816A
:100DF000022B04BF0020087196F8A802012804BF46
:100E0000022070BD3068012286F8A82203F0E8FEB7
:100E1000002086F8A80270BD10B501F0070C0CEB9D
:100E20008C0100EBC10E00680EF5B4710024CEF801
:100E30007C21CEF88031CEF884418EF869418EF85D
:100E400068C104F0CDF8002010BD000010B5426864
:100E5000044601F00700904284BF012010BD4AB251
:100E6000B2F1FF3F0ADD01EB810104EBC10202F5A3
:100E7000B471002382F8693109E000BF00EB800102
:100E800004EBC102012302F1280182F8293094F811
:100E9000A8320122012B8A70087004BF022010BD05
:100EA000206884F8A82204F081F8002084F8A802C1
:100EB00010BD000080B501F0070C0CEB8C0100EBBD
:100EC000C10101F828CF00684FF0010C01F11407AF
:100ED00081F824C04FF0000E87E80C400B6281F8C7
:100EE00001C004F07DF8002080BD00002DE9F04F26
:100EF00081B00446006804F0A1FC010420D441053F
:100F000000F1F683410400F10584810400F11C84A2
:100F1000C10400F12384010500F14684010600F1BB
:100F20005984810500F16684C00540F1EF83206893
:100F3000B0F8441021F48071A0F84410E6E300BF3B
:100F40002068B0F94410B1F1FF3F00F3DF8304F5EE
:100F50002C7140F60F7B009123E000BFB0F85010D9
:100F600094F86821014401EBC201B1F80634B4F8E9
:100F70006E2100996FF39F23C4F8843104F062FC62
:100F80002068018801EA0B0180310180204600F0D1
:100F900033FD00BF2068B0F94410B1F1FF3F00F30A
:100FA000B583B0F8442012F00F090DD030F92910A4
:100FB0004FEA490AB1F1FF3F1FFA81F832DD5FEADB
:100FC0000860E7D55AE100BF0188D2066CD401EA77
:100FD0000B0101F500410180B0F8501094F8282071
:100FE000084400EBC200B0F80204E16B6FF39F20ED
:100FF00060640844E06320460021FFF75FFE94F838
:1010000024000028C6D0206C0028C3D194F8240006
:10101000216840F08000C0B2A1F84C00002084F8A4
:101020002400B7E730F81A1040F60F7C01EA0B01F4
:10103000803120F81A1009EB890104EBC10B9BF8F1
:1010400074110BF5B476002978D09BF86B11022946
:1010500040F08680B0F850703178DBF8803107447A
:101060000BF5C0725FEA484507EBC10700F19280BB
:10107000B7F8067400256FF39F27DB1B38BF2B469C
:10108000136040F29D805FEA486200F1A98030F869
:10109000212048F2C00302EA0C021A4320F8212062
:1010A000002F40F09E80C3E00A053FF557AF09B21C
:1010B000B1F1FF3F3FF76EAF018801EA0B018031CC
:1010C0000180B0F8501094F86821014401EBC2018E
:1010D000B1F806346FF39F23C4F8843193B1D4F888
:1010E0007C1179B1B4F86E2104F0ACFBD4F87C012A
:1010F000D4F884110844C4F87C0120460021FFF78D
:10110000E7FD2068018809053FF544AFB0F85010AD
:10111000D4F8783100F206423F2BC0F00D825F090F
:10112000DE064FF0FF3608BF06EB531748F2000308
:10113000CFF6FF7343EA87237CE200BFB0F850107C
:101140003278014401EBC201B1F806746FF39F27B6
:10115000002F6DD0DBF87C11BBF86E2163E000BF7F
:10116000327848F2C00330F8221001EA0C0119432A
:1011700020F8221030F82230B0F8501000EBC202F4
:101180005B04114416D4B1F806746FF39F2747BB74
:101190004EE000BFB7F8027400256FF39F27DB1BFA
:1011A00038BF2B46136021D95FEA48622DD4B7BB04
:1011B0003EE000BFB1F802746FF39F277FBB37E0BA
:1011C00030F8212043F60F731A404CF28003A3F548
:1011D00000535A4020F821205FEA48627FF557AF5C
:1011E00037B3DBF87C11BBF872211CE030F821200A
:1011F00043F60F731A404CF28003A3F500535A4094
:1012000020F821205FEA4862D1D530F8212048F249
:10121000C00302EA0C021A4320F8212047B1DBF890
:101220007C11BBF870213B4604F00CFB01E000BFD1
:101230000027DBF88411DBE95F0239443844CBF83E
:101240008411CBF87C011AB1DBF87801B8420BD9D4
:1012500031782046FFF73CFD40F60F7B5FEA0860DF
:101260007FF598AE0AE000BF2068314603F0B8FE73
:1012700040F60F7B5FEA08607FF58CAE206809EBD3
:10128000890130F81A2004EBC10502EA0B0101F5CF
:10129000004120F81A1095F82B1005F128090229B1
:1012A00020D15FEAC85143D4B0F8502099F800101B
:1012B000024402EBC102B2F802242B6C6FF39F22AE
:1012C0009B1A4FF0000738BF3B462B6440F2308139
:1012D000E96B6B6C1144E96399186964494603F042
:1012E0007FFE57E695F8341000294FF0000129647D
:1012F00000F01C815FEA486168D495F82910012943
:1013000000F0FE80002940F01181B0F8501099F8EB
:101310000020084400EBC200B0F8061421F4F841A4
:10132000A0F80614B0F8061441F40041F0E000BF44
:10133000B0F8507099F800102A4652F8406F5FEAF2
:10134000486300EBC10C5BD40CF2064E3EF807700C
:1013500000236FF39F27F61B38BF1E46166040F22E
:1013600087805FEA484208D430F821204CF280039D
:1013700002EA0B021A4320F821202A4612F84C1FD9
:10138000012940F0A4812B4653F8488F53E904C14A
:1013900053F8046C39443E44E04543F80C1C43F8D0
:1013A000046C80F00181B8F1000F00F05581002736
:1013B000C4461F60177095F82920012A40F0FC8070
:1013C000B0F850202EF802C06EE100BF95F8291049
:1013D000012900F0A180002940F0A880B0F8501049
:1013E00099F80020084400EBC200B0F8021421F480
:1013F000F841A0F80214B0F8021441F4004193E05F
:101400000CF2024E3EF8077000236FF39F27F61B85
:1014100038BF1E4616604FD95FEA484208D530F8FB
:1014200021204CF2800302EA0B021A4320F821200B
:101430002B4613F84C1F012940F049812A4652F8E7
:1014400048CF52E9046152F8048C3944B844B44599
:1014500042F80C1C42F8048C80F0C4804FF0000865
:10146000BCF1000F83F8008040F0BF80BC46BEE0B6
:1014700095F82920012A67D0002A6FD1B0F85020B2
:101480006244B2F8023423F4F843A2F80234B2F80A
:10149000023443F40043A2F80234B0F850003EF89E
:1014A000002022F4F8422EF800203EF8002042F4FA
:1014B00000422EF8002051E095F82920012A55D04D
:1014C000002A5DD1B0F850203EF8027027F4F847AA
:1014D0002EF802703EF8027047F400472EF80270B2
:1014E000B0F850006044B0F8062422F4F842A0F8A6
:1014F0000624B0F8062442F40042A0F806243FE097
:10150000B0F8501099F80020084400EBC200002108
:10151000A0F806140AE000BFB0F8501099F80020B7
:10152000084400EBC2000021A0F8021499F8001052
:101530002046FFF7C3FB2DE5002B71D003F0010718
:1015400007EB53039B0275E0B0F850200023624480
:10155000A2F80234B0F850002EF800302046FFF711
:10156000ADFB5FEA484012D5B1E000BFB0F85020B3
:1015700000232EF80230B0F850006044A0F8063482
:101580002046FFF79BFB5FEA484040F1A0802068BF
:1015900099F800104CF2800330F8212002EA0B0287
:1015A0001A4320F8212092E0A8EB0C021A6095F86B
:1015B0002920012A3FF404AF002A75D1B0F85070F9
:1015C000BCF13F0F50D35FEACC634FEA5C124FF09F
:1015D000FF3308BF03EB5C124FF4004343EA82225F
:1015E00060E000BFACEB0608B446C2F8008095F896
:1015F0002920012A2AD0002A64D1B0F85070BCF109
:101600003F0F3BD35FEACC634FEA5C124FF0FF33EE
:1016100008BF03EB5C124FF4004343EA82224FE021
:101620008B5A48F2000723F4F8438B528B5ACFF6BB
:10163000FF773B438B52018843F60F7211404CF207
:101640008002A2F5805251400180A3E4B0F85020FE
:101650002EF802C036E000BF00231370BC4695F898
:101660002920012AA8D1ABE6BCF1000F10D00CF064
:10167000010202EB5C02920214E000BFBCF1000F19
:1016800014D00CF0010202EB5C02920218E000BFE1
:1016900037F80E2022F4F84227F80E2037F80E20F3
:1016A00042F4004227F80E206A8E0CE037F80E2034
:1016B00022F4F84227F80E2037F80E2042F40042B8
:1016C00027F80E202A8E1FFA8CF304F011F92068F7
:1016D00099F8001040F63F7330F821201A4048F284
:1016E000C003103B5A4020F82120FFF753BC00BF35
:1016F0002068B0F8441021F48061A0F8441020461E
:1017000000F03CF994F8A80201280DD101B0BDE821
:10171000F08F00BF2068B0F8441021F48041A0F899
:10172000441001B0BDE8F08F0120002584F8A80224
:1017300084F824502068002104F0D2F884F8A852DC
:1017400001B0BDE8F08F00BF2068B0F8441021F46C
:101750000051A0F8441001B0BDE8F08F2068B0F847
:10176000401021F00401A0F84010B0F8401021F022
:101770000801A0F8401094F8E002012806D10020EA
:1017800084F8E00220460021FFF750FA204600F0DE
:1017900007F92068B0F8441021F48051A0F84410F3
:1017A00001B0BDE8F08F00BF2168B1F8400040F003
:1017B0000800A1F84000B1F8440020F40060A1F84E
:1017C0004400B1F8400040F004022046A1F8402057
:1017D0000BE000BF2068B0F8441021F08001A0F8B1
:1017E000441094F8E01299B1204601B0BDE8F04FE2
:1017F00000F020B92168B1F8440020F400722046BE
:10180000A1F8442001B0BDE8F04F00F0DDB800BF02
:10181000B0F8401041F00401A0F84010B0F84010BA
:1018200041F00801A0F84010012184F8E012B0F85E
:1018300054003C2101EA900220460121C4F8E42230
:1018400001B0BDE8F04FFFF7F1B90000F0B585B089
:1018500000285BD0054690F8A90228B9002085F839
:10186000A802284600F056F8032085F8A902286847
:1018700003F054FB696869B300204FF0010C0022AB
:10188000002300BF02EB820205EBC20484F828307B
:10189000DAB20133E286DAB2914284F829C084F8E0
:1018A0002B00C4E90E002064ECD8002000230022A5
:1018B00003EB830305EBC30484F868210132D3B240
:1018C000994284F8690184F86B01C4E95E00C4F8A8
:1018D0008001EDD805F1080E28689EE81C50D5E976
:1018E00007678DE81050CDE9036703F009FB00207E
:1018F000012185F8240085F8A912E969012903D19D
:101900002846FFF77DF9002005B0F0BD012005B0A5
:10191000F0BD000010B592B0044601A8043040218B
:10192000FEF737FD206845F60041C4F20001884209
:1019300002D012B010BD00BF4FF40050019001A8BA
:1019400000F02AF9002818BFFEF722FE41F25800E5
:10195000C4F202000168002241F400010160006845
:10196000052100F40000009000981420FFF70CF906
:101970001420FFF7F5F812B010BD000010B50446B2
:101980008068022818BFFEF703FED4F8F002012198
:1019900002F0CCFDD4F8F002BDE8104002F078BDB2
:1019A00010B50446806948B14EF61050CEF20000E2
:1019B000016821F00601016001F030FFD4F8F00267
:1019C000BDE8104002F098BDD0F8F00202F09EBDD4
:1019D00010B5044690F8A802012804BF022010BDEB
:1019E000012084F8A80284F82410206803F078FF0E
:1019F000002084F8A80210BDD0F8F02200F52C7168
:101A0000104602F0A9BD000010B5044690F8A802E7
:101A1000012804BF022010BD2068012184F8A8120B
:101A200003F0FCFE206803F061FA002084F8A802AD
:101A300010BD000010B50446D0F8F00202F0E2FD3F
:101A4000A069002808BF10BD4EF61050CEF200006D
:101A5000016841F00601016010BD0000B0F5007F93
:101A600042D0002840F0808047F21400C4F2000009
:101A700050F8141CC26E01F4C06122F48072B1F5FA
:101A8000806FC2662ED150F8141C012262F34A21E5
:101A900040F8141C40F22801C2F200010968322209
:101AA00051434DF68362C4F21B32A1FB0212910C2A
:101AB0000268520511D54A1C0FD0026852050CD598
:101AC00059B10268520508D5012906D002685205AD
:101AD00003D50229A1F10401EAD10068400544BF01
:101AE000032070470020704747F21400C4F2000042
:101AF00050F8141CC26E01F4C06142F48072B1F55A
:101B0000806FC266EED150F8141C012262F34A21A4
:101B100040F8141C40F22801C2F200010968322288
:101B200051434DF68362C4F21B32A1FB0212910CA9
:101B30000268520511D54A1C0FD0026852050CD517
:101B400059B10268520508D5012906D0026852052C
:101B500003D50229A1F10401EAD10068400544BF80
:101B600003207047BEE700BF47F21400C4F2000034
:101B700050F8141C022262F34A2140F8141C002081
:101B80007047000047F20800C4F20000016841F409
:101B900080410160704700002DE9F04182B00446A9
:101BA000807841F288060007C4F2020602D40020C1
:101BB0002FE000BF56F8300C10F080580BD156F8CB
:101BC000300C40F0805046F8300C56F8300C00F0E5
:101BD00080500190019847F20007C4F2000738686E
:101BE00040F480703860FEF71BFF05463868C0057A
:101BF00000F1D680FEF714FF401B0228F6D903201F
:101C0000B8F1000F05D156F8301C21F0805146F88C
:101C1000301C2168CA0713D18A0719D44A071FD478
:101C20000A0725D48A062BD44A0631D40A0637D4AB
:101C3000CA053DD48A0543D44A0549D457E000BFBC
:101C40003268636822F003021A4332608A07E5D5DE
:101C50003268A36822F00C021A4332604A07DFD5CB
:101C60003268E36822F030021A4332600A07D9D59D
:101C70003268236922F0C0021A4332608A06D3D543
:101C80003268636922F440621A4332604A06CDD555
:101C90003268A36922F440521A4332600A06C7D55B
:101CA0003268E36922F440421A433260CA05C1D562
:101CB0003268236A22F440321A4332608A05BBD567
:101CC0003268636A22F440221A4332604A050ED514
:101CD0003268A36A22F440121A43B3F5801F3260BF
:101CE00005D156F87C2C42F4801246F87C2C0A056B
:101CF0000ED53268E36A22F440021A43B3F5800F2E
:101D0000326005D156F87C2C42F4801246F87C2CC7
:101D1000CA040ED53268236B22F040721A43B3F125
:101D2000807F326005D156F87C2C42F4801246F850
:101D30007C2C8A040ED53268636B22F040621A4311
:101D4000B3F1006F326005D156F87C2C42F480125A
:101D500046F87C2C4A040ED53268A36B22F0406210
:101D60001A43B3F1006F326005D156F87C2C42F46F
:101D7000801246F87C2C09040ED53168E26B21F004
:101D800040511143B2F1805F316005D156F87C1C9F
:101D900041F4803146F87C1C02B0BDE8F08100BF00
:101DA000B06810F4407010D0216C88420BD0B0683D
:101DB000B16820F4407041F48031B160B16821F421
:101DC0008031B160B060C0070CD1B068216C20F4E4
:101DD00040700843B0600020B8F1000F7FF419AFE5
:101DE00011E700BFFEF71CFE054641F2883700BF31
:101DF000B0688007E9D4FEF713FE401BB842F7D95C
:101E0000FDE600002DE9F04700286DD042F2000AFF
:101E1000C4F2020A0446DAF800000D4600F00F0092
:101E200088420CD2DAF8000020F00F002843CAF8EC
:101E30000000DAF8000000F00F00A84254D1216839
:101E400041F20808C807C4F2020803D1880740F12C
:101E5000D880BDE0606802283AD0032840D158F805
:101E6000082C920140D5D8F80420D8F8043042F26A
:101E70000046C3F3031302F00302D8F804700133E1
:101E8000C0F2F406032A04BF47F64006C0F27D16EE
:101E9000B6FBF3F2D8F80430C7F306277A43C3F34E
:101EA0004163022707EB4303B2FBF3F24BF200431B
:101EB000C0F2C4439A4261D9D8F8002012F0F00F62
:101EC00051D089075AD5A168002957D14BE000BFEE
:101ED00058F8081C89035CBF0120BDE8F08707E0C3
:101EE00058F8081C490503D40120BDE8F08700BF5D
:101EF000D8F8001001F00C0104293FD0D8F80010E8
:101F000001F00C01082939D0D8F8001001F00C01BB
:101F10000C2933D1D8F80410D8F8042042F2004735
:101F2000C2F3031201F00301D8F804300132C0F209
:101F3000F407032904BF47F64007C0F27D17B7FB3B
:101F4000F2F1D8F80420C3F306235943C2F34162E7
:101F5000022303EB4202B1FBF2F14BF20042C0F26A
:101F6000C44291420AD9D8F80010082262F307113E
:101F70004FF00109C8F8001002E000BF4FF000095F
:101F8000D8F8001021F003010843C8F80000FEF75C
:101F900047FD064641F28837D8F80000616800F036
:101FA0000C00B0EB810F07D0FEF73AFD801BB84262
:101FB000F2D90320BDE8F0872168880708D4B9F179
:101FC000000F1ED0D8F8000020F0F00017E000BF8E
:101FD000480705D5D8F8000040F4E060C8F80000D4
:101FE000080706D5D8F80000072262F30D20C8F8CC
:101FF0000000D8F80000A26820F0F0001043C8F8F4
:102000000000DAF8000000F00F00A8421BD9DAF84F
:10201000000020F00F002843CAF80000FEF700FD82
:10202000064641F2883700BFDAF8000000F00F00E2
:10203000A84207D0FEF7F4FC801BB842F4D9032075
:10204000BDE8F0872168480707D5D8F80000E268A6
:1020500020F4E0601043C8F80000080708D5D8F85D
:102060000000216920F4605040EAC100C8F8000077
:10207000D8F8000042F20041C0F2F40100F00C0078
:10208000042808462DD0D8F8000000F00C000828DD
:1020900047F64000C0F27D1023D0D8F8002002F0AF
:1020A0000C020C2A1CD1D8F80420D8F8043002F015
:1020B0000302C3F30313D8F804700133032A08BFE3
:1020C0000146B1FBF3F0D8F80410C7F30627C1F3BB
:1020D00041610222784302EB4101B0FBF1F000E0E4
:1020E0000020D8F8001047F68232C1F30311C0F681
:1020F0000002515C40F2280201F01F0120FA01F1B8
:1021000040F20000C2F200000068C2F2000211605A
:10211000BDE8F047FEF7A8BC0F22026041F20802BA
:10212000C4F20202136803F003034360136803F070
:10213000F0038360136803F4E063C36012684FF434
:10214000E06303EAD202026142F20000C4F202003C
:10215000006800F00F0008607047000040F228009F
:1021600041F20801C2F20000C4F2020100680968ED
:1021700047F69232C1F30221C0F60002515C01F031
:102180001F01C840704700002DE9F04182B00028CF
:1021900000F006810446007841F20006C007C4F250
:1021A000020655D12078800774D42078000700F10A
:1021B00097802078400700F1B7802078800600F1F2
:1021C0000781E069002840D0B16801F00C010C29BA
:1021D00040F05681012800F0E380F068216A00F0A9
:1021E00003028A4240F0DC80626A6FF00F0300F065
:1021F000F00103EB0212914240F0D280A16A00F498
:10220000FE42B2EB012F40F0CB80E16A00F0784251
:10221000B2EBC16F40F0C480226B0023CFF6E073B5
:1022200003EA025200F4C001A2F50012914240F00C
:10223000B780616B4FF07E4202EA016100F0C0603E
:1022400001F17E41884240F0AB800020F1E100BF07
:10225000B06800F00C01F06808295BD0032281F01F
:102260000C0122EA00000844B0FA80F0400951D184
:102270006068B0F5803F07D0B0F5A02F40F0D68061
:10228000306840F480203060306840F48030306046
:10229000D7E000BFB068F16800F00C00042869D0F6
:1022A00001F0030180F00C0081F002010844B0FA53
:1022B00080F040095ED1E1683068002900F0CE80EE
:1022C00040F480703060FEF7ABFB05463068400597
:1022D00000F1EC80FEF7A4FB401B0228F6D920E1B8
:1022E0006169D6F89400002900F08C8040F001006C
:1022F000C6F89400FEF794FB054600BFD6F894009C
:1023000080073FF556AFFEF78BFB401B0228F5D93F
:1023100007E100BF306880037FF544AF60680028A4
:102320007FF440AF3CE000BFB06D10F0805808D1A2
:10233000B06D40F08050B065B06D00F080500190FD
:10234000019847F20007C4F200073868C0052BD493
:10235000386840F480703860FEF762FB054600BFC5
:102360003868C00520D4FEF75BFB401B0228F7D974
:10237000D7E000BF3068400501D5E06880B17068E3
:10238000216920F0FE4040EA0160706040F20000E8
:10239000C2F200000068FEF767FB00283FF405AFBB
:1023A000012002B0BDE8F081A068012808D005280E
:1023B00040F09A80D6F8900040F00400C6F89000F3
:1023C000D6F8900040F00100C6F890009AE000BFF7
:1023D000A169D6F89800002970D040F00100C6F835
:1023E0009800FEF71DFB0546D6F8980080073FF5DC
:1023F000E8AEFEF715FB401B02284FF00300F3D9AF
:1024000017E100BF20F00100C6F89400FEF708FBBA
:10241000054600BFD6F8940080077FF5CAAEFEF7E8
:10242000FFFA401B0228F5D97BE000BF3168002885
:1024300021F480313160316821F48021316000F075
:102440008F80FEF7EDFA0546306880033FF5AAAEAF
:10245000FEF7E6FA401B6428F6D962E020F48070AB
:102460003060FEF7DDFA0546306840057FF59DAE29
:10247000FEF7D6FA401B02284FF00300F4D9D8E04B
:102480003168022821F0807131604FD1FEF7C8FA1F
:10249000054600BF3068800140F18E80FEF7C0FA2B
:1024A000401B02284FF00300F4D9C2E07068216994
:1024B00020F0FE4040EA0160706076E620F0010006
:1024C000C6F89800FEF7ACFA054600BFD6F89800AB
:1024D00080077FF576AEFEF7A3FA401B02284FF087
:1024E0000300F3D9A5E000BFD6F89010002821F032
:1024F0000101C6F89010D6F8901021F00401C6F83A
:1025000090103DD0FEF78CFA054641F2883700BFA7
:10251000D6F89000800745D4FEF782FA401BB842F7
:10252000F6D9032002B0BDE8F08100BFF0684FF695
:10253000FF7120F00300F060F068CFF6EE61084014
:10254000F060FEF76DFA0446306880017FF57DAEDD
:10255000FEF766FA001B02284FF00300F4D968E08A
:10256000FEF75EFA054600BF306880037FF51AAEBD
:10257000FEF756FA401B64284FF00300F4D958E0E8
:10258000FEF74EFA054641F2883700BFD6F89000B4
:10259000800707D5FEF744FA401BB8424FF003000E
:1025A000F4D946E0B8F1000F7FF407AEB06D20F02B
:1025B0008050B06501E600BFF06848F20C01C0F23F
:1025C0009F1104F1200700EA010C8ECF6FF00F007D
:1025D000D4E90C5400EB02100022CFF6E07241EA7D
:1025E0000C0102EA05520843A2F500124FF07E45A5
:1025F00040EA032005EA0465104305F17E4540EA00
:10260000C7602843F060306840F080703060F06848
:1026100040F08070F060FEF703FA044630688001F5
:102620003FF513AEFEF7FCF9001B02284FF0030044
:10263000F4D902B0BDE8F081002804BF0120704742
:10264000B0B50446406A28B10020206104F11400AE
:1026500006E000BF6068B0F5827F03D004F11C0083
:10266000002101600025A56294F85D0020B9204694
:1026700084F85C5000F052F8022084F85D00206875
:10268000D4F80CE00268BEF5E06F22F04002026070
:102690004EF4006298BF0125B2F5706F1CBF002395
:1026A000A3624FEA053CD4E90135D4E9042103F4DF
:1026B000827305F404452B4402F002021A44A36914
:1026C00001F00101E569114403F40072114405F0C1
:1026D0003802256A114405F08002A56A114405F408
:1026E0000052114301600421626A0EF4706501EA30
:1026F0001341636B45EA0C0502F01002294303F015
:102700000803114319434160C16921F40061C161AB
:1027100000200121206684F85D10B0BD80B586B030
:10272000006843F60041C4F20001884202D006B0BE
:1027300080BD00BF41F24C00C4F20200C16841F408
:102740000041C160C16801F4004101910199016833
:1027500041F002010160006801A900F0020001904F
:10276000019838200190022002900020CDE903005A
:102770000620059040F20040C4F60000FEF76CF819
:1027800006B080BD70470000704700007047000031
:1027900070470000704700007047000070B590F867
:1027A0003C20012A4FF0020247D080F83D20026809
:1027B00043F2004C54689368C4F2010C42F6004E98
:1027C0006245C4F2010E01D0724503D14D6824F474
:1027D00070042C434FF68F75CFF6FF550E682C40D2
:1027E00042F6FF35C4F201053443AA4254600FDCBF
:1027F000B2F1804F16D040F20046C4F20006B24259
:1028000010D040F60006C4F20006B2420AD00EE034
:10281000724507D044F20006C4F20106B24201D06C
:10282000624504D1896823F0800319439160012136
:10283000002280F83D1080F83C20104670BD00005A
:1028400070470000002804BF0120704710B50446FF
:1028500090F83D0028B9002084F83C00204600F0A4
:1028600023F8022084F83D002068211D01F022F8A1
:10287000012084F8480084F83E0084F83F0084F882
:10288000400084F8410084F8420084F8430084F852
:10289000440084F8450084F8460084F8470084F832
:1028A0003D00002010BD00007047000090F83D1072
:1028B00001291CBF01207047022180F83D100168EA
:1028C00042F6FF32C868C4F20102914240F00100B2
:1028D000C8600FDCB1F1804F1ED040F20040C4F25E
:1028E0000000814218D040F60000C4F2000081428E
:1028F00012D01EE042F60040C4F2010081420BD02B
:1029000044F20000C4F20100814205D043F20040CD
:10291000C4F2010081420CD188680722C0F2010292
:102920000240062A4FF0000008D0B2F5803F08BFF1
:102930007047086840F00100086000207047000000
:10294000704700007047000010B501680446086930
:10295000800744BFC8685FEA807061D40869400797
:1029600044BFC8685FEA407066D40869000744BF86
:10297000C8685FEA00706DD40869C00644BFC868C3
:102980005FEAC06072D40869C0071CBFC8685FEA0C
:10299000C07079D10869000644BFC8685FEA00606A
:1029A0007AD40869C00544BFC8685FEA006000F1D6
:1029B0007B800869400644BFC8685FEA406000F158
:1029C0007B800869800644BFC8685FEA806000F1C8
:1029D0007B800869C00244BFC8685FEAC02000F17C
:1029E0007B800869800244BFC8685FEA802000F1EC
:1029F0007B800869400244BFC8685FEA402000F15C
:102A00007B800869000246BFC8685FEA002010BDED
:102A10006FF4000220460A61BDE81040FFF710BFC6
:102A20006FF00200086101202077886980076BD071
:102A30002046FFF787FF6DE06FF004000861022079
:102A40002077886910F4407F68D02046FFF77AFF2E
:102A50006AE000BF6FF00800086104202077C869B1
:102A6000800765D02046FFF76DFF67E06FF010002C
:102A7000086108202077C86910F4407F62D02046A2
:102A8000FFF760FF64E000BF6FF0010008612046BF
:102A900000F074FC21687DE76FF08000086120463B
:102AA000FFF772FE21687CE76FF4807008612046B2
:102AB000FFF768FE21687CE76FF040000861204660
:102AC00000F066FC21687CE76FF02000086120467A
:102AD000FFF75CFE21687CE76FF4801008612046F8
:102AE000FFF758FE21687CE76FF40010086120466C
:102AF000FFF74EFE21687CE76FF4800008612046F6
:102B0000FFF74AFE21687CE7204600F025F82046C2
:102B100000F0A8FA2168002020771FE7204600F087
:102B20001BF8204600F09EFA2168002020771CE761
:102B3000204600F011F8204600F094FA21680020A9
:102B4000207719E7204600F007F8204600F08AFABF
:102B500021680020207716E7704700002DE9F0413A
:102B600090F83C30012B04BF0220BDE8F0814FEA11
:102B7000B202052A00F28A81DFE812F00600500056
:102B8000A400F8004C01900103681A6AA3F1804682
:102B900022F001021A621D6A1A465C6852F818CFC8
:102BA0008F68A6F59636D1F800E025F002054FEAC9
:102BB000B626072E45EA07050AD80127B74017F0C1
:102BC000E50F1FBFCF6825F00C0527F004073D4334
:102BD000072E0BD8012707FA06F616F0E50F1FBFE0
:102BE00024F44074D1E9056734433C434FF68C76B6
:102BF000CFF6FE760CEA060747EA0E075C609F6197
:102C00004F6809695F631D629F6947F008079F610C
:102C10009F6927F004079F617DE100BF036843F2CD
:102C200000461A6AC4F2010622F010021A621D6AF6
:102C30001A46D3F804C052F8188FB3428E68D1F800
:102C400000E025F0200545EA061505D042F60046CD
:102C5000C4F20106B34207D1CE686FF0400725F0F9
:102C6000C00507EA06163543A3F18046A6F5963659
:102C70004FEAB626072E0CD8012707FA06F616F0FB
:102C8000E50F1FBFD1E905672CF44064374344EAE0
:102C9000870C48F6FF44CFF6FF6404EA080444EAD0
:102CA0000E27C3F804C09F614F6809699F631D62C6
:102CB0009F6947F400679F619F6927F480679F6160
:102CC00028E100BF036843F200461A6AC4F2010615
:102CD00022F480721A621D6A1A46D3F804C052F8B0
:102CE0001CEFB3428E68D1F8008025F4007545EAE8
:102CF000062505D042F60046C4F20106B34207D1CC
:102D0000CE6840F2FF47360225F44065BE433543A6
:102D1000A3F18046A6F596364FEAB626072E0CD8C4
:102D2000012707FA06F616F0E50F1FBFD1E9056780
:102D30002CF44054374344EA071C4FF68C74CFF60A
:102D4000FE740EEA040747EA0807C3F804C0DF610F
:102D50004F680969DF631D62DF6947F00807DF61BB
:102D6000DF6927F00407DF61D5E000BF036843F2A5
:102D700000461A6AC4F2010622F480521A621D6AE1
:102D80001A46D3F804C052F81C8FB3428E68D1F8AB
:102D900000E025F4005545EA063505D042F6004628
:102DA000C4F20106B34207D1CE6844F6FF7736037A
:102DB00025F44045BE433543A3F18046A6F596363B
:102DC0004FEAB626072E0CD8012707FA06F616F0AA
:102DD000E50F1FBFD1E905672CF44044374344EAAF
:102DE000871C48F6FF44CFF6FF6404EA080444EA6F
:102DF0000E27C3F804C0DF614F6809691F641D62B4
:102E0000DF6947F40067DF61DF6927F48067DF610E
:102E100080E000BF03681A6AA3F1804722F4803281
:102E20001A621A46A7F59637D3F820805D6852F8E3
:102E300050EFD1F800C08E684FEAB727072F09D8A6
:102E40000124BC4014F0E50F1EBF4C6925F4803509
:102E500045EA042528F4003444EA06444FF68C760B
:102E6000CFF6FE7603360EEA060747EA0C075D60EA
:102E70001F654F6809699F641C621F6D47F0080752
:102E80001F651F6D27F004071F6544E00121002224
:102E900080F83C200846BDE8F08100BF03681A6A4C
:102EA000A3F1804722F480121A621A46A7F59637DA
:102EB000D3F820805D6852F850EFD1F800C08E68DA
:102EC0004FEAB727072F09D80124BC4014F0E50FBB
:102ED0001EBF4C6925F4802545EA842528F400149A
:102EE00044EA065448F6FF46CFF6FF6606F54076FC
:102EF0000EEA060747EA0C275D601F654F680969FF
:102F0000DF641C621F6D47F400671F651F6D27F4A7
:102F100080671F65090213681943116000210022B0
:102F200080F83C200846BDE8F0810000002804BF7E
:102F30000120704710B5044690F83D0028B90020E4
:102F400084F83C00204600F023F8022084F83D007D
:102F50002068211D00F0AEFC012084F8480084F8B0
:102F60003E0084F83F0084F8400084F8410084F873
:102F7000420084F8430084F8440084F8450084F853
:102F8000460084F8470084F83D00002010BD000092
:102F9000F0B583B00446006840F20041C4F200017D
:102FA00088422FD0B0F1804F5AD141F25800C4F27C
:102FB0000200016841F2EC1541F001010160006876
:102FC000C2F2000500F00100029002980820C4F24D
:102FD00002003821102200234FF0800C4FF4007EB5
:102FE0004FF40066202785E80F502846C5E906679C
:102FF0002B62FDF729FB002818BFFDF7C9FA6562AF
:103000002BE000BF41F25800C4F20200016841F217
:103010004C2541F0020101600068C2F2000500F099
:103020000200019001980820C4F2020014304021EF
:103030001022002380274FF480764FF4806C85E8BF
:103040008F002846C5E9056CC5E90733FDF7FCFA92
:10305000002818BFFDF79CFA256305F128000460DD
:1030600003B0F0BD7047000070470000B0B50C46DB
:10307000054669B1201F4FEAB000032814D8DFE8E5
:1030800000F003171B1F00BF05F13F011AE000BF4E
:1030900095F83E00022804BF0220B0BD05F13E00B5
:1030A0000078012839D136E005F143010AE000BF7C
:1030B00005F1400106E000BF05F1410102E000BF5B
:1030C00005F142010978022904BF0220B0BD03289E
:1030D0000AD8DFE800F0030F151B00BF05F13F0021
:1030E0000078012819D116E005F143000078012885
:1030F00013D110E005F14000007801280DD10AE05D
:1031000005F141000078012807D104E005F14200F3
:103110000078012801D11AB913B10120B0BD00BF58
:1031200064B1201F4FEAB00003280BD8DFE800F09D
:10313000020E1216022085F83F0012E0022085F8E8
:103140003E000EE0022085F843000AE0022085F8E8
:10315000400006E0022085F8410002E0022085F8E8
:1031600042004FEAB4000328D7D8DFE800F0032379
:10317000456700BF686A43F6C111C0F60001C1622D
:10318000686A43F62D21C0F600010163686A43F6C0
:103190006521D5F800C0C0F600014163686A0CF1F2
:1031A000340C11466246FDF7E5FA0028B5D14FF41C
:1031B000007063E0A86A43F6C111C0F60001C16265
:1031C000A86A43F62D21C0F600010163A86A43F600
:1031D0006521D5F800C0C0F600014163A86A0CF172
:1031E000380C11466246FDF7C5FA00287FF495AF0A
:1031F0004FF4806042E000BFE86A43F6C111C0F6B8
:103200000001C162E86A43F62D21C0F600010163A6
:10321000E86A43F66521D5F800C0C0F600014163B5
:10322000E86A0CF13C0C11466246FDF7A3FA00284F
:103230007FF473AF4FF4006020E000BF286B43F6CB
:10324000C111C0F60001C162286B43F62D21C0F602
:1032500000010163286B43F66521D5F800C0C0F674
:1032600000014163286B0CF1400C11466246FDF7EA
:1032700081FA00287FF451AF4FF480502968CA6862
:103280001043C86004F01F0201200B6A00FA02F22A
:1032900093430B620B6A1343A1F18042A2F596326D
:1032A0004FEAB222062A0B6242D8904010F0650F16
:1032B0003ED0486C42F6FF32C4F2010240F40040B6
:1032C000914248640EDCB1F1804F1DD040F20040C5
:1032D000C4F20000814217D040F60000C4F20000A2
:1032E00010E000BF42F60040C4F2010081420BD062
:1032F00044F20000C4F20100814205D043F20040D4
:10330000C4F2010081420CD188680722C0F2010298
:103310000240062A4FF0000008D0B2F5803F08BFF7
:10332000B0BD086840F0010008600020B0BD00BFDB
:1033300042F6FF30C4F201008142C4DD43F6FF7063
:10334000C4F20100814207DC42F60040C4F20100F1
:103350008142D3D1D8E700BF44F20000C4F201009B
:103360008142D1D044F60000C4F20100814202BF84
:10337000486C40F400404864D3E70000006841F224
:103380000001C4F20001884218BF7047FDF74EBB30
:1033900070470000FEE7000080B582B041F24800AF
:1033A000C4F202000168002241F0040101600168DA
:1033B00001F0040101910199016841F001010160EE
:1033C0000068052100F00100009000980B20FDF737
:1033D000DBFB0B20FDF7C4FB0C2005210022FDF7D1
:1033E000D3FB0C2002B0BDE88040FDF7B9BB000064
:1033F00080B543F2F57047F69C32C0F60000C0F687
:103400000002002102F080FB40F61871C2F20001B8
:10341000086080BD2DE9F04387B0002741F24C00E1
:103420000697C4F20200016840F2004941F004012D
:1034300001600168C4F6000901F0040101910199DD
:10344000016809F5806541F0010101600168002211
:1034500001F001010191019901684FF4604641F0CA
:103460000201016000684FF4604100F00200019029
:1034700001982846FDF7CEFA4846402100224FF039
:103480004008FDF7C7FA029602AE012428463146ED
:10349000CDE903470597FDF7DFF948463146CDE909
:1034A0000284CDE90477FDF7D7F907B0BDE8F083D2
:1034B00070B541F2A05043F60041C2F20000C4F2E0
:1034C00000014FF4827200234FF4407C4FF0020E53
:1034D000012480E80E5000F114014FF40075182605
:1034E00070C10721C0E90833C0E90A31C0E90C33D3
:1034F000FFF7A2F8002808BF70BDBDE87040FDF7D7
:1035000047B8000010B590B041F204600024C2F248
:1035100000004FF08041D1220994CDE90644CDE965
:103520000444C0E90014C0E9024204618461FFF769
:10353000FDFC002818BFFDF72BF841F20460C2F231
:10354000000008A908940A94FFF728F9002818BF7A
:10355000FDF71EF8602001908B2041F20464029078
:103560000020C2F200040390059001A92046002229
:10357000FFF7F4FA002818BFFDF70AF8206840F2B8
:103580000041C4F20001884214D0B0F1804F2ED126
:1035900041F24C00C4F202000168202241F0010116
:1035A00001600068012100F001000B900B984FF0C2
:1035B000904012E041F24C00C4F202000168022285
:1035C00041F0020101600068022100F002000B904E
:1035D0000B9840F20040C4F600000B9202220C92BD
:1035E00000220F910BA9CDE90D22FDF735F910B09E
:1035F00010BD0000B0B590B041F2506040F20045FF
:103600000024C2F20000C4F20005D1210994CDE9E2
:103610000644CDE90444C0E90054C0E90241046114
:103620008461FFF783FC002818BFFCF7B1FF41F26B
:103630005060C2F2000008A908940A94FFF7AEF89F
:10364000002818BFFCF7A4FF602001908B2041F2F6
:10365000506402900020C2F200040390059001A97A
:1036600020460C22FFF77AFA002818BFFCF790FFDB
:103670002068A84214D0B0F1804F2ED141F24C0006
:10368000C4F202000168202241F0010101600068DB
:10369000012100F001000B900B984FF0904012E0D8
:1036A00041F24C00C4F202000168022241F0020122
:1036B00001600068022100F002000B900B9840F2BC
:1036C0000040C4F600000B9202220C9200220F91DF
:1036D0000BA9CDE90D22FDF7BFF810B0B0BD000079
:1036E00080B540F61C7040F20801C2F20000C2F240
:1036F0000001002200F084FD002818BFFCF748FFFD
:1037000040F61C7040F22C01C2F20000C2F200012F
:1037100000F0A0FF002818BFFCF73AFF40F61C702D
:1037200040F25011C2F20000C2F2000100F03AFB78
:10373000002818BFFCF72CFF40F61C70C2F20000F6
:1037400000F0A8FF002808BF80BDBDE88040FCF75E
:103750001FBF0000FEE70000FEE7000000000000C1
:10376000EFF30980BFF36F8F154B1A681EF0100F2F
:1037700008BF20ED108A20E9F04F10602DE9090004
:103780004FF0500080F31188BFF34F8FBFF36F8F5E
:1037900003F07EFB4FF0000080F31188BDE80900C4
:1037A00019680868B0E8F04F1EF0100F08BFB0ECC1
:1037B000108A80F30988BFF36F8F704700BF00BF86
:1037C000E8010020000000000000000000000000F0
:1037D000074B19680868B0E8F04F80F30988BFF319
:1037E0006F8F4FF0000080F31188704700BF00BF5B
:1037F000E8010020012002F045F9FBE780B54EF218
:103800001000CEF20000006803F0C4FF012808BFDA
:1038100080BDBDE8804003F08FBC000010B594B0BF
:10382000002400200B94CDE90944CDE90744FEF7BC
:1038300015F9222006904FF48070099040200A90DC
:10384000012004210C9002200F915421CDE90D009C
:10385000CDE91010CDE9120006A8FEF795FC28B1BD
:10386000EFF3108072B600BFFEE700BF0F2001909B
:103870000320CDE9020401A80421CDE90444FEF7A8
:10388000C1FA28B1EFF3108072B600BFFEE700BFA7
:1038900014B010BD4EF68850CEF20000016841F41D
:1038A000700101607047000041F29C60C2F20000AC
:1038B000FFF74AB880B540F2FF7C0268C4F2000C02
:1038C000604521DD40F60003C4F20003984224D095
:1038D00043F20043C4F2010398421ED042F6004373
:1038E000C4F20103984218D043F2FF33C4F201033B
:1038F00098421CDC604529DCB0F1804F3CD040F29E
:103900000043C4F2000335E0B0F1804F05D040F22F
:103910000043C4F200039842E6D14B6822F07002E3
:103920001A4343F2FF33C4F201039842E2DD44F24A
:10393000FF33C4F20103984212DC43F20043C4F2A5
:103940000103984218D044F2000311E040F600034E
:10395000C4F2000398420FD042F6004308E000BFD3
:1039600044F60003C4F20103984205D044F2004338
:10397000C4F20103984203D1CB6822F440721A4387
:103980004B6922F0800E8A6843EA0E03D1F800C02A
:103990000360C262A0F18042A2F596324FEAB222E1
:1039A000072AC0F828C007D8012303FA02F212F050
:1039B000E50F1CBF096901630121416180BD000061
:1039C00010B5846A616A814212D0A16A814217D01F
:1039D000E16A81421CD0216B814220D1C06908215B
:1039E0000028217704BF012084F8410017E000BFC0
:1039F000C16901200029207708BF84F83E000EE04D
:103A0000C0690221217750B9012084F83F0006E007
:103A1000C0690421217710B9012084F840002046B4
:103A2000FFF720FB0020207710BD000010B5846A4E
:103A3000616A81420AD0A16A814209D0E16A814269
:103A400008D0216B814207D1082004E0012002E068
:103A5000022000E0042020772046FFF705FB00202D
:103A6000207710BD10B5846A616A81420CD0A16ACA
:103A700081420FD0E16A814212D0216B814215D080
:103A8000012084F83D0016E00120207784F83E00F4
:103A900011E000BF02202077012084F83F000AE0F7
:103AA00004202077012084F8400004E008202077DB
:103AB000012084F841002046FEF742FF00202077D5
:103AC00010BD000010B540F2F424C2F200040A4612
:103AD00002A0214600F026FB204610BD43444320AF
:103AE000436F6E666967000010B5D0F8BC323BB317
:103AF0008E4601EB810100EB810151F8184F64B152
:103B0000D0F8C4C20EEB8E020CEBC202D2F838C061
:103B1000B4FBFCF202FB1C42A2B10024C3F8144225
:103B2000D0F8C002D0F810C0BCF1000F06D0D3F816
:103B3000080203F504717246E0470024204610BDD8
:103B4000032010BD00240C6071460022002300F009
:103B500063FD204610BD0000B0B5D0F8BC527DB169
:103B6000044600F013FCD4F8C02205F50371D368B5
:103B7000D5F80422C5F80C02104698470020B0BDC5
:103B80000320B0BDB0B58121044600F061FB0025E3
:103B900020460121258700F05BFB20468221A4F806
:103BA000785100F055FBD4F8BC02E56448B1D4F874
:103BB000C00240688047D4F8BC0201F009F8C4F89C
:103BC000BC520020B0BD000040F2EC001222C2F254
:103BD00000000A807047000010B5D0F8BC428CB1DC
:103BE000D0F8C01281B194F80002FF280CD08B6885
:103BF00094F8012221469847FF2084F80002002013
:103C000010BD00BF032010BD002010BD014640F2D2
:103C100000100A22C2F200000A807047014640F2FA
:103C200064004322C2F200000A807047014640F25D
:103C3000A8004322C2F200000A807047014640F209
:103C40000C104322C2F200000A807047F0B581B028
:103C500004464FF4077000F0BDFFE8B30546C4F812
:103C6000BC02207C4026002808BF4FF40076204686
:103C700081210222334600F0E5FB01272046012185
:103C800002223346278700F0DDFB1020A4F84E0007
:103C90002046822103220823A4F8787100F0D2FB89
:103CA000D4F8C002A4F84C70006880470020C5F822
:103CB0001402C5F81802207CD5F8042200282046FA
:103CC0004FF001010CBF4FF40073402300F0CEFB16
:103CD000002001B0F0BD00BF0020C4F8BC020220EB
:103CE00001B0F0BD10B540F2F424C2F200040A465F
:103CF00002A0214600F016FA204610BD434443209E
:103D0000496E7465726661636500000040F264107C
:103D10000422C2F200000A807047000010B540F291
:103D2000F424C2F200040A4602A0214600F0FAF987
:103D3000204610BD53544D6963726F656C656374A2
:103D4000726F6E696373000010B540F2F424C2F222
:103D500000040A4602A0214600F0E4F9204610BD06
:103D600053544D3332205669727475616C20436F21
:103D70006D506F727400000080B5D0F8BC1279B13C
:103D800090F810C0D1F8042240230121BCF1000FAB
:103D900008BF4FF4007300F069FB002080BD00BF36
:103DA000032080BD00290EBF0320C0F8C0120020F0
:103DB00070470000B0B547F29050C1F6FF7002683E
:103DC00083684FF01A0C9B18A1F800C000F0A38084
:103DD0004FF0370C1A0F0CEB13714068B3F1204F02
:103DE00038BF02F1300140F26812C2F20002917055
:103DF00019014FF0000E0CEB117582F803E0C3F3CC
:103E00000364B1F1204F38BF04F130051902157178
:103E10000CEB117582F805E0C3F30354B1F1204FA8
:103E200038BF04F13005190395710CEB117582F858
:103E300007E0C3F30344B1F1204F38BF04F130056C
:103E4000190415720CEB117582F809E0C3F3033401
:103E5000B1F1204F38BF04F13005190595720CEB14
:103E6000117582F80BE0C3F30324B1F1204F38BF82
:103E700004F1300519061573C3F303140CEB117527
:103E8000B1F1204F4FEA037103F00F0382F80DE008
:103E900038BF04F1300503F13704957382F80FE061
:103EA000B1F1204F38BF03F13004010F0CEB107358
:103EB000147482F811E0B0F1204F38BF01F13003E3
:103EC00001010CEB1174937482F813E0C0F30363E7
:103ED000B1F1204F38BF03F1300401021475C0F373
:103EE00003530CEB1174B1F1204F4FEA003182F80B
:103EF00015E038BF03F130040CEB1173947582F8B0
:103F000017E0C0F30340B1F1204F38BF00F1300398
:103F1000137682F819E040F26810C2F20000B0BDDA
:103F2000D0F8BC0200280EBF0320C0F80412002005
:103F300070470000D0F8BC0200280FBF0320C0F873
:103F40000812C0F8102200207047000070B582B03F
:103F5000D0F8BC62044600208DF80700ADF80400DC
:103F6000C6B108780D4610F0600117D020295DD148
:103F7000EA88002A2AD040B2B0F1FF3F32DD6878EB
:103F8000314686F80002204686F8012200F096F8B5
:103F9000002617E00326304602B070BD68780B2873
:103FA00044D80026DFE800F0060E42424242424278
:103FB00042422C3A94F89C02032837D101A92046AA
:103FC000022225E0304602B070BD00BFD4F8C00226
:103FD000294683686878002200269847304602B058
:103FE00070BD00BFD4F8C002314683686878984736
:103FF000EA8820463146072A28BF072208E000BF8A
:1040000094F89C02032811D10DF1070120460122EA
:1040100000F06EF80026304602B070BD94F89C02A5
:10402000032803D10026304602B070BD2046294641
:1040300000F038F80326304602B070BD80B5D0F8E5
:10404000BC223AB1D2F8141200294FF0010103D07A
:10405000084680BD032080BDC2F81412D2F8103289
:10406000D2F808228121C36200F0D6FA0021084666
:1040700080BD000080B5D0F8B8220AB152689047E0
:10408000002080BD80B513460A46002100F0EEF9FD
:10409000002080BD80B513460A46002100F0BCFA1E
:1040A000002080BD10B58021044600F087FA20462C
:1040B0000021BDE8104000F081BA000080B5134631
:1040C0000A460321C0F894120021C0E9563300F0DB
:1040D000CDF9002080BD000080B50521C0F8941204
:1040E00000210022002300F0C1F9002080BD000063
:1040F00080B513460A460221C0F894120021C0E997
:10410000063300F089FA002080BD000080B504214C
:10411000C0F8941200210022002300F07DFA002054
:1041200080BD000010B5002868D00378B3B100F15D
:10413000020E4FF0000C00BF1EF8013C93B19EF838
:1041400000309BB19EF80130A3B19EF802300CF113
:10415000040C002B0EF1040EEED10DE04FF0000C1C
:104160000AE000BF4CF0010C06E000BF4CF0020C6E
:1041700002E000BF4CF0030C5FFA8CFC022303EB5F
:104180004C03138003220B704A7090F800E0BEF1DC
:10419000000F33D0841C02224FF0000C1AE000BF45
:1041A000101DC0B20B5440F0010001F800C063784C
:1041B000002B08BF10BD901DC0B20B5440F0010091
:1041C00001F800C094F802E00832BEF1000F04F1DB
:1041D000040413D0D3B201F803E043F0010301F863
:1041E00003C014F8013C4BB1901CC0B20B5440F01A
:1041F000010001F800C02378002BD1D110BD0000D0
:10420000002804BF032070470023C0F8B832C0F86C
:10421000C0320029C0F8CC3218BFC0F8B412012156
:1042200080F89C12027000F0B5B8000080B5D0F89C
:10423000C402FCF781FD40F20032C100C0F201323D
:1042400022FA01F1032888BF0321C8B280BD000013
:1042500080B5D0F8C402FCF747FD40F20032C1003F
:10426000C0F2013222FA01F1032888BF0321C8B24B
:1042700080BD0000B0B5044671B194F89C020328DB
:104280004AD1D4F8B8024269002A45D02046904766
:10429000002808BF0020B0BDD4F89402022834D111
:1042A000D4E9070188420DD9431A204611461A461F
:1042B000E361FFF7EFFE204600210022002300F01B
:1042C000D5F822E010D1A16981420DD3D4F898022B
:1042D000814209D22046002100220025FFF7DAFEA4
:1042E000C4F89852E7E700BF94F89C02032805D170
:1042F000D4F8B802C16809B1204688472046802119
:1043000000F05CF92046FFF7E7FE94F8A0020128D0
:1043100004BF002084F8A0020020B0BD10B5044600
:1043200071B194F89C0203281DD1D4F8B8028269B7
:10433000CAB120469047002808BF002010BD00BF2A
:10434000D4F8940203280ED1D4E9570398420DD92A
:10435000C01AC4F85C01984238BF03462046114693
:104360001A46FFF78FFE002010BD00BF94F89C0294
:10437000032805D1D4F8B802016909B1204688475D
:104380002046FFF7C3FE002010BD0000D0F8C40295
:10439000FCF704BD10B5044641F2AC2045F60041DF
:1043A000C2F20000C4F200010822022380E80E00DD
:1043B0000021C0F8F042C4F8C402C0E90431C0E9E9
:1043C00006110162FDF742FA002818BFFCF7E0F879
:1043D000D4F8C402002100221823FCF751FCD4F8C1
:1043E000C402802100225823FCF74AFCD4F8C402FE
:1043F00081210022C023FCF743FCD4F8C402012130
:1044000000224FF48873FCF73BFCD4F8C4028221ED
:1044100000224FF48073FCF733FC002010BD000035
:104420004AB2D0F8C40201F07F0101EB810100EB38
:10443000C10000F5B571002A48BF00F12A010878D3
:104440007047000080B59446D0F8C4021A4663460F
:10445000FCF7AEFC40F20032C100C0F2013222FA99
:1044600001F1032888BF0321C8B280BD80B5D0F810
:10447000C402FCF7D1FC40F20032C100C0F20132AC
:1044800022FA01F1032888BF0321C8B280BD0000D1
:10449000F0B581B004460120002184F89C02C4F8E4
:1044A0009412D4F8B8026160C4F8A41200B3D4F82E
:1044B000BC1221B1426812B120460021904720462B
:1044C00000210022402300254026FFF7BBFF0127E3
:1044D0002046802100224023A4F86471C4F8606162
:1044E000FFF7B0FFA7842662284601B0F0BD00BFE9
:1044F0000325284601B0F0BD90F89C12042904BFA2
:1045000090F89D1280F89C120020704780B5D0F87A
:10451000B81249B190F89C22032A02D1C96901B1AD
:104520008847002080BD00BF032080BD02460020D8
:104530001174704780B5D0F8C402FDF749FA40F213
:104540000032C100C0F2013222FA01F1032888BF13
:104550000321C8B280BD0000B0B500F2AA25044610
:10456000284600F06BF80120C4F8940294F8AA02DF
:10457000B4F8B02200F01F010229C4F8982209D033
:1045800001290DD091B920462946BDE8B04000F080
:1045900083B800BF20462946BDE8B04000F036BAD7
:1045A00020462946BDE8B04000F0D4BA00F08001B2
:1045B0002046BDE8B04000F001B8000080B5D0F85A
:1045C000C402FCF743FC40F20032C100C0F20132E9
:1045D00022FA01F1032888BF0321C8B280BD000080
:1045E00080B5D0F8C402FDF70FFA40F20032C100E6
:1045F000C0F2013222FA01F1032888BF0321C8B2B8
:1046000080BD0000014690F89C02042281F89D02C2
:10461000002081F89C22704780B5D0F8C402FCF7D6
:1046200049FC40F20032C100C0F2013222FA01F12D
:10463000032888BF0321C8B280BD00000A78027039
:104640004A7842704A8842808A888280C988C180BC
:104650007047000010B582B004460020ADF8060097
:1046600061B1CA6AC4F8B81222B10DF106009047D0
:10467000C4F8CC02002002B010BD00BF032002B07D
:1046800010BD0000D0F8B822002A04BF03207047F4
:1046900012681047FFF7A4BFB0B582B00D46097885
:1046A000044611F060010DD0402901D020292FD1FE
:1046B000D4F8B80229468268204602B0BDE8B0406E
:1046C000104700BF6878092800F2D680DFE810F0B4
:1046D0000A002C00D4003E00D40046006600D4003E
:1046E0008000940094F89C020138022800F2C480F3
:1046F000E888022840F0C080D4F8A40203220028F1
:1047000008BF0122214641F80C2F2046022203E176
:1047100020468021FFF752FF204600210025FFF7A9
:104720004DFF284602B0B0BD94F89C020138022823
:1047300000F2A280688800250128F2D12046C4F842
:10474000A452FFF7E3FC284602B0B0BD68880128F8
:1047500040F068800120C4F8A40211E1A888002874
:1047600040F08A80E888002840F0868068887F28AA
:1047700000F2828094F89C12032900F07D80C5B27B
:1047800084F89E0220462946FFF7D4FE2046FFF714
:10479000BDFC002D0CBF012002201DE168884FF0F8
:1047A000FF3101EB102100220E29ADF8062000F2A6
:1047B000B980DFE801F0096D7BB7B78791B7B7B76C
:1047C000B7B7B7B79D0000BFD4F8B402026893E052
:1047D000E888012850D194F89C02411E022945D254
:1047E0000025214641F8085F20460122FFF780FCA2
:1047F000284602B0B0BD00BF688840F2F025C2F282
:10480000000510F0FE0F287010D020468021FFF721
:10481000D5FE20460021FFF7D1FE0325284602B031
:10482000B0BD00BF0025284602B0B0BD94F89C2260
:10483000C1B2032A00F08280022A40F0A980002938
:1048400000F09E8020466160FFF71CFF002800F00A
:10485000BF80054620468021FFF7B0FE204600219C
:10486000FFF7ACFE284602B0B0BD00BF032803D15D
:10487000211D204601224FE020468021FFF79EFEA9
:10488000204600210025FFF799FE284602B0B0BD62
:10489000217CD4F8B80200290CBF816AC16A0DF1ED
:1048A000060088470146022020E000BFC0B205286C
:1048B00038D8DFE800F003979B9FA3A7D4F8B40291
:1048C000426818E0207C68BBD4F8B802416B0DF157
:1048D0000600884714E000BF207C18BBD4F8B8025B
:1048E000016B0DF10600884701460720487008E07B
:1048F000D4F8B402C269AAB1207C0DF10601904738
:104900000146EA88E2B3BDF8060058B1904238BFCC
:1049100002462046ADF80620FFF7EAFB00252846B0
:1049200002B0B0BD20468021FFF748FE204600219E
:10493000FFF744FE0025284602B0B0BDC1B3606851
:1049400088421DD0C1B22046FFF794FB297820464B
:104950006160FFF797FE98B1054620468021FFF77A
:104960002DFE20460021FFF729FE21792046FFF782
:1049700081FB022084F89C02284602B0B0BD00BF33
:104980002046FFF7C3FB0025284602B0B0BD00BF9C
:1049900020468021FFF712FE20460021FFF70EFE81
:1049A00029782046FFF766FB0325284602B0B0BDF4
:1049B000022084F89C026160204600210025FFF758
:1049C00059FB2046FFF7A2FB284602B0B0BD00BF4E
:1049D0002046FFF79BFB032084F89C020025284615
:1049E00002B0B0BDD4F8B402826884E7D4F8B4024F
:1049F000C26880E7D4F8B40202697CE7D4F8B40254
:104A0000426978E7D4F8B402826974E7B0B50D461C
:104A10000978044611F060010CD0402901D020290A
:104A200022D1D4F8B802294682682046BDE8B040B9
:104A3000104700BF6878297900B3012836D00328D1
:104A400068D194F89C02032834D1688838B911F0F1
:104A50007F0004D0E88810B92046FFF7AFFD20465C
:104A6000FFF754FB0020B0BD20468021FFF7A6FDD4
:104A700020460021FFF7A2FD0020B0BD94F89C0263
:104A8000032825D0022808BF5FEA416042D111F017
:104A9000800004F114014FF0140004BF4FF4AA7019
:104AA00004F5AA710022225020464DE094F89C02A1
:104AB000032839D002282DD148062BD02046FFF7F5
:104AC0007DFD20468021FFF779FD0020B0BD00BFAD
:104AD00001F00F0000EB8000802904EB80002CBF68
:104AE000808CB0F86401A8B101F07F0000EB800079
:104AF00004EB800000F11405802938BF00F5AA7589
:104B000048061DD02046FFF78BFC002818BF012067
:104B100017E000BF20468021FFF750FD204600210E
:104B2000FFF74CFD0020B0BD68880028A4D14806DE
:104B300002D02046FFF77AFB2046FFF7E7FA70E73E
:104B400000202860204629460222FFF7D1FA0020E3
:104B5000B0BD0000B0B50D460978044611F0600103
:104B600018BF402914D194F89C020138022803D8B8
:104B7000A88810F0FE0F17D020468021FFF71EFDF9
:104B8000204600210025FFF719FD2846B0BD00BFD3
:104B90002029E8D020468021FFF710FD2046002183
:104BA0000025FFF70BFD0BE0D4F8B8022946826818
:104BB00020469047E9880546002908BF002D01D00E
:104BC0002846B0BD2046FFF7A1FA0020B0BD000086
:104BD0007047000040F2F440C2F20000704700004D
:104BE000F0B50C78024691F803E000EB840730F84A
:104BF000240047F27063BEF1030F20EA030309D8D3
:104C00000020DFE80EF00309100D00BF43F400732D
:104C100008E000BF012006E043F4806302E000BF2B
:104C200043F4C063002048F28006CFF6FF7633439A
:104C30003B803B8840F60F752B40234333433B803A
:104C40000B7B48F2800C002B4AD03B8840F60F6566
:104C50002B4048F28005BEF1020F08BF05F58075B4
:104C60002B433B80B2F850300D8902EBC40423443F
:104C700025F00105A3F80054B2F850204B892244D6
:104C800023F00103A2F8043449783A88002902F499
:104C900080414BD039B1398840F60F7211400CF584
:104CA0008042114339803988490607D5398840F652
:104CB0000F7211400CF1400211433980398840F6DF
:104CC0003F7211400CF120024A40BEF1010F08BFB3
:104CD00041EA0C023A80398843F60F7245E000BF82
:104CE0004D78B2F85030E600CC88002D24F0010455
:104CF00040D091191944A1F800443988490607D5D4
:104D0000398840F60F7211400CF14002114339808E
:104D1000398840F63F72BEF1010F01EA020125D049
:104D20000CF1200251403980F0BD00BF39B1398803
:104D300040F60F7211400CF58042114339803988DA
:104D4000490607D5398840F60F7211400CF1400230
:104D500011433980398843F60F7211400CF54052E7
:104D600051403980398840F63F72114041EA0C01C8
:104D70003980F0BD16443344A3F80444B2F85020FF
:104D80000B6906F206413F2B22D35E094FF0FF3537
:104D9000DC0608BF05EB531648F20003CFF6FF739D
:104DA00043EA862353523988490407D5398840F6A7
:104DB0000F7211400CF5804211433980398843F657
:104DC0000F7211400CF5405251403980F0BD00BFC8
:104DD00053B103F0010606EB53039B02535239888B
:104DE0004904EBD5E2E700BF535A48F2000623F42A
:104DF000F8435352535ACFF6FF7633435352398810
:104E00004904DBD5D2E70000B0B50C784B78097BBC
:104E1000024630F824004CF2800C4CF28005002948
:104E20004FEA44013AD0002B00F4804040D040B11A
:104E300032F8110040F60F73184040EA0C0022F8D7
:104E4000110032F8110043F60F7E400640F63F7025
:104E500009D532F8113040F60F742340ACF57F5479
:104E6000234322F8113032F8113040F60F742340FA
:104E70002B43ACF5804522F8113032F81130184040
:104E8000284322F8110032F81100ACF5804300EA03
:104E90000E000343002022F81130B0BDF3B14006EC
:104EA00040F63F7EEFD5ACF57F5540F60F70E4E756
:104EB00040B132F8110040F60F73184040EA0C0080
:104EC00022F8110032F81100ACF57F55400640F68B
:104ED0003F7E43F60F70BCD4C5E700BF400443F6E5
:104EE0000F7ED0D540F60F70C7E700000146B0F83E
:104EF000580040F400420020A1F8582070470000FC
:104F000001460120A1F8400000220020A1F8402025
:104F1000A1F84420A1F85020704700000146B0F8E5
:104F2000400044F27F0202400020A1F84020704778
:104F300080B50A7B12B1002080BD00BF0A784B7893
:104F400030F822C04FEA4202B3B15FEA4C6348F244
:104F5000A00E0BD530F812C040F60F730CEA030C0C
:104F60000EF1200343EA0C0320F81230C97801291E
:104F7000E1D040F63F7110E05FEA4C414BF2800E09
:104F800009D530F8121040F60F7319400EF5805312
:104F9000194320F8121043F60F7130F812301940FF
:104FA00081EA0E0120F81210002080BD02460B7825
:104FB000487832F823C040F63F71002848F290004C
:104FC00008BF43F60F71CFF6FF7008BF00F57F6092
:104FD00001EA0C014140002022F823107047000034
:104FE0002DE9F04F82B04A78012A5DD18B690A69B8
:104FF0000F7B934228BF1346002F7BD0CF780C6ADB
:10500000022F40F0B9800D7840F60F6630F8257019
:105010004FEA450E944206EA070648F2B00C40F209
:10502000138148F2B007CFF6FF77D0373E43A4EBA9
:10503000030A20F81E60C1F820A030F81E70B0F8F6
:105040005060ED007F0600EB050800F1518108EB90
:105050000604A4F80234D1F814B09DB2002D00F07B
:1050600015830E89064406F580696E1C4FF0FF35E6
:1050700005EB5604C6F34105002D4FEA560700F034
:1050800029825E46CDE9004836F8028B5C46CB4665
:10509000012D2BF8028B40F02182D946DDF80480E7
:1050A000A346009C013FE0E20B7B002B46D0CB786F
:1050B000012B00F09780022B40F0B680002A40F0D0
:1050C0007C81B0F850300F690A7803443E2F03F218
:1050D000024340F261817E094FF0FF35FC0608BFB4
:1050E00005EB571648F20007CFF6FF7747EA862709
:1050F0005AE100BF1A0400F0B581CA88D1F814E063
:10510000024402F58068012212FA83F24FF0FF3761
:10511000C2F3410407EB520C002C4FEA520200F09C
:105120008E81774637F8025B4646012C26F8025BF3
:1051300040F00C81013ABE46B04680E18A690B69B5
:10514000D71A3CBF002713468F61B0F850700A7819
:1051500007443F2B07F206476AD35E094FF0FF353D
:10516000DC0608BF05EB53164FF4004343EA8623E1
:1051700027F832304DE100BFE21A0F780A6230F8AA
:105180002720B0F85040FD00520605444FEA470E74
:105190009AB248F2B00C2C4400F18880002AA4F89E
:1051A000023400F0ED800B890132496903444FF06D
:1051B000FF34C2F3410503F5806304EB5208002D70
:1051C0004FEA520200F0ED810E4636F8024B1F46C0
:1051D000012D27F8024B40F05F81013A31463B46F2
:1051E000DFE100BF0B698F69FE1A3CBF00263B461A
:1051F000002A8E6140F00D81B0F850700A780744A3
:105200003E2B07F2024740F2F3805E094FF0FF3574
:10521000DC0608BF05EB531648F20003CFF6FF7318
:1052200043EA8623ECE000BF012002B0BDE8F08F26
:10523000002B00F0978003F0010606EB53039B025E
:1052400027F83230E5E000BF48F2B002CFF6FF7237
:10525000303A324320F81E20B0F8502000EBC5034E
:105260001A442304A2F8024400F08E800A89496996
:10527000024402F58063012212FA84F24FF0FF34F7
:10528000C2F3410504EB5208002D4FEA520200F030
:10529000A8810E4636F8024B1F46012D27F8024B17
:1052A00040F00481013A31463B469AE1002AA4F8D5
:1052B00006346DD04B890132496903444FF0FF3405
:1052C000C2F3410503F5806304EB5208002D4FEA59
:1052D000520200F0A6810E4636F8024B1F46012D01
:1052E00027F8024B40F0EC80013A31463B4698E10A
:1052F00008EB0605A5F80634D1F814B09DB2002DD0
:1053000000F018824E89064406F580696E1C4FF045
:10531000FF3505EB5604C6F34105002D4FEA56074D
:1053200000F0DA805E46CDE9004836F8028B5C4634
:10533000CB46012D2BF8028B40F0E080D946DDF8FA
:105340000480A346009C013FE3E100BFBEF8025089
:10535000022CA8F8025069D108F104080EF1040EDD
:10536000023A6CE037F8323023F4F84327F8323051
:1053700037F8323043F4004327F8323049E000BFB9
:1053800040F63F717CE000BF40F63F7178E000BF1F
:1053900040F63F7174E000BF002F00F0BF8007F0BF
:1053A000010606EB5707BF0223F83270B0F8503001
:1053B000034403EBC202A2F80674CA694AB30A782E
:1053C00044F2400730F822303B40BB4200D003BBE0
:1053D000520030F8123040F60F773B4048F2B007E9
:1053E000CFF6FF773B43103320F8123011E000BFB7
:1053F000002B00F0B58003F0010606EB53039B027F
:1054000027F83230B0F85070074407EBC202A2F818
:10541000063409784FEA410E42F6D071A1F5E04119
:10542000A1F5756C43F60F712AE000BFBEF8044089
:105430000EF1060EA8F8044008F10608033ABCF184
:10544000030F0FD3AEF10807A8F1080637F8085F7D
:10545000043A26F8085F7D887580BD88B580FD8890
:10546000F580F3D1B0F850200978024402EBC10274
:1054700048F2B00CA2F802344FEA410E40F63F71F8
:1054800030F81E20114081EA0C0120F81E10002087
:1054900002B0BDE8F08F00BF4C88022D5C8040F068
:1054A0007B8004330431023A7BE000BF4C88022D3C
:1054B0005C8040F0918004330431023A91E000BFF7
:1054C0004C88022D5C8040F0A78004330431023AFE
:1054D000A7E000BF5E46C8E05E461AE16688A346C4
:1054E000A9F80260DDF80480009C022D40F0B48031
:1054F00009F104090BF10406023FB6E06688A346F1
:10550000A9F80260DDF80480009C022D40F0F880CC
:1055100009F104090BF10406023FFAE033F8327096
:1055200027F4F84723F8327033F8327047F4004715
:1055300023F83270B0F85030034403EBC202B2F8E3
:10554000063423F4F843A2F80634B2F8063443F4E0
:105550000043A2F80634CA69002A7FF430AF58E746
:1055600037F8323023F4F84327F8323037F8323046
:1055700043F4004327F83230B0F85030034403EBD3
:10558000C202B2F8063423F4F843A2F80634B2F8A3
:10559000063443F400433AE78C8806319C80063396
:1055A000033AB8F1030F03D240F63F7168E700BF3A
:1055B000A1F10804083B00BF34F8081F043A23F89F
:1055C000081F61885980A1889980E188D98040F6B8
:1055D0003F71F1D154E700BF8C8806319C800633BF
:1055E000033AB8F1030F03D240F63F7148E700BF1A
:1055F000A1F10804083B00BF34F8081F043A23F85F
:10560000081F61885980A1889980E188D98040F677
:105610003F71F1D134E700BF8C8806319C8006339E
:10562000033AB8F1030F03D240F63F7128E700BFF9
:10563000A1F10804083B00BF34F8081F043A23F81E
:10564000081F61885980A1889980E188D98040F637
:105650003F71F1D114E700BFBBF804500BF106060F
:10566000A9F8045009F10609033F032C0ED3083EA4
:10567000A9F1080536F8084F043F25F8084F74884B
:105680006C80B488AC80F488EC80F3D10BEB03061B
:1056900000244E61924588BFAAEB03040C62B0F867
:1056A000502088BF9A4608EB02031FFA8AF2A3F83B
:1056B00006A4CAB14989013201444FF0FF33C2F355
:1056C000410401F5806103EB5203002C4FEA5202C2
:1056D0006DD036F8027B0D46012C25F8027B07D1F0
:1056E000013A294663E000BF40F63F71C8E600BFBB
:1056F00036F8025B022C4D8054D10431023A56E058
:10570000BBF804500BF10606A9F8045009F106098C
:10571000033F032C0ED3083EA9F1080536F8084FC5
:10572000043F25F8084F74886C80B488AC80F488F6
:10573000EC80F3D10BEB030600244E61924588BF49
:10574000AAEB03040C62B0F8502088BF9A4608EB1D
:1057500002031FFA8AF2A3F802A4BAB1098901323E
:1057600001444FF0FF33C2F3410401F5806103EBC4
:1057700052034FEA5202C4B336F8027B0D46012CA5
:1057800025F8027B06D1013A29462EE040F63F710A
:1057900076E600BF36F8025B022C4D8020D1043142
:1057A000023A22E036F8024B033A8C800631032B92
:1057B00002D240F63F7163E6A6F10803A1F10804A6
:1057C00033F8081F043A24F8081F59886180998823
:1057D000A180D988E18040F63F71F1D150E600BF49
:1057E00036F8024B033A8C800631032B02D240F686
:1057F0003F7145E6A6F10803A1F1080433F8081F3C
:10580000043A24F8081F598861809988A180D988B2
:10581000E18040F63F71F1D132E600000146002000
:10582000A1F844004BF680720020A1F84020704798
:1058300041F2AC20C2F20000FBF758BBB0F84400C4
:105840007047000070B51044022B00F5806440D30F
:105850004FF0FF32C3F34105580802EB530C4DB132
:10586000224632F8026B8E46012D2EF8026B07D1CC
:10587000013815E02246BCF1030F14462AD315E087
:105880006288022D4A8005D1221D01F1040E0238E2
:1058900006E000BFA688A21D01F1060E03388E8027
:1058A0007146BCF1030F144614D300BF32F8086BE5
:1058B000043821F8086B32F8066C21F8066C32F8CF
:1058C000046C21F8046C32F8026C21F8026CEDD102
:1058D00014468E46D8071CBF20888EF8000070BD85
:1058E000002904BF8021A0F84C1000207047000060
:1058F000B0B5002B3CD0104400F5806E581C4FF022
:10590000FF32C0F3410302EB500C4FEA5000E3B109
:105910000A4632F8025B7446012B24F8025B03D17D
:1059200001381146A64610E04A88022BAEF8022044
:1059300004D10EF1040E0431023806E08A880631E3
:10594000AEF804200EF1060E0338BCF1030F38BF89
:10595000B0BD0839AEF1080231F8083F043822F82A
:10596000083F4B8853808B889380CB88D380F3D1BA
:10597000B0BD0000FEE70000B0B58AB00F4802AF2E
:1059800001900EA000F1040ED0E90645006A9EE8E1
:105990000E50099046F6410087E80E50C0F6000010
:1059A00001AA0021CDE9074500F0AEF840F61471D8
:1059B000C2F2000108600AB0B0BD00BFD17B000890
:1059C00000000000000000000000000000000000D7
:1059D0000001000030000000000000000000000096
:1059E00094B0FBF731F8002400200B94CDE9094472
:1059F000CDE90744FCF732F8222006904FF480707E
:105A0000099040200A90012004210C9002200F915F
:105A10005421CDE90D00CDE91010CDE9120006A802
:105A2000FCF7B2FB20B1EFF3108072B6FEE700BFC7
:105A30000F2001900320CDE9020401A80421CDE943
:105A40000444FCF7DFF928B1EFF3108072B600BF11
:105A5000FEE700BFFDF7DEFCFDF79EFCFDF740FE14
:105A6000FDF750FDFDF7C6FDFDF722FD00F0E6FE57
:105A700001F06CFA00F016F8FDF7BAFC00F026F819
:105A8000FEE70000EFF3058100291CBF6FF0050061
:105A90007047002804BF0020704780B501F0AEF8C1
:105AA000002080BDEFF3058000281CBF6FF00500CB
:105AB000704740F2EC20C2F200000168002911BFDB
:105AC0004FF0FF30012101600020704710B5EFF367
:105AD000058000281CBF6FF0050010BD40F2EC20CF
