:020000040800F2
:1000000020290020B9020008916000080958000862
:100010008D6000080D05000891AD0008000000008B
:10002000000000000000000000000000A1680008BF
:10003000410600080000000001680008316900085E
:10004000D3020008D3020008D3020008D30200083C
:10005000D3020008D3020008D3020008D30200082C
:10006000D3020008D3020008D3020008D30200081C
:10007000D3020008D3020008D3020008D30200080C
:10008000D3020008D3020008D3020008D3020008FC
:100090004DAC0008D3020008D3020008D3020008C8
:1000A000D3020008CD690008D3020008D30200087B
:1000B000D3020008D3020008D3020008D3020008CC
:1000C000D3020008D3020008D3020008D3020008BC
:1000D000D3020008D3020008D3020008D3020008AC
:1000E000D3020008D3020008D3020008D30200089C
:1000F000D3020008D3020008D3020008D30200088C
:10010000D3020008D3020008D3020008D30200087B
:10011000D3020008D3020008D3020008D30200086B
:10012000D3020008D3020008D3020008D30200085B
:10013000D3020008D3020008D3020008D30200084B
:10014000D3020008D3020008D3020008D30200083B
:10015000D3020008D3020008D3020008D30200082B
:10016000D3020008D3020008D3020008D30200081B
:10017000D3020008D3020008D3020008D30200080B
:10018000D3020008D3020008D3020008D3020008FB
:10019000D302000800000000D3020008D3020008C8
:1001A000D3020008D3020008D3020008D3020008DB
:1001B000D3020008D3020008D3020008D3020008CB
:1001C000D3020008D3020008D3020008D3020008BB
:1001D000D3020008D302000800F002F800F05CF837
:1001E0000AA090E8000C82448344AAF10107DA4592
:1001F00001D100F051F8AFF2090EBAE80F0013F088
:10020000010F18BFFB1A43F0010318473CD500004B
:100210005CD500000A444FF0000C10F8013B13F0CD
:10022000070408BF10F8014B1D1108BF10F8015B4F
:10023000641E05D010F8016B641E01F8016BF9D142
:1002400013F0080F1EBF10F8014BAD1C0C1B09D199
:100250006D1E58BF01F801CBFAD505E014F8016B0B
:1002600001F8016B6D1EF9D59142D6D3704700009D
:100270000023002400250026103A28BF78C1FBD8AF
:10028000520728BF30C148BF0B6070471FB50CF044
:10029000ECFD1FBD10B510BD00F05CF81146FFF776
:1002A000F5FF0BF039F800F07AF803B4FFF7F2FF2E
:1002B00003BC00F07DF8000009488047094800476A
:1002C000FEE7FEE7FEE7FEE7FEE7FEE7FEE7FEE706
:1002D000FEE7FEE704480549054A064B7047000063
:1002E000B9690008D9010008202300202029002036
:1002F00020250020202500204FF0000200B51346E5
:1003000094469646203922BFA0E80C50A0E80C5035
:10031000B1F12001BFF4F7AF090728BFA0E80C50E6
:1003200048BF0CC05DF804EB890028BF40F8042BDF
:1003300008BF704748BF20F8022B11F0804F18BF4C
:1003400000F8012B704770477047704700487047AE
:10035000580300207546FFF7F9FFAE4605006946D1
:10036000534620F00700854618B020B5FFF7B2FFCE
:10037000BDE820404FF000064FF000074FF00008A6
:100380004FF0000BAC46ACE8C009ACE8C009ACE8E3
:10039000C009ACE8C00921F007018D46704710B5CF
:1003A0000446AFF300802046BDE81040FFF77DBF54
:1003B00001491820ABBEFEE726000200704700008E
:1003C00080B586B00490002002900498006805F083
:1003D000DBFA002840F09280FFE70498006880680C
:1003E0003F21C8F2000108420ED0FFE70499C86D12
:1003F00040F01000C8650499086E40F001000866DE
:1004000001208DF817007DE00498006805F048FA97
:10041000049801680120B1F1A04F01900CD0FFE7D2
:10042000049800684FF60071CAF6FF710844B0FAEC
:1004300080F040090190FFE70198C10740F2007089
:10044000C5F2000000291CBF40F20030C5F20000D8
:1004500005F044FA4FEA002000281CD5FFE740F2DF
:100460002800C2F200000068800942F66351C0F221
:100470003E51A0FB0110800900EB40010C2000EB75
:1004800081000290FFE7029820B1FFE7029801384F
:100490000290F8E7FFE701F083FD0390FFE704987F
:1004A00000680068C00740BBFFE70498006805F0DB
:1004B0006BFA28B9FFE70498006805F0F1F9FFE747
:1004C00001F06EFD0399401A032815D3FFE7049845
:1004D00000680068C00770B9FFE70499C86D40F074
:1004E0001000C8650499086E40F0010008660120FC
:1004F0008DF8170006E0FFE7D1E7FFE700208DF851
:100500001700FFE79DF8170006B080BDFFE7FEE784
:1005100084B08DF80F000291ADF806209DF80F0011
:100520000146009123281DD80099DFE801F012133D
:100530001415161B1B1B1B1B1B1B1B1B1B1B1B1B1D
:100540001B1B1B1B1B1B1B1B1B1B1B1B1B1B171802
:10055000191A08E007E006E005E004E003E002E025
:1005600001E000E0FFE7002004B070470020704782
:1005700080B582B041F2E470C2F20000009040F613
:10058000E071C2F200010022019207F00FFA009818
:1005900040F2E071C2F2000107F0EEF9019802B0FA
:1005A00080BD000080B584B003900291039941F2B0
:1005B000E470C2F20000019007F0DEF9019807F044
:1005C00085F9002004B080BD83B0029001918DF8C0
:1005D000032000208DF802009DF9020003B070474F
:1005E00080B586B00490ADF80E1000208DF80D0097
:1005F00041F2E470C2F20000D0F8BC02029002980E
:10060000D0F8140220B1FFE701208DF8170013E0A5
:100610000499BDF80E2041F2E470C2F2000001908E
:1006200007F0C4F9019807F0AFFA8DF80D009DF8B6
:100630000D008DF81700FFE79DF8170006B080BD8C
:100640007047000081B0EFF3108072B60090FFE7B2
:10065000FEE7000080B584B047F29050C1F6FF700D
:100660000068039047F29450C1F6FF700068029052
:1006700047F29850C1F6FF70006801900199039805
:1006800008440390039888B1FFE7039840F268118B
:10069000C2F2000100910231082205F0B7F800997A
:1006A00002981231042205F0B1F8FFE704B080BDD2
:1006B00080B5C6B02690259100208DF893001F903C
:1006C0001E902698406908B1FFE7FFE72598C068AB
:1006D0000021C4F27F01884201D0FFE700E0FFE77C
:1006E000FFE7269890F85800012805D1FFE702207F
:1006F0008DF89F0000F03DBD2699012081F858003B
:10070000FFE7FFE72698406928B1FFE72598006AD0
:1007100001282FD1FFE725984068092829D1FFE754
:100720002598806A68B1FFE725990A68886AC96ACE
:1007300002F0F84200F07C0040EA524008431E906C
:1007400006E02598006800F0F840400C1E90FFE796
:1007500026980068C06C44F20001C0F210410840C5
:100760001E99084326990968C8641E982699486608
:10077000FFE747E02698806EE0B9FFE72598006A1A
:10078000269988662699002048662598806A58B17F
:10079000FFE72599086A8A6AC96A013802F07C0273
:1007A000104308431E9004E02598006A01381E900B
:1007B000FFE7FFE7259908684968C0F3846001F006
:1007C0001F0100FA01F11E9808431E902699886EB9
:1007D000013888661E9A2699486E10434866269806
:1007E000806E70B9FFE726980068C06C44F2000183
:1007F000C0F210410840269A1168526E1043C86436
:10080000FFE7FFE72698006805F0A0F830BBFFE798
:10081000259890F8250090B9FFE726980068C068F1
:1008200020F44010259991F8242091F826104905CC
:1008300041EA0251084326990968C8600DE02698EC
:100840000068C06820F44010259991F8261040EA0D
:10085000415026990968C860FFE7FFE726980068BD
:1008600005F0B2F821902698006805F06FF8209006
:100870002198002840F00982FFE72098002840F0E6
:100880000482FFE72598806A20B1FFE72598C06AB7
:10089000A8B9FFE7259890F82500012807D1FFE7C0
:1008A00026980168C86840F00070C86006E0269885
:1008B0000168C86820F00070C860FFE716E025985E
:1008C00090F82500012809D1FFE72699C86D40F06E
:1008D0002000C86501208DF8930006E02698016885
:1008E000C86820F00070C860FFE7FFE7259890F81F
:1008F0003000012810D1FFE726980068006920F435
:10090000FF71259A506B926B1043084340F0020030
:1009100026990968086106E026980168086920F0B0
:1009200002000861FFE725988068B0F1004F0ED102
:10093000FFE72698006825990968002205F04CF821
:10094000269800684FF0004105F0F2F80CE0269878
:100950000068259A1168926805F03EF826980068AC
:10096000002105F0E5F8FFE7259840692699096818
:10097000C96801F01801890888402390259800690A
:1009800004281CD0FFE72698006825990A680969A1
:10099000239B05F073F826980068259A11699269DF
:1009A00005F09EF826980068259A1169127F013A91
:1009B000B2FA82F25209520605F07EF864E12698F6
:1009C0000068002104F0A2FF400348B9FFE7269821
:1009D0000068002104F09AFFC0F384601D9018E0C5
:1009E00026980068002104F091FF90FAA0F044904E
:1009F000449820B9FFE720208DF8170105E04498BE
:100A0000B0FA80F08DF81701FFE79DF817011D90EF
:100A1000FFE71D981C9025980068400330B9FFE758
:100A200025980068C0F384601B9015E02598006845
:100A300090FAA0F04290429820B9FFE720208DF86C
:100A40000F0105E04298B0FA80F08DF80F01FFE742
:100A50009DF80F011B90FFE71C981B99884207D156
:100A6000FFE7269800680022114605F04DF8FFE7E1
:100A700026980068012104F049FF400348B9FFE7C8
:100A800026980068012104F041FFC0F384601A90A9
:100A900018E026980068012104F038FF90FAA0F0D1
:100AA0004090409820B9FFE720208DF8070105E02D
:100AB0004098B0FA80F08DF80701FFE79DF8070134
:100AC0001A90FFE71A98199025980068400330B9EA
:100AD000FFE725980068C0F38460189015E025981A
:100AE000006890FAA0F03E903E9820B9FFE72020E1
:100AF0008DF8FF0005E03E98B0FA80F08DF8FF0019
:100B0000FFE79DF8FF001890FFE7199818998842B1
:100B100007D1FFE7269800680121002204F0F4FFC6
:100B2000FFE726980068022104F0F0FE400348B970
:100B3000FFE726980068022104F0E8FEC0F3846015
:100B4000179018E026980068022104F0DFFE90FA62
:100B5000A0F03C903C9820B9FFE720208DF8F700EA
:100B600005E03C98B0FA80F08DF8F700FFE79DF8BB
:100B7000F7001790FFE71798169025980068400334
:100B800030B9FFE725980068C0F38460159015E040
:100B90002598006890FAA0F03A903A9820B9FFE7BB
:100BA00020208DF8EF0005E03A98B0FA80F08DF83B
:100BB000EF00FFE79DF8EF001590FFE716981599F5
:100BC000884207D1FFE7269800680221002204F03E
:100BD0009BFFFFE726980068032104F097FE40037F
:100BE00048B9FFE726980068032104F08FFEC0F3A0
:100BF0008460149018E026980068032104F086FEB3
:100C000090FAA0F03890389820B9FFE720208DF8AE
:100C1000E70005E03898B0FA80F08DF8E700FFE7CC
:100C20009DF8E7001490FFE714981390259800684A
:100C3000400330B9FFE725980068C0F38460129044
:100C400015E02598006890FAA0F03690369820B903
:100C5000FFE720208DF8DF0005E03698B0FA80F03D
:100C60008DF8DF00FFE79DF8DF001290FFE7139893
:100C70001299884207D1FFE72698006803210022D5
:100C800004F042FFFFE7FFE7FFE72698006804F063
:100C900083FE002840F04481FFE726980068259AEB
:100CA0001168D26804F0B4FE2598C0680021C4F22F
:100CB0007F01884240F03381FFE726980068119059
:100CC00025980068400330B9FFE725980068C0F315
:100CD0008460109015E02598006890FAA0F0349098
:100CE000349820B9FFE720208DF8D70005E034982C
:100CF000B0FA80F08DF8D700FFE79DF8D70010908C
:100D0000FFE71098013000F01F0009287DD8FFE7A9
:100D100025980068400330B9FFE725980068C0F3C4
:100D200084600F9015E02598006890FAA0F032904A
:100D3000329820B9FFE720208DF8CF0005E03298E7
:100D4000B0FA80F08DF8CF00FFE79DF8CF000F904C
:100D5000FFE70F98013000F01F0080060E902598E5
:100D60000068400330B9FFE725980068C0F384604D
:100D70000D9015E02598006890FAA0F0309030981A
:100D800020B9FFE720208DF8C70005E03098B0FAC1
:100D900080F08DF8C700FFE79DF8C7000D90FFE7D2
:100DA0000E980D99013101F01F0201219140084375
:100DB0000C9025980068400330B9FFE7259800683B
:100DC000C0F384600B9015E02598006890FAA0F0BD
:100DD0002E902E9820B9FFE720208DF8BF0005E067
:100DE0002E98B0FA80F08DF8BF00FFE79DF8BF00A5
:100DF0000B90FFE70C980B99013101F01F0101EBFB
:100E0000410140EA01500A9082E0259800684003C1
:100E100030B9FFE725980068C0F38460099015E0B9
:100E20002598006890FAA0F02C902C9820B9FFE744
:100E300020208DF8B70005E02C98B0FA80F08DF8EE
:100E4000B700FFE79DF8B7000990FFE70998013068
:100E500000F01F008006089025980068400330B914
:100E6000FFE725980068C0F38460079015E0259897
:100E7000006890FAA0F02A902A9820B9FFE7202075
:100E80008DF8AF0005E02A98B0FA80F08DF8AF0039
:100E9000FFE79DF8AF000790FFE708980799013139
:100EA00001F01F0201219140084306902598006837
:100EB000400330B9FFE725980068C0F384600590CF
:100EC00015E02598006890FAA0F02890289820B99D
:100ED000FFE720208DF8A70005E02898B0FA80F001
:100EE0008DF8A700FFE79DF8A7000590FFE706999A
:100EF0000598013000F01F0000EB40020020CFF603
:100F0000206000EB0250084340F000700A90FFE7B9
:100F100011980A99259A926804F05EFDFFE7FFE7B1
:100F20002598408848F20801084200F01781FFE741
:100F3000269801680120B1F1A04F04900CD0FFE782
:100F4000269800684FF60071CAF6FF710844B0FA9F
:100F500080F040090490FFE70498C10740F2007058
:100F6000C5F2000000291CBF40F20030C5F20000AD
:100F700004F0BCFC22902598006840F20001CCF2FD
:100F80002131884208D0FFE7259800681021C9F276
:100F9000C00188425AD1FFE79DF88A000006002868
:100FA00054D4FFE726980068B0F1A04F09D0FFE7BE
:100FB0002698006840F20061C5F20001884244D1E1
:100FC000FFE7269801680120B1F1A04F03900CD0F3
:100FD000FFE7269800684FF60071CAF6FF710844D3
:100FE000B0FA80F040090390FFE70398C10740F290
:100FF0000070C5F2000000291CBF40F20030C5F2AD
:101000000000229941F4000104F02AFD40F228007A
:10101000C2F2000000684FEA901042F66351C0F23D
:101020003E51A0FB01104FEA901000EB40014FF041
:10103000180000EB81001F90FFE71F9820B1FFE729
:101040001F9801381F90F8E7FFE786E025980068B1
:101050000021CCF2527188423ED1FFE79DF88B000F
:10106000C007C8BBFFE72698006840F20011C5F230
:101070000001884209D1FFE72698006840F200513C
:10108000C5F20001884226D0FFE7269801680120BA
:10109000B1F1A04F02900CD0FFE7269800684FF600
:1010A0000071CAF6FF710844B0FA80F0400902905E
:1010B000FFE70298C10740F20070C5F20000002966
:1010C0001CBF40F20030C5F20000229941F080714F
:1010D00004F0C6FCFFE73FE0259800680021CCF64D
:1010E0008431884236D1FFE79DF88A004006002807
:1010F00030D4FFE72698006840F20011C5F20001E5
:10110000884226D0FFE7269801680120B1F1A04F60
:1011100001900CD0FFE7269800684FF60071CAF6E0
:10112000FF710844B0FA80F040090190FFE7019890
:10113000C10740F20070C5F2000000291CBF40F258
:101140000030C5F20000229941F4800104F088FCCF
:10115000FFE700E0FFE7FFE7FFE7FFE7FFE726998C
:10116000002081F85800FFE79DF893008DF89F005C
:10117000FFE79DF89F0046B080BD000080B58AB0B3
:101180000890089801680120B1F1A04F04900CD09C
:10119000FFE7089800684FF60071CAF6FF7108442F
:1011A000B0FA80F040090490FFE70498C10740F2CC
:1011B0000070C5F2000000291CBF40F20030C5F2EB
:1011C000000004F09BFB05900898006804F0BEFB4B
:1011D00020B1FFE702208DF82700DCE008980068C6
:1011E000C06800F00040069008980068C06C10F4D9
:1011F000C07F0CD1FFE7069848B9FFE70899C86D92
:1012000040F02000C86501208DF82700C3E0FFE70B
:10121000089890F85800012804D1FFE702208DF8C3
:101220002700B8E00899012081F85800FFE7FFE7A0
:101230000898FFF7C5F88DF81F009DF81F000028DB
:1012400040F09D80FFE70898C06DC005002806D5D6
:10125000FFE70899086E20F00800086603E0089987
:1012600000200866FFE70898C06D40F4805042F205
:10127000010188430899C8650898006840F2001188
:10128000C5F20001884204D1FFE74FF0A04003906F
:1012900015E00898006840F20051C5F2000188424C
:1012A00006D1FFE740F20040C5F20000029003E0E3
:1012B000089800680290FFE702980390FFE7039800
:1012C00008990968884203D0FFE7059830B9FFE71D
:1012D0000899C86D20F48010C865FFE70898016878
:1012E00060200860FFE70899002081F85800FFE7B8
:1012F0000898006840F20011C5F20001884204D14C
:10130000FFE74FF0A040019015E00898006840F218
:101310000051C5F20001884206D1FFE740F20040CB
:10132000C5F20000009003E0089800680090FFE715
:1013300000980190FFE701980899096888420BD04E
:10134000FFE7059840B1FFE70598062804D0FFE7BE
:10135000059807280CD1FFE70898006804F0E6FA22
:1013600028B9FFE70898006804F0F8FAFFE705E0FD
:101370000899C86D40F48010C865FFE706E0FFE7F4
:101380000899002081F85800FFE7FFE79DF81F004B
:101390008DF82700FFE79DF827000AB080BD000008
:1013A00080B5AEB02C902B9100208DF8AB002B981F
:1013B000006808B1FFE7FFE7FFE72C9890F85800B6
:1013C000012804D1FFE702208DF8B7005DE12C99D8
:1013D000012081F85800FFE7FFE7002025902690C4
:1013E0002C980068B0F1A04F06D1FFE740F2001042
:1013F000C5F200000E9015E02C98006840F2004104
:10140000C5F20001884207D1FFE740F20050C5F263
:1014100000000E900C9003E000200E900C90FFE76F
:101420000C98FFE70E9878B9FFE72C99C86D40F04B
:101430002000C865FFE72C99002081F85800FFE7DD
:1014400001208DF8B70020E10E9804F0BDFA0D9050
:101450002C98006804F0B8FA002840F00281FFE7F9
:101460000D98002840F0FD80FFE72C9801680120CE
:10147000B1F1A04F0B900CD0FFE72C9800684FF60D
:101480000071CAF6FF710844B0FA80F040090B9071
:10149000FFE70B98C10740F20070C5F20000002979
:1014A0001CBF40F20030C5F2000029902B98006864
:1014B000002872D0FFE72998806820F460402B99BB
:1014C00049682C9A92F8382041EA42310843299918
:1014D00088602C9801680120B1F1A04F0A900CD0CF
:1014E000FFE72C9800684FF60071CAF6FF710844B8
:1014F000B0FA80F040090A90FFE70A98C10740F26D
:101500000070C5F2000000291CBF40F20030C5F297
:10151000000040F20031C5F20001884210D1FFE71F
:101520004FF0A04004F038FA089040F20010C5F2E5
:10153000000004F031FA01460898084309901BE0C6
:1015400040F20040C5F2000004F026FA069040F296
:101550000050C5F2000004F01FFA01460698084347
:10156000079040F20060C5F2000004F015FA014651
:10157000079808430990FFE7099868B9FFE7299899
:10158000806840F61F7188432B9A11689268114356
:10159000084329998860FFE762E02999886820F468
:1015A000604088602C9801680120B1F1A04F05903F
:1015B0000CD0FFE72C9800684FF60071CAF6FF7157
:1015C0000844B0FA80F040090590FFE70598C1078C
:1015D00040F20070C5F2000000291CBF40F200304C
:1015E000C5F2000040F20031C5F20001884210D17E
:1015F000FFE74FF0A04004F0CFF9039040F2001055
:10160000C5F2000004F0C8F90146039808430490AD
:101610001BE040F20040C5F2000004F0BDF901906B
:1016200040F20050C5F2000004F0B6F901460198FE
:101630000843029040F20060C5F2000004F0ACF9EB
:101640000146029808430490FFE7049838B9FFE781
:101650002999886840F61F7290438860FFE7FFE78A
:1016600008E02C99C86D40F02000C86501208DF875
:10167000AB00FFE7FFE72C99002081F85800FFE757
:101680009DF8AB008DF8B700FFE79DF8B7002EB0CE
:1016900080BD000080B58EB00C9000208DF82F002A
:1016A00007900C9820B9FFE701208DF83700DCE1A6
:1016B0000C98406940B1FFE70C9890F8240001288D
:1016C00001D1FFE7FFE7FFE70C98C06D50B9FFE7D6
:1016D0000C9800F0CFF90C99002008660C9981F85D
:1016E0005800FFE70C98006804F046F928B1FFE7BE
:1016F0000C98006804F0C8F8FFE70C98006804F044
:1017000053F9F0B9FFE70C98006804F0D7F840F2FD
:101710002800C2F200000068800942F66351C0F25E
:101720003E51A0FB01108109022000EB410007900F
:10173000FFE7079820B1FFE7079801380790F8E71F
:10174000FFE70C98006804F02FF970B9FFE70C99D7
:10175000C86D40F01000C8650C99086E40F001009B
:10176000086601208DF82F00FFE70C98006804F050
:1017700023F909900C98C06DC006002800F167811C
:10178000FFE70998002840F06281FFE70C98C06DE0
:1017900040F0020020F480700C99C8650C98006835
:1017A00004F0F2F800287CD1FFE70C9801680120D2
:1017B000B1F1A04F06900CD0FFE70C9800684FF6EF
:1017C0000071CAF6FF710844B0FA80F04009069033
:1017D000FFE70698C10740F20070C5F2000000293B
:1017E0001CBF40F20030C5F2000040F20031C5F2EB
:1017F0000001884210D1FFE74FF0A04004F0C4F888
:10180000049040F20010C5F2000004F0BDF801465B
:101810000498084305901BE040F20040C5F2000028
:1018200004F0B2F8029040F20050C5F2000004F05B
:10183000ABF8014602980843039040F20060C5F2FD
:10184000000004F0A1F80146039808430590FFE763
:10185000059828BBFFE70C9801680120B1F1A04F63
:1018600001900CD0FFE70C9800684FF60071CAF6A3
:10187000FF710844B0FA80F040090190FFE7019839
:10188000C10740F20070C5F2000000291CBF40F201
:101890000030C5F200000C99496804F0D3F8FFE766
:1018A000FFE70C994A7FC86B40EA42308A68CB68F0
:1018B0001843104391F8241040EA01400A900C9814
:1018C00090F8240001280BD1FFE70C98816A0020D2
:1018D000CFF6FE7000EB41410A9808430A90FFE7FB
:1018E0000C98C06A50B1FFE70C99C86A096B00F404
:1018F000787001430A9808430A90FFE70C98006843
:10190000C06844F20701CFF6F07108400A99084315
:101910000C990968C8600C980068006920F0406064
:101920000C9A1168526B104308610C98006804F01F
:1019300005F808900998002868D1FFE70898002862
:1019400064D1FFE70C99087F91F83810800340EAD2
:1019500041000A900C980068C06844F20201884374
:101960000A9908430C990968C8600C980069A0B1ED
:10197000FFE70C980168086940F4803008610C9812
:101980000068D0F8C00043F6FF7188430C9A1168D4
:1019900012691043C1F8C00011E00C980168086991
:1019A00020F4803008610C980068D0F8C00043F63D
:1019B000FF7188430C990968C1F8C000FFE70C98D3
:1019C00090F84000012819D1FFE70C9800680069E1
:1019D00040F2FD7120EA01020C9B1968586CD3F8A3
:1019E00048E0D3F84CC040EA0E0040EA0C001B6D02
:1019F0001843104340F00100086106E00C980168AC
:101A0000086920F001000861FFE7FFE70C984069D2
:101A100001280CD1FFE70C980068006B20F00F0044
:101A20000C9A1168126A013A1043086306E00C9898
:101A30000168086B20F00F000863FFE70C98C06D89
:101A400040F0010020F002000C99C86508E00C99F4
:101A5000C86D40F01000C86501208DF82F00FFE729
:101A60009DF82F008DF83700FFE79DF837000EB086
:101A700080BD000080B5A0B01F9000201E901D907A
:101A80001C901B901A9005A85421FEF735FC1F9856
:101A90000068B0F1A04F44D1FFE74FF4004005903B
:101AA0004FF00050169005A801F028FE18B1FFE78E
:101AB000FEF7C8FDFFE740F2B830C2F2000001684F
:101AC000013101600068012810D1FFE7FFE741F212
:101AD0004C00C4F20200016841F40051016000684A
:101AE00000F4005004900498FFE7FFE7FFE741F29D
:101AF0004C00C4F20200016841F00101016000687D
:101B000000F0010003900398FFE707201A900320DC
:101B10001B9000201C904FF090401AA900F076F81E
:101B20004FE01F98006840F20011C5F200018842A2
:101B300046D1FFE74FF4004005904FF0005016905B
:101B400005A801F0DBFD18B1FFE7FEF77BFDFFE71D
:101B500040F2B830C2F20000016801310160006853
:101B6000012810D1FFE7FFE741F24C00C4F2020068
:101B7000016841F400510160006800F400500290D7
:101B80000298FFE7FFE7FFE741F24C00C4F20200D2
:101B9000016841F004010160006800F00400019058
:101BA0000198FFE720201A9003201B9000201C9032
:101BB00040F60000C4F600001AA900F027F8FFE77D
:101BC000FFE720B080BD000080B584B0039000F036
:101BD000E7F90290039801900198013048B1FFE7BE
:101BE00040F24830C2F200000168019808440190B8
:101BF000FFE7FFE700F0D4F90299401A0199884203
:101C000001D2FFE7F6E704B080BD00008BB00A9078
:101C1000099100200890FFE7099800680899C840DA
:101C2000002800F0A581FFE709980068089A0121C3
:101C30009140084007900798002800F09581FFE741
:101C40000998406800F00300012807D0FFE70998D1
:101C5000406800F0030002282FD1FFE70A9880684F
:101C6000069008984100032000FA01F10698884385
:101C700006900998C0680899490000FA01F1069891
:101C80000843069006980A9988600A98406806906A
:101C90000899012000FA01F10698884306900998F6
:101CA0004068C0F30010089900FA01F10698084353
:101CB000069006980A994860FFE70998406800F086
:101CC0000300032818D0FFE70A98C0680690089818
:101CD0004100032000FA01F1069888430690099814
:101CE00080680899490000FA01F1069808430690B7
:101CF00006980A99C860FFE70998406800F0030059
:101D0000022826D1FFE70A9808996FF0030202EA39
:101D100051010844006A0690089800F0070081000D
:101D20000F2000FA01F1069888430690099800698F
:101D3000089901F00701890000FA01F106980843AB
:101D4000069006980A99089B02EA53021144086219
:101D5000FFE70A980068069008984100032000FAFF
:101D600001F10698884306900998406800F0030046
:101D70000899490000FA01F1069808430690069870
:101D80000A990860099880798007002800F0EB80A4
:101D9000FFE7FFE741F26000C4F20200016841F092
:101DA00001010160006800F0010005900598FFE75F
:101DB000089820F003000821C4F201014058069061
:101DC000089800F0030081000F2000FA01F1069846
:101DD000884306900A98B0F1904F03D1FFE70020A6
:101DE000049042E00A9840F20041C4F600018842A3
:101DF00003D1FFE70120039034E00A9840F6000188
:101E0000C4F60001884203D1FFE70220029026E0D9
:101E10000A9840F60041C4F60001884203D1FFE76A
:101E20000320019018E00A9841F20001C4F6000175
:101E3000884203D1FFE7042000900AE00A9941F2AA
:101E40000042C4F600020620914208BF052000901F
:101E5000FFE700980190FFE701980290FFE70298E2
:101E60000390FFE703980490FFE70498089901F0B6
:101E70000301890000FA01F10698084306900698CC
:101E8000089921F003010822C4F20102885040F2AF
:101E90000840C4F20100006806900799069888433C
:101EA000069009988079C006002805D5FFE70799B4
:101EB000069808430690FFE7069840F20841C4F2EE
:101EC0000101086040F20C40C4F201000068069075
:101ED000079906988843069009988079800600281B
:101EE00005D5FFE70799069808430690FFE706988F
:101EF00040F20C41C4F20101086040F20440C4F217
:101F00000100006806900799069888430690099892
:101F100080798007002805D5FFE7079906980843D0
:101F20000690FFE7069840F20441C4F20101086000
:101F300040F20040C4F2010000680690079906983C
:101F40008843069009988079C00728B1FFE7079970
:101F5000069808430690FFE7069840F20041C4F255
:101F600001010860FFE7FFE708980130089053E699
:101F70000BB0704782B00190ADF802108DF80120CF
:101F80009DF8010028B1FFE7BDF8020001998861C2
:101F900004E0BDF8020001998862FFE702B07047D3
:101FA00042F21C30C2F200000068704740F2483034
:101FB000C2F20000026842F21C31C2F2000108685D
:101FC000104408607047000080B582B000208DF892
:101FD0000700032000F09AF80F2000F00DF820B160
:101FE000FFE701208DF8070002E000F049F8FFE765
:101FF0009DF8070002B080BD80B582B0019000203E
:102000008DF8030040F24830C2F20000006878B357
:10201000FFE740F22800C2F20000006840F24831B9
:10202000C2F200010A684FF47A71B1FBF2F1B0FB21
:10203000F1F002F0CDFCB0B9FFE701980F280DD800
:10204000FFE701994FF0FF30002200F047F80198B8
:1020500040F24C31C2F20001086003E001208DF82B
:102060000300FFE703E001208DF80300FFE703E032
:1020700001208DF80300FFE79DF8030002B080BD4A
:1020800080B582B0FFE741F26000C4F2020001684F
:1020900041F001010160006800F001000190019829
:1020A000FFE7FFE741F25800C4F20200016841F087
:1020B00080510160006800F0805000900098FFE7B8
:1020C00001F012FB02B080BD80B582B08DF8070030
:1020D0009DF9070008F05EFE02B080BD80B586B0B5
:1020E0008DF817000491039208F06CFE02909DF9A0
:1020F0001700019002980499039A03F0CBFF014660
:10210000019808F067FE06B080BD000080B582B07F
:102110000190019808F080FE02B080BD82B001906D
:1021200001980068009001990120C1F8D00201993E
:10213000002081F8C802009AB2F8541041F0010161
:10214000A2F85410009AB2F8541041F00201A2F81B
:10215000541002B07047000080B584B003908DF831
:102160000B109DF80B000146019120B1FFE701988B
:10217000012815D027E00398407A58B1FFE704F012
:10218000DBFB4EF61051CEF20001086820F006008D
:102190000860FFE70398D0F8D80206F029FB12E0A8
:1021A0000398D0F8D80206F009FC0398407A48B1A9
:1021B000FFE74EF61051CEF20001086840F006002D
:1021C0000860FFE7FFE704B080BD000084B0039023
:1021D000ADF80A10ADF808200193BDF80A0000061A
:1021E00000280CD5FFE70398BDF80A1001F007019D
:1021F00001EB810100EBC100103000900AE0039870
:10220000BDF80A1001EB810100EBC10000F5A870D8
:102210000090FFE7BDF8080038B9FFE700990020FB
:10222000087301980099C8800AE00099012008739A
:10223000019800990881BDF8060000994881FFE7E0
:10224000002004B07047000080B582B001908DF886
:102250000310019AD2F8D8029DF8031001EB810314
:1022600002EBC302526A06F07BF802B080BD0000A8
:1022700080B582B001908DF80310019AD2F8D8028F
:102280009DF8031001EB810302EBC302D2F8642135
:1022900006F00CF902B080BD80B584B002908DF8D4
:1022A00007109DF80700000600280FD5FFE70298E9
:1022B0009DF8071001F0070101EB810100EBC1005F
:1022C000103000900099012048700FE002989DF8AE
:1022D000071001F0070101EB810100EBC10000F5DF
:1022E000A8700090009900204870FFE79DF8070053
:1022F00000F0070000990870FFE7029890F890023C
:10230000012804D1FFE702208DF80F0014E00299A4
:10231000012081F89002FFE7FFE70298006800992A
:1023200007F0B0FAFFE70299002081F89002FFE77A
:1023300000208DF80F00FFE79DF80F0004B080BD6E
:1023400080B584B002908DF807109DF8070000F06A
:102350000F0002990979884204D9FFE701208DF81E
:102360000F004DE09DF80700000600280FD5FFE79D
:1023700002989DF8071001F0070101EB810100EBC5
:10238000C100103000900099012048700FE00298C1
:102390009DF8071001F0070101EB810100EBC1007E
:1023A00000F5A8700090009900204870FFE70099A0
:1023B000002088709DF8070000F007000099087061
:1023C000FFE7029890F89002012804D1FFE702206D
:1023D0008DF80F0014E00299012081F89002FFE7C8
:1023E000FFE702980068009907F02CFCFFE70299CC
:1023F000002081F89002FFE700208DF80F00FFE732
:102400009DF80F0004B080BD80B586B005900491A2
:10241000ADF80E20BDF80E004004002876D5FFE789
:1024200005980068B0F850000499097800EBC100E5
:10243000059909680844B0F802046FF39F20ADF8CD
:102440000C0004988069BDF80C10884207D3FFE7A0
:10245000BDF80C2004998869801A886103E004990A
:1024600000208861FFE704988069F8B9FFE7FFE77B
:10247000059800680499097830F821004BF68F71AF
:102480000840ADF80A00BDF80A0080F40050ADF82D
:102490000A00BDF80A0048F280010843059909685E
:1024A000049A127821F82200FFE7FFE7BDF80E003A
:1024B000400600281BD5FFE7FFE7FFE70598006807
:1024C0000499097830F8210048F68F710840ADF87A
:1024D0000800BDF8080048F2C001084305990968E2
:1024E000049A127821F82200FFE7FFE7FFE7BDF822
:1024F0000C0050B1FFE705980068049A51691289F1
:10250000BDF80C3008F0B4FBFFE775E005980068F3
:10251000B0F850000499097800EBC10005990968EA
:102520000844B0F806046FF39F20ADF80C0004983F
:102530008069BDF80C10884207D3FFE7BDF80C2076
:1025400004998869801A886103E0049900208861F1
:10255000FFE704988069F8B9FFE7FFE7059800688E
:102560000499097830F821004BF68F710840ADF8D6
:102570000600BDF8060080F40050ADF80600BDF876
:10258000060048F28001084305990968049A127808
:1025900021F82200FFE7FFE7BDF80E004006002803
:1025A0001BD4FFE7FFE7FFE7059800680499097867
:1025B00030F8210048F68F710840ADF80400BDF8EE
:1025C000040048F2C001084305990968049A12788A
:1025D00021F82200FFE7FFE7FFE7BDF80C0050B14C
:1025E000FFE705980068049A51695289BDF80C30DC
:1025F00008F03EFBFFE7FFE7BDF80C0006B080BD2A
:1026000080B5A6B025902491ADF88E20BDF88E003F
:102610004006002840F1BA81FFE725980068B0F82D
:1026200050002499097800EBC100259909680844F5
:10263000B0F802046FF39F20ADF8860024988069FB
:10264000BDF88610884207D9FFE7BDF88620249997
:102650008869801A886103E0249900208861FFE777
:1026600024988069002840F0B080FFE7FFE72498B5
:10267000407808BBFFE7FFE7259800682090259881
:102680000068B0F8501020980844209020982499B1
:10269000097800EBC10000F202401F90FFE71F998C
:1026A00008886FF39F2008801F99088840F4004035
:1026B0000880FFE7FFE71DE024984078012818D143
:1026C000FFE7FFE7259800681D9025980068B0F89F
:1026D00050101D9808441D901D982499097800EB0E
:1026E000C10000F202401C901C9900200880FFE706
:1026F000FFE7FFE7FFE7FFE7259800681B902498B6
:10270000407808BBFFE7FFE72598006819902598F7
:102710000068B0F850101998084419901998249935
:10272000097800EBC10000F206401890FFE7189905
:1027300008886FF39F2008801899088840F40040AB
:102740000880FFE7FFE718E024984078012813D1BC
:10275000FFE725980068B0F850101B9808441B90BC
:102760001B982499097800EBC10000F206401A90EA
:102770001A9900200880FFE7FFE7FFE725982499D2
:102780000978FFF761FDBDF88E00400400281BD5D5
:10279000FFE7FFE7FFE7259800682499097830F8FC
:1027A000210048F68F710840ADF85A00BDF85A0074
:1027B0004CF28001084325990968249A127821F87F
:1027C0002200FFE7FFE7FFE7DFE0BDF88E004004EF
:1027D00000281BD5FFE7FFE7FFE72598006824994D
:1027E000097830F8210048F68F710840ADF858009C
:1027F000BDF858004CF28001084325990968249AD5
:10280000127821F82200FFE7FFE7FFE7249890F80D
:102810002400012840F0B880FFE7BDF88620249905
:10282000486910444861BDF886202499C86910445D
:10283000C86124980169006A884209D3FFE7249897
:1028400000692290229A2499086A801A086216E088
:102850002498006A40B9FFE7BDF8860022902499C9
:10286000002081F8240009E02499002081F8240048
:102870002499096A229124990862FFE7FFE7FFE79C
:1028800024984078002856D1FFE7FFE72598006894
:10289000159025980068B0F85010159808441590C8
:1028A00015982499097800EBC10000F202401490B9
:1028B000FFE7149908886FF39F20088022983F282B
:1028C00017D3FFE7FFE72298400913909DF888008F
:1028D000C00620B9FFE7139801381390FFE7139A59
:1028E0001499088840EA822040F400400880FFE7FD
:1028F0001EE0229830B9FFE71499088840F40040A0
:10290000088014E0FFE72298400813909DF88800A3
:10291000C00720B1FFE7139801301390FFE7139A27
:102920001499088840EA82200880FFE7FFE7FFE764
:10293000FFE7FFE71DE024984078012818D1FFE762
:10294000FFE725980068129025980068B0F85010AD
:1029500012980844129012982499097800EBC1004B
:1029600000F202401190229811990880FFE7FFE7DA
:10297000FFE7FFE725980068249A51691289BDF89E
:10298000883008F0C7F9FFE7FFE7B6E1259800684F
:10299000B0F850002499097800EBC1002599096826
:1029A0000844B0F806046FF39F20ADF88600249821
:1029B0008069BDF88610884207D3FFE7BDF88620FE
:1029C00024998869801A886103E02499002088612D
:1029D000FFE724988069002840F0B080FFE7FFE718
:1029E0002498407808BBFFE7FFE72598006810901F
:1029F00025980068B0F8501010980844109010986E
:102A00002499097800EBC10000F202400F90FFE723
:102A10000F9908886FF39F2008800F99088840F469
:102A200000400880FFE7FFE71DE024984078012878
:102A300018D1FFE7FFE7259800680D9025980068FA
:102A4000B0F850100D9808440D900D98249909780D
:102A500000EBC10000F202400C900C9900200880AD
:102A6000FFE7FFE7FFE7FFE7FFE7259800680B9028
:102A70002498407808BBFFE7FFE725980068099095
:102A800025980068B0F850100998084409900998F2
:102A90002499097800EBC10000F206400890FFE796
:102AA000089908886FF39F2008800899088840F4E7
:102AB00000400880FFE7FFE718E0249840780128ED
:102AC00013D1FFE725980068B0F850100B98084420
:102AD0000B900B982499097800EBC10000F2064096
:102AE0000A900A9900200880FFE7FFE7FFE7259892
:102AF00024990978FFF7A8FBBDF88E004004002850
:102B00001BD4FFE7FFE7FFE72598006824990978C1
:102B100030F8210048F68F710840ADF81A00BDF872
:102B20001A004CF28001084325990968249A12780A
:102B300021F82200FFE7FFE7FFE7DDE0BDF88E00A8
:102B4000400400281BD4FFE7FFE7FFE72598006853
:102B50002499097830F8210048F68F710840ADF8C3
:102B60001800BDF818004CF2800108432599096847
:102B7000249A127821F82200FFE7FFE7FFE7249864
:102B800090F82400012840F0B680FFE7BDF88620C9
:102B90002499486910444861BDF886202499C86981
:102BA0001044C86124980169006A884209D3FFE78C
:102BB000249800692290229A2499086A801A08624F
:102BC00016E02498006A40B9FFE7BDF8860022901D
:102BD0002499002081F8240009E02498006A2290BA
:102BE000249900200862249981F82400FFE7FFE778
:102BF000FFE725980068059024984078002856D172
:102C0000FFE7FFE725980068039025980068B0F873
:102C1000501003980844039003982499097800EB16
:102C2000C10000F206400290FFE7029908886FF3A6
:102C30009F20088022983F2817D3FFE7FFE72298BC
:102C4000400901909DF88800C00620B9FFE701986F
:102C500001380190FFE7019A0299088840EA822032
:102C600040F400400880FFE71EE0229830B9FFE7FB
:102C70000299088840F40040088014E0FFE7229899
:102C8000400801909DF88800C00720B1FFE7019837
:102C900001300190FFE7019A0299088840EA8220FA
:102CA0000880FFE7FFE7FFE7FFE7FFE718E024986A
:102CB0004078012813D1FFE725980068B0F850103C
:102CC00005980844059005982499097800EBC100FF
:102CD00000F206400490229804990880FFE7FFE77D
:102CE000FFE725980068249A51695289BDF8883019
:102CF00008F010F8FFE7FFE7FFE7FFE72598006817
:102D00002499097830F8210048F6BF710840ADF8E1
:102D10000200BDF8020080F01000ADF80200BDF81E
:102D2000020080F02000ADF80200BDF8020048F279
:102D30008001084325990968249A127821F8220015
:102D4000FFE7002026B080BD82B001908DF803100F
:102D500001989DF8031001F0070101EB810100EBE0
:102D6000C100D0F86C0102B07047000080B586B099
:102D700004908DF80F10ADF80C208DF80B3000206A
:102D80008DF80A009DF80F00000600280FD5FFE718
:102D900004989DF80F1001F0070101EB810100EB91
:102DA000C100103001900199012048700FE0049893
:102DB0009DF80F1001F0070101EB810100EBC1004C
:102DC00000F5A8700190019900204870FFE79DF878
:102DD0000F0000F0070001990870BDF80C00019980
:102DE00008619DF80B000199C8709DF80B0002283E
:102DF00004D1FFE7019900200871FFE7FFE704987D
:102E000090F89002012804D1FFE702208DF8170006
:102E100015E00499012081F89002FFE7FFE704988C
:102E20000068019906F0E2F9FFE70499002081F8B3
:102E30009002FFE79DF80A008DF81700FFE79DF864
:102E4000170006B080BD000080B586B005908DF8F3
:102E500013100392029305989DF8131001F00701D7
:102E600001EB810100EBC10000F5A870019003980F
:102E700001994861029801998861019900200090A8
:102E8000C861019948709DF8130000F0070001998E
:102E9000087005980068019906F0BCFF009806B01C
:102EA00080BD000080B584B002908DF807109DF8B9
:102EB000070000F0070002990979884204D9FFE76A
:102EC00001208DF80F004BE09DF807000006002858
:102ED0000FD5FFE702989DF8071001F0070101EBFD
:102EE000810100EBC1001030009000990120487072
:102EF0000DE002989DF8071001EB810100EBC10085
:102F000000F5A8700090009900204870FFE7009934
:102F1000012088709DF8070000F0070000990870F4
:102F2000FFE7029890F89002012804D1FFE7022001
:102F30008DF80F0014E00299012081F89002FFE75C
:102F4000FFE702980068009906F020FFFFE702996A
:102F5000002081F89002FFE700208DF80F00FFE7C6
:102F60009DF80F0004B080BD80B586B005908DF847
:102F700013100392029305989DF8131001F00701B6
:102F800001EB810100EBC100103001900398019921
:102F900048610298019988610199012081F8240013
:102FA0000299019A1162019A00210091D16101995F
:102FB00048709DF8130000F007000199087005980B
:102FC0000068019906F026FF009806B080BD000059
:102FD00080B582B001900198006807F03FFE009034
:102FE0009DF801000006002804D5FFE7019803F0D2
:102FF00087F8DFE09DF801004007002810D5FFE7C3
:1030000001980168B1F8440020F48060A1F8440000
:10301000019800F0D3F90198002100F00FFAC9E0FF
:103020009DF801004006002809D5FFE701980168D6
:10303000B1F8440020F48040A1F84400BAE09DF8C3
:1030400001008006002809D5FFE701980168B1F862
:10305000440020F40050A1F84400ABE09DF80100CA
:10306000C00600282AD5FFE701980168B1F84000A2
:1030700020F00400A1F8400001980168B1F8400078
:1030800020F00800A1F84000019890F8C80201283B
:1030900008D1FFE70198002180F8C8120198FFF7D6
:1030A0005BF8FFE7019800F0A5F901980168B1F815
:1030B000440020F48050A1F844007BE09DF801001A
:1030C000000700281CD5FFE701980168B1F840000F
:1030D00040F00800A1F8400001980168B1F84400F0
:1030E00020F40060A1F8440001980168B1F84000A4
:1030F00040F00400A1F84000019800F003FA59E004
:103100009DF800000006002834D5FFE7019801680B
:10311000B1F8440020F08000A1F84400019890F834
:10312000C80210BBFFE701980168B1F8400040F009
:103130000400A1F8400001980168B1F8400040F097
:103140000800A1F840000198012180F8C8120198F8
:103150000068B0F8540000F0F0008008019AC2F84E
:10316000CC020198FEF7F8FF03E0019800F0CAF9DD
:10317000FFE71FE09DF80100800700280CD5FFE75E
:1031800001980168B1F8440020F40070A1F84400EF
:10319000019800F049F90DE09DF80100C00748B121
:1031A000FFE701980168B1F8440020F48070A1F8AD
:1031B0004400FFE702B080BD80B584B00290029861
:1031C00020B9FFE701208DF80F00BBE0029890F8CE
:1031D000910240B9FFE70299002081F8900202981D
:1031E00000F0B4F8FFE70299032081F891020298F9
:1031F000006806F017FD00208DF80700FFE79DF836
:10320000070002990979884239DAFFE702989DF8A8
:10321000071001EB810100EBC101012048749DF80A
:103220000700029900EB800201EBC20108740298CA
:103230009DF8071001EB810100EBC1010020C8746B
:1032400002999DF8072002EB820201EBC20108629D
:1032500002999DF8072002EB820201EBC20148624D
:1032600002999DF8072002EB820201EBC2018862FD
:10327000FFE79DF8070001308DF80700BFE7002049
:103280008DF80700FFE79DF8070002990979884249
:103290003EDAFFE702989DF8071001EB810100EB91
:1032A000C101002081F851019DF80710029A01EB3D
:1032B000810302EBC30282F8501102999DF80720A6
:1032C00002EB820201EBC20181F8530102999DF8E1
:1032D000072002EB820201EBC201C1F860010299F2
:1032E0009DF8072002EB820201EBC201C1F86401E4
:1032F00002999DF8072002EB820201EBC201C1F89E
:103300006801FFE79DF8070001308DF80700BAE774
:10331000029A10685168926806F070FC02990020C9
:1033200008730299012081F891020298807A01289D
:1033300004D1FFE70298FEF7F1FEFFE700208DF8C9
:103340000F00FFE79DF80F0004B080BD80B598B076
:10335000179002A85421FCF7CFFF1798006845F694
:103360000041C4F20001884226D1FFE74FF400502B
:1033700002900020119002A800F0C0F918B1FFE7F8
:10338000FDF760F9FFE7FFE741F25800C4F20200E1
:10339000016841F400010160006800F40000019040
:1033A0000198FFE71420009000221146FEF796FED8
:1033B0000098FEF789FEFFE718B080BD80B582B0A7
:1033C000019001208DF8030001984079022803D074
:1033D000FFE7FDF737F9FFE70198D0F8D8029DF82D
:1033E000031005F03FFA0198D0F8D80205F0B0F9C3
:1033F00002B080BD80B582B001900198407A58B18A
:10340000FFE74EF61051CEF20001086820F00600EA
:10341000086003F091FAFFE70198D0F8D80205F0B0
:10342000E7F902B080BD000080B582B0019001983C
:10343000D0F8D80205F0EEF902B080BD80B584B0B6
:1034400002908DF80710FFE7029890F8900201288B
:1034500004D1FFE702208DF80F0019E00299012046
:1034600081F89002FFE7FFE79DF8070002990873D3
:10347000029800689DF8071007F03CFCFFE70299EE
:10348000002081F89002FFE700208DF80F00FFE791
:103490009DF80F0004B080BD80B582B00190019905
:1034A000D1F8D80201F5267105F006FA02B080BD08
:1034B00080B582B00090FFE7009890F89002012854
:1034C00004D1FFE702208DF8070017E000990120E2
:1034D00081F89002FFE7FFE70098006807F0A6FB7D
:1034E0000098006806F07EFBFFE70099002081F855
:1034F0009002FFE700208DF80700FFE79DF8070026
:1035000002B080BD80B582B001900198D0F8D80299
:1035100005F054FA0198407A48B1FFE74EF6105191
:10352000CEF20001086840F006000860FFE702B034
:1035300080BD000085B00390039800285ED1FFE7AE
:1035400047F20000C4F20000006800F4C060B0F56B
:10355000806F49D1FFE747F28001C4F2000108689B
:1035600020F48070086047F20002C4F20002116883
:10357000012060F34A21116040F22801C2F20001EB
:103580000968322251434DF68362C4F21B32A1FB1B
:10359000022100EB91400290FFE747F21400C4F2D1
:1035A00000000168002049050029019006D5FFE7C9
:1035B0000298002818BF01200190FFE70198C0077A
:1035C00020B1FFE7029801380290E6E747F21400C5
:1035D000C4F2000000684005002804D5FFE703207E
:1035E0008DF813007CE008E047F28001C4F200018E
:1035F000086820F480700860FFE76DE00398B0F57C
:10360000007F5ED1FFE747F20000C4F200000068CF
:1036100000F4C060B0F5806F49D1FFE747F2800148
:10362000C4F20001086840F48070086047F20002AC
:10363000C4F200021168012060F34A21116040F2D7
:103640002801C2F200010968322251434DF683621B
:10365000C4F21B32A1FB022100EB91400290FFE774
:1036600047F21400C4F20000016800204905002957
:10367000009006D5FFE70298002818BF01200090AF
:10368000FFE70098C00720B1FFE7029801380290D9
:10369000E6E747F21400C4F2000000684005002885
:1036A00004D5FFE703208DF8130019E008E047F286
:1036B0008001C4F20001086840F480700860FFE7F0
:1036C00009E047F20001C4F200010868022262F337
:1036D0004A200860FFE7FFE700208DF81300FFE7AE
:1036E0009DF8130005B0704747F20801C4F20001CD
:1036F000086840F4804008607047000080B586B0DC
:10370000059000208DF80B008DF80A000598807850
:103710000007002840F1B580FFE700208DF8090080
:1037200041F25800C4F202000068C000002813D41F
:10373000FFE7FFE741F25800C4F20200016841F0E0
:1037400080510160006800F0805001900198FFE70F
:1037500001208DF80900FFE747F20001C4F20001E3
:10376000086840F480700860FEF71AFC0390FFE7D9
:1037700047F20000C4F200000068C00500280CD425
:10378000FFE7FEF70DFC0399401A032804D3FFE777
:1037900003208DF80B0000E0EAE79DF80B000028FD
:1037A0005BD1FFE741F29000C4F20200006800F430
:1037B000407004900498C8B1FFE704980599096D1A
:1037C000884213D0FFE741F29001C4F20201086879
:1037D00020F440700490086840F480300860086865
:1037E00020F48030086004980860FFE79DF810001E
:1037F000C007E0B1FFE7FEF7D3FB0390FFE741F21C
:103800009000C4F202000068800700280ED4FFE791
:10381000FEF7C6FB0399401A41F28931884204D36E
:10382000FFE703208DF80B0000E0E8E7FFE79DF8D5
:103830000B0060B9FFE741F29001C4F20201086891
:1038400020F44070059A126D1043086004E09DF862
:103850000B008DF80A00FFE704E09DF80B008DF8DF
:103860000A00FFE79DF80900012809D1FFE741F2AE
:103870005801C4F20201086820F080500860FFE798
:10388000FFE705980078C00760B1FFE741F28801C3
:10389000C4F20201086820F00300059A5268104340
:1038A0000860FFE705980078800700280CD5FFE73F
:1038B00041F28801C4F20201086820F00C00059A68
:1038C000926810430860FFE70598007840070028D9
:1038D0000CD5FFE741F28801C4F20201086820F02C
:1038E0003000059AD26810430860FFE70598007819
:1038F000000700280CD5FFE741F28801C4F202015D
:10390000086820F0C000059A126910430860FFE7BC
:1039100005980078C00600280CD5FFE741F2880121
:10392000C4F20201086820F44070059A52691043FD
:103930000860FFE705980078800600280CD5FFE7AF
:1039400041F28801C4F20201086820F44060059A3F
:10395000926910430860FFE7059800784006002848
:103960000CD5FFE741F28801C4F20201086820F497
:103970004050059AD26910430860FFE70598007827
:10398000000600280CD5FFE741F28801C4F20201CD
:10399000086820F44040059A126A10430860FFE767
:1039A00005984078C00760B1FFE741F28801C4F292
:1039B0000201086820F44030059A526A10430860FA
:1039C000FFE705988078800700280CD5FFE741F2D3
:1039D0009C01C4F20201086820F00300059A926A73
:1039E00010430860FFE705984078800700280CD551
:1039F000FFE741F28801C4F20201086820F4402088
:103A0000059AD26A10430860FFE70598407840079E
:103A100000281BD5FFE741F28801C4F202010868C3
:103A200020F44010059A126B104308600598006B53
:103A3000B0F5801F09D1FFE741F20C01C4F2020189
:103A4000086840F480100860FFE7FFE705984078B9
:103A5000000700281BD5FFE741F28801C4F20201EC
:103A6000086820F44000059A526B104308600598DE
:103A7000406BB0F5800F09D1FFE741F20C01C4F2B1
:103A80000201086840F480100860FFE7FFE705982E
:103A90004078C00600281BD5FFE741F28801C4F238
:103AA0000201086820F04070059A926B104308608C
:103AB0000598806BB0F1807F09D1FFE741F20C01DE
:103AC000C4F20201086840F480100860FFE7FFE7D5
:103AD00005984078800600281BD5FFE741F2880151
:103AE000C4F20201086820F04060059AD26B1043CE
:103AF00008600598C06BB0F1006F09D1FFE741F293
:103B00000C01C4F20201086840F480100860FFE76D
:103B1000FFE705984078400600281BD5FFE741F2F3
:103B20008801C4F20201086820F04060059A126C16
:103B3000104308600598006CB0F1006F09D1FFE7F1
:103B400041F20C01C4F20201086840F480100860E0
:103B5000FFE7FFE705984078000600281BD5FFE740
:103B600041F28801C4F20201086820F04050059A31
:103B7000526C104308600598406CB0F1805F09D129
:103B8000FFE741F20C01C4F20201086840F4803002
:103B90000860FFE7FFE705988078C007D8B1FFE726
:103BA00041F28801C4F20201086820F04040059A01
:103BB000926C104308600598806CB0F1804F09D179
:103BC000FFE741F20C01C4F20201086840F48030C2
:103BD0000860FFE7FFE705988078400700281BD5BD
:103BE000FFE741F29C01C4F20201086820F4401092
:103BF000059AD26C104308600598C06CB0F5001FA0
:103C000009D1FFE741F20C01C4F20201086840F457
:103C100080100860FFE7FFE79DF80A0006B080BD4E
:103C200080B586B00490039100200090049820B9DC
:103C3000FFE701208DF8170081E1039842F20001AF
:103C4000C4F20201096801F00F01884216D9FFE7AA
:103C500042F20000C4F20200016821F00F01039A51
:103C600011430160006800F00F000399884204D0FE
:103C7000FFE701208DF8170061E1FFE70498007865
:103C8000C007002800F0A380FFE7049840680328DD
:103C900039D1FFE741F20000C4F202000068800160
:103CA000002804D4FFE701208DF8170047E102F057
:103CB000A9FD019001984BF20141C0F2C441884234
:103CC00020D3FFE741F20800C4F20200006810F0C0
:103CD000F00F0AD0FFE7049800788007002810D57D
:103CE000FFE70498806860B9FFE741F20801C4F279
:103CF00002010868082262F3071008608020009023
:103D0000FFE7FFE738E00498406802280ED1FFE79C
:103D100041F20000C4F2020000688003002804D4CD
:103D2000FFE701208DF8170009E10DE041F20000E6
:103D3000C4F2020000684005002804D4FFE7012017
:103D40008DF81700FBE0FFE700F0FEF80190019806
:103D50004BF20141C0F2C44188420CD3FFE741F26B
:103D60000801C4F202010868082262F30710086023
:103D700080200090FFE7FFE741F20801C4F2020152
:103D8000086820F00300049A526810430860FEF7A8
:103D900007F90290FFE741F20800C4F20200006850
:103DA00000F00C0004994968B0EB810F0ED0FFE7DA
:103DB000FEF7F6F80299401A41F28931884204D39D
:103DC000FFE703208DF81700B9E0E4E7FFE7049868
:103DD0000078800700282CD5FFE70498007840077A
:103DE000002809D5FFE741F20801C4F20201086882
:103DF00040F4E0600860FFE70498007800070028BE
:103E00000BD5FFE741F20801C4F20201086840F453
:103E1000E06020F460500860FFE741F20801C4F25E
:103E20000201086820F0F000049A926810430860CC
:103E30000DE00098802809D1FFE741F20801C4F2A3
:103E40000201086820F0F0000860FFE7FFE7039830
:103E500042F20001C4F20201096801F00F01884238
:103E600028D2FFE742F20001C4F20201086820F004
:103E70000F00039A10430860FEF792F80290FFE7E4
:103E800042F20000C4F20200006800F00F00039943
:103E900088420ED0FFE7FEF783F80299401A41F2FC
:103EA0008931884204D3FFE703208DF8170046E0EC
:103EB000E6E7FFE704980078400700280CD5FFE705
:103EC00041F20801C4F20201086820F4E060049A9B
:103ED000D26810430860FFE70498007800070028C4
:103EE0000DD5FFE741F20801C4F20201086820F491
:103EF0006050049A126940EAC2000860FFE700F0CF
:103F000023F841F20801C4F202010968C9B20A09A2
:103F10004CF6F061C0F60001895C01F01F01C84059
:103F200040F22801C2F20001086040F24C30C2F2B7
:103F300000000068FEF760F88DF81700FFE79DF8B5
:103F4000170006B080BD000086B041F20800C4F240
:103F50000200006800F00C00042806D1FFE742F2DE
:103F60000040C0F2F400019069E041F20800C4F2A0
:103F70000200006800F00C00082806D1FFE741F2BB
:103F80000020C0F27A00019058E041F20800C4F22B
:103F90000200006800F00C000C284BD1FFE741F252
:103FA0000C00C4F20200016801F0030104910068F2
:103FB000C1B2012000EB1110029004980090022879
:103FC00015D0FFE70098032812D1FFE7029941F2CC
:103FD0000020C0F27A00B0FBF1F041F20C01C4F213
:103FE00002010968C1F306214843059011E0FFE78B
:103FF000029942F20040C0F2F400B0FBF1F041F24D
:104000000C01C4F202010968C1F30621484305907E
:10401000FFE741F20C00C4F20200006800F0C0614A
:10402000022000EB1160039005980399B0FBF1F0BA
:10403000019002E000200190FFE7FFE7FFE7019811
:1040400006B07047B0B588B00690069820B9FFE773
:1040500001208DF81F00CCE306980078C0070028E7
:1040600000F09B80FFE741F20800C4F20200006804
:1040700000F00C00049041F20C00C4F20200006851
:1040800000F00300039004980C2804D1FFE7039884
:10409000032804D0FFE70498082812D1FFE741F273
:1040A0000000C4F2020000688003002808D5FFE782
:1040B0000698406820B9FFE701208DF81F0098E3BB
:1040C0006AE0FFE706984068B0F5803F09D1FFE756
:1040D00041F20001C4F20201086840F48030086037
:1040E00020E006984068B0F5A02F0DD1FFE741F21F
:1040F0000001C4F20201086840F4802008600868EA
:1041000040F4803008600CE041F20001C4F202018A
:10411000086820F480300860086820F48020086077
:10412000FFE7FFE7FFE706984068D0B1FFE7FDF73C
:1041300037FF0590FFE741F20000C4F2020000687B
:10414000800300280CD4FFE7FDF72AFF0599401AE9
:10415000652804D3FFE703208DF81F0049E3EAE751
:1041600019E0FDF71DFF0590FFE741F20000C4F2E2
:1041700002000068800300280CD5FFE7FDF710FF60
:104180000599401A652804D3FFE703208DF81F0026
:104190002FE3EAE7FFE7FFE7FFE7069800788007ED
:1041A000002840F19F80FFE741F20800C4F20200BE
:1041B000006800F00C00049041F20C00C4F2020010
:1041C000006800F00300039004980C2804D1FFE776
:1041D0000398022804D0FFE7049804282CD1FFE7B5
:1041E00041F20000C4F2020000684005002808D532
:1041F000FFE70698C06820B9FFE701208DF81F008F
:10420000F7E241F20401C4F20201086820F0FE4026
:10421000069A126940EA0260086040F24C30C2F22D
:1042200000000068FDF7E8FE20B1FFE701208DF8EF
:104230001F00DEE2FFE754E00698C06870B3FFE7B6
:1042400041F20001C4F20201086840F48070086085
:10425000FDF7A6FE0590FFE741F20000C4F2020060
:104260000068400500280CD4FFE7FDF799FE05998A
:10427000401A032804D3FFE703208DF81F00B8E29B
:10428000EAE741F20401C4F20201086820F0FE40AE
:10429000069A126940EA0260086021E041F20001DA
:1042A000C4F20201086820F480700860FDF778FE0F
:1042B0000590FFE741F20000C4F2020000684005EB
:1042C00000280CD5FFE7FDF76BFE0599401A03287F
:1042D00004D3FFE703208DF81F008AE2EAE7FFE737
:1042E000FFE7FFE7069800780007002849D5FFE7B9
:1042F0000698406910B3FFE741F29401C4F202014D
:10430000086840F001000860FDF74AFE0590FFE7ED
:1043100041F29400C4F202000068800700280CD427
:10432000FFE7FDF73DFE0599401A032804D3FFE798
:1043300003208DF81F005CE2EAE721E041F29401DE
:10434000C4F20201086820F001000860FDF728FEB1
:104350000590FFE741F29400C4F202000068800774
:1043600000280CD5FFE7FDF71BFE0599401A03282E
:1043700004D3FFE703208DF81F003AE2EAE7FFE7E6
:10438000FFE7069800784007002840F1C680FFE765
:1043900000208DF80B0041F25800C4F202000068C2
:1043A000C000002813D4FFE7FFE741F25800C4F231
:1043B0000200016841F080510160006800F0805007
:1043C00001900198FFE701208DF80B00FFE747F20D
:1043D0000000C4F200000068C005002822D4FFE7F6
:1043E00047F20001C4F20001086840F480700860E0
:1043F000FDF7D6FD0590FFE747F20000C4F200008C
:104400000068C00500280CD4FFE7FDF7C9FD059939
:10441000401A032804D3FFE703208DF81F00E8E1CA
:10442000EAE7FFE7FFE706988068012809D1FFE780
:1044300041F29001C4F20201086840F001000860F6
:104440001FE00698806805280DD1FFE741F2900132
:10445000C4F20201086840F004000860086840F0F7
:10446000010008600CE041F29001C4F2020108680A
:1044700020F001000860086820F004000860FFE7F1
:10448000FFE7FFE706988068E0B1FFE7FDF788FDEA
:104490000590FFE741F29000C4F202000068800737
:1044A00000280ED4FFE7FDF77BFD0599401A41F285
:1044B0008931884204D3FFE703208DF81F0098E17B
:1044C000E8E71BE0FDF76CFD0590FFE741F2900087
:1044D000C4F202000068800700280ED5FFE7FDF750
:1044E0005FFD0599401A41F28931884204D3FFE704
:1044F00003208DF81F007CE1E8E7FFE79DF80B0043
:10450000012809D1FFE741F25801C4F2020108680D
:1045100020F080500860FFE7FFE7069800788006EB
:10452000002849D5FFE70698806910B3FFE741F2FC
:104530009801C4F20201086840F001000860FDF72C
:104540002FFD0590FFE741F29800C4F202000068D9
:10455000800700280CD4FFE7FDF722FD0599401ADB
:10456000032804D3FFE703208DF81F0041E1EAE7A9
:1045700021E041F29801C4F20201086820F0010034
:104580000860FDF70DFD0590FFE741F29800C4F2C9
:1045900002000068800700280CD5FFE7FDF700FD4A
:1045A0000599401A032804D3FFE703208DF81F0064
:1045B0001FE1EAE7FFE7FFE70698C069002800F07F
:1045C0001481FFE741F20800C4F20200006800F025
:1045D0000C000C2800F0B080FFE70698C0690228A4
:1045E0007CD1FFE741F20001C4F20201086820F02B
:1045F00080700860FDF7D4FC0590FFE741F20000F1
:10460000C4F202000068800100280CD5FFE7FDF726
:10461000C7FC0599401A032804D3FFE703208DF84F
:104620001F00E6E0EAE741F20C01C4F2020108686B
:1046300048F20C02C0F29F121040DDF818C0DCF8FE
:104640002020DCF82450DCF828E0DCF82C306FF077
:104650000F0404EB0514224342EA0E22DCF830403A
:1046600040F2000ECFF6E07E0EEA045EAEF5001ECC
:1046700042EA0E02DCF834E04FF07E4C0CEA0E6C9D
:104680000CF17E4C42EA0C0242EAC362104308601D
:1046900041F20002C4F20202106840F08070106023
:1046A000086840F080700860FDF77AFC0590FFE72D
:1046B00041F20000C4F202000068800100280CD41E
:1046C000FFE7FDF76DFC0599401A032804D3FFE7C7
:1046D00003208DF81F008CE0EAE72CE041F2000196
:1046E000C4F20201086820F080700860FDF758FCF1
:1046F0000590FFE741F20000C4F20200006880016B
:1047000000280CD5FFE7FDF74BFC0599401A03285C
:1047100004D3FFE703208DF81F006AE0EAE741F2C7
:104720000C01C4F2020108684FF6FC72CFF6EE628B
:1047300010400860FFE757E00698C069012804D1DF
:10474000FFE701208DF81F0053E041F20C00C4F296
:10475000020000680390039800F003000699096ABC
:1047600088423BD1FFE7039800F0F00006994A6ABF
:104770006FF00F0101EB021188422FD1FFE7039880
:1047800000F4FE400699896AB0EB012F26D1FFE7BD
:10479000039800F078400699C96AB0EBC16F1DD14B
:1047A000FFE7039800F4C00006990A6B0021CFF6DA
:1047B000E07101EA0251A1F5001188420ED1FFE734
:1047C000039800F0C06006994A6B4FF07E4101EA01
:1047D000026101F17E41884204D0FFE701208DF89B
:1047E0001F0006E0FFE7FFE7FFE700208DF81F004E
:1047F000FFE79DF81F0008B0B0BD000080B584B091
:104800000290029820B9FFE701208DF80F0097E091
:104810000298406A60B9FFE702984068B0F5827F6D
:1048200001D1FFE703E002990020C861FFE705E03E
:1048300002990020086102994861FFE7029900206F
:104840008862029890F85D0040B9FFE70299002065
:1048500081F85C00029800F077F8FFE702990220E7
:1048600081F85D0002980168086820F04000086047
:104870000298C068B0F5E06F03D9FFE7002001900F
:1048800003E04FF480500190FFE70298C068B0F554
:10489000706F0AD0FFE70298C068B0F5E06F04D0EF
:1048A000FFE7029900208862FFE7029A00921168F0
:1048B0005068D2F808C0136900F482700CF4044CFC
:1048C000604403F002031844536903F001031844E1
:1048D000936903F400731844D36903F03803184450
:1048E000136A03F080031844926A02F400521043E2
:1048F0000860029B588B00F004001968DA68D3F84E
:1049000024C05B6B0CF0100C604403F008031844E7
:1049100002F470621044019A02F48052104448601C
:1049200002980168C86920F40060C86102990020FB
:104930000866029A012182F85D108DF80F00FFE7EA
:104940009DF80F0004B080BD80B588B007900020AE
:10495000069005900490039002900798006843F237
:104960000001C4F2010188422FD1FFE7FFE741F2C5
:104970006000C4F20200016841F4805101600068E7
:1049800000F4805001900198FFE7FFE741F24C00EE
:10499000C4F20200016841F002010160006800F009
:1049A000020000900098FFE7382002900220039058
:1049B0000020049005900520069040F20040C4F6C7
:1049C000000002A9FDF722F9FFE708B080BD000052
:1049D00080B582B00190019801F080FF02B080BDE7
:1049E00081B0009001B0704781B0009001B0704775
:1049F00081B0009001B0704784B002900191002016
:104A00000090FFE7029890F83C00012804D1FFE7EE
:104A100002208DF80F008CE00299012081F83C0003
:104A2000FFE7FFE7009820F0FF000199C9680843FD
:104A30000090009820F44070019989680843009024
:104A4000009820F48060019949680843009000981C
:104A500020F400600199096808430090009820F450
:104A600080500199096908430090009820F4005093
:104A70000199496908430090009820F48040019909
:104A8000096B08430090009820F47020019989690F
:104A900040EA01400090009820F080500199C969D7
:104AA000084300900298006842F60041C4F20101F8
:104AB000884212D0FFE70298006843F20041C4F236
:104AC0000101884209D0FFE70298006845F2000121
:104AD000C4F2010188421ED1FFE7009820F4700063
:104AE0000199896A40EA01500090009820F0807096
:104AF0000199096A08430090009820F0007001991C
:104B0000496A08430090009820F000500199C96A52
:104B100008430090FFE70098029909684864FFE79E
:104B20000299002081F83C00FFE700208DF80F007B
:104B3000FFE79DF80F0004B07047000081B00090BF
:104B400001B0704781B0009001B0704781B0009013
:104B500001B0704785B003900291FFE7039890F889
:104B60003C00012804D1FFE702208DF81300A7E0E4
:104B70000399012081F83C00FFE7FFE70399022039
:104B800081F83D0003980068406801900398006830
:104B9000806800900398006842F60041C4F2010169
:104BA000884212D0FFE70398006843F20041C4F244
:104BB0000101884209D0FFE70398006845F200012F
:104BC000C4F2010188420AD1FFE7019820F4700085
:104BD000019002984168019808430190FFE701980D
:104BE0004FF68F71CFF6FF5108400190029801688F
:104BF0000198084301900198039909684860039857
:104C0000006842F60041C4F2010188423CD0FFE74F
:104C100003980068B0F1804F36D0FFE70398006832
:104C200040F20041C4F2000188422DD0FFE7039812
:104C3000006840F60001C4F20001884224D0FFE77A
:104C40000398006840F60041C4F2000188421BD07E
:104C5000FFE70398006843F20041C4F20101884273
:104C600012D0FFE70398006844F20001C4F201018A
:104C7000884209D0FFE70398006845F20001C4F2BA
:104C8000010188420ED1FFE7009820F080000090DB
:104C90000298816800980843009000980399096879
:104CA0008860FFE70399012081F83D00FFE7039941
:104CB000002081F83C00FFE700208DF81300FFE79B
:104CC0009DF8130005B0704780B58AB00890079131
:104CD000079828B9FFE7089890F8440005901CE071
:104CE0000798042805D1FFE7089890F8450004903C
:104CF00010E00798082805D1FFE7089890F84600CB
:104D0000039004E0089890F847000390FFE70398A9
:104D10000490FFE704980590FFE70598012804D068
:104D2000FFE701208DF827009BE0079828B9FFE7EF
:104D30000899022081F844001EE00798042806D153
:104D4000FFE70899022081F84500029012E00798D9
:104D5000082806D1FFE70899022081F84600019053
:104D600005E00899022081F847000190FFE70198CB
:104D70000290FFE70298FFE708980068079904226D
:104D800001F03CFF08980168486C40F4004048641A
:104D90000898006842F60041C4F2010188423CD004
:104DA000FFE708980068B0F1804F36D0FFE7089819
:104DB000006840F20041C4F2000188422DD0FFE7B4
:104DC0000898006840F60001C4F20001884224D02F
:104DD000FFE70898006840F60041C4F200018842ED
:104DE0001BD0FFE70898006843F20041C4F20101BC
:104DF000884212D0FFE70898006844F20001C4F22C
:104E00000101884209D0FFE70898006845F20001D7
:104E1000C4F20101884219D1FFE708980068806850
:104E20000721C0F2010108400690069806280CD020
:104E3000FFE70698B0F5803F07D0FFE708980168C4
:104E4000086840F001000860FFE706E00898016884
:104E5000086840F001000860FFE700208DF8270097
:104E6000FFE79DF827000AB080BD000081B00090E8
:104E700001B0704781B0009001B0704780B584B038
:104E8000039003980068C068029003980068006966
:104E900001909DF804008007002824D5FFE79DF8C5
:104EA0000800800700281DD5FFE7039801686FF010
:104EB000020008610399012008770398006880695F
:104EC000800720B1FFE70398FFF7D4FF06E00398BF
:104ED00000F0BCF9039800F011FBFFE703990020F4
:104EE0000877FFE7FFE79DF804004007002825D575
:104EF000FFE79DF80800400700281ED5FFE703984C
:104F000001686FF004000861039902200877039894
:104F10000068806910F4407F04D0FFE70398FFF732
:104F2000A9FF06E0039800F091F9039800F0E6FA73
:104F3000FFE7039900200877FFE7FFE79DF80400EB
:104F40000007002824D5FFE79DF808000007002887
:104F50001DD5FFE7039801686FF008000861039909
:104F60000420087703980068C069800720B1FFE734
:104F70000398FFF77FFF06E0039800F067F90398B6
:104F800000F0BCFAFFE7039900200877FFE7FFE78E
:104F90009DF80400C006002825D5FFE79DF808000D
:104FA000C00600281ED5FFE7039801686FF01000C7
:104FB000086103990820087703980068C06910F415
:104FC000407F04D0FFE70398FFF754FF06E0039803
:104FD00000F03CF9039800F091FAFFE703990020F4
:104FE0000877FFE7FFE79DF80400C00778B1FFE707
:104FF0009DF80800C00748B1FFE7039801686FF00B
:1050000001000861039800F0C9FBFFE7FFE7019882
:1050100000F08000802806D0FFE79DF8050080069C
:10502000002810D5FFE79DF808000006002809D5E4
:10503000FFE7039801686FF4025008610398FFF7D7
:10504000D3FCFFE7FFE79DF80500C00780B1FFE74D
:105050009DF808000006002809D5FFE703980168BD
:105060006FF4807008610398FFF7BAFCFFE7FFE771
:105070009DF804004006002810D5FFE79DF80800C1
:105080004006002809D5FFE7039801686FF040004B
:105090000861039800F0B4FBFFE7FFE79DF8040008
:1050A0008006002810D5FFE79DF80800800600283C
:1050B00009D5FFE7039801686FF0200008610398A5
:1050C000FFF796FCFFE7FFE79DF80600C006002803
:1050D00010D5FFE79DF80A00C006002809D5FFE7B4
:1050E000039801686FF4801008610398FFF72AFDA8
:1050F000FFE7FFE79DF806008006002810D5FFE7D0
:105100009DF80A008006002809D5FFE7039801688A
:105110006FF4001008610398FFF710FDFFE7FFE749
:105120009DF806004006002810D5FFE79DF80A000C
:105130004006002809D5FFE7039801686FF4800056
:1051400008610398FFF702FDFFE7FFE79DF80600FF
:105150000006002810D5FFE79DF80A000006002889
:1051600009D5FFE7039801686FF400000861039810
:10517000FFF77CFEFFE7FFE704B080BD80B58EB08F
:105180000D9000200C900B900A90099008900D98BB
:10519000006842F60041C4F20101884254D1FFE7A1
:1051A000FFE741F24C00C4F20200016841F0020145
:1051B0000160006800F0020007900798FFE7FFE732
:1051C00041F24C00C4F20200016841F001010160AB
:1051D000006800F0010006900698FFE74FF4C04019
:1051E0000890022002900990002003900A900B90F2
:1051F000062004900C9040F20040C4F6000001909C
:1052000008A90591FCF702FD0198029B039A0599F4
:105210004FF4004CCDF820C009930A920B9204225F
:105220000C92FCF7F3FC029B039A049805994FF447
:10523000E06CCDF820C009930A920B920C904FF0CD
:105240009040FCF7E3FCFFE70EB080BD81B000901A
:1052500001B0704780B586B004900391029200209F
:105260008DF80700FFE7049890F83C00012804D16E
:10527000FFE702208DF81700C0E00499012081F8B3
:105280003C00FFE7FFE702980090142800F2A78097
:105290000099DFE801F00BA4A4A424A4A4A43EA4D4
:1052A000A4A457A4A4A471A4A4A48A000498006888
:1052B000039901F0BFFC04980168886940F0080078
:1052C000886104980168886920F004008861039867
:1052D00002690498016888691043886183E0049832
:1052E0000068039901F060FD04980168886940F442
:1052F0000060886104980168886920F48060886192
:105300000398026904980168886940EA022088616C
:1053100069E004980068039901F00EFE04980168A2
:10532000C86940F00800C86104980168C86920F0A5
:105330000400C8610398026904980168C8691043B1
:10534000C86150E004980068039901F0BDFE04981C
:105350000168C86940F40060C86104980168C869C0
:1053600020F48060C8610398026904980168C869E4
:1053700040EA0220C86136E004980068039901F011
:105380006BFF04980168086D40F0080008650498F8
:105390000168086D20F0040008650398026904980C
:1053A0000168086D104308651DE0049800680399C2
:1053B00001F0C4FF04980168086D40F400600865BE
:1053C00004980168086D20F48060086503980269FC
:1053D00004980168086D40EA0220086503E0012096
:1053E0008DF80700FFE7FFE70499002081F83C00F3
:1053F000FFE79DF807008DF81700FFE79DF81700FD
:1054000006B080BD80B582B00090009820B9FFE75B
:1054100001208DF8070045E0009890F83D0040B964
:10542000FFE70099002081F83C00009800F03EF86A
:10543000FFE70099022081F83D00009951F8040B24
:1054400001F0CCFA0099012081F84800FFE70099AB
:10545000012081F83E00009981F83F00009981F811
:105460004000009981F84100009981F842000099BC
:1054700081F84300FFE7FFE70099012081F844002D
:10548000009981F84500009981F84600009981F85B
:105490004700FFE70099012081F83D0000208DF8CA
:1054A0000700FFE79DF8070002B080BD80B584B01B
:1054B00003900398006842F60041C4F2010188425B
:1054C00019D1FFE7FFE741F26000C4F20200016872
:1054D00041F400610160006800F4006002900298ED
:1054E000FFE71920019000221146FCF7F7FD019813
:1054F000FCF7EAFDFFE704B080BD000081B000903A
:1055000001B0704780B590B00E900D910D9828B9FC
:10551000FFE70E9890F83E000B9034E00D980428B9
:1055200005D1FFE70E9890F83F000A9028E00D980B
:10553000082805D1FFE70E9890F8400009901CE07C
:105540000D980C2805D1FFE70E9890F841000890BF
:1055500010E00D98102805D1FFE70E9890F8420052
:10556000079004E00E9890F843000790FFE7079833
:105570000890FFE708980990FFE709980A90FFE76D
:105580000A980B90FFE70B98012804D0FFE7012051
:105590008DF83F00FEE00D9828B9FFE70E99022034
:1055A00081F83E0038E00D98042806D1FFE70E99F7
:1055B000022081F83F0006902CE00D98082806D1C3
:1055C000FFE70E99022081F8400005901FE00D983A
:1055D0000C2806D1FFE70E99022081F841000490C3
:1055E00012E00D98102806D1FFE70E99022081F8ED
:1055F0004200039005E00E99022081F843000390D9
:10560000FFE703980490FFE704980590FFE70598EB
:105610000690FFE70698FFE70E9800680D990122B3
:10562000019201F0CFFA01980E99096842F6004202
:10563000C4F201029142029038D0FFE70E9801684F
:10564000012043F20042C4F20102914202902DD0A7
:10565000FFE70E980168012044F20002C4F2010243
:105660009142029022D0FFE70E980168012044F297
:105670000042C4F201029142029017D0FFE70E9857
:105680000168012044F60002C4F201029142029036
:105690000CD0FFE70E9800684BF20001CBF6FE71CC
:1056A0000844B0FA80F040090290FFE70298C00772
:1056B00038B1FFE70E980168486C40F40040486438
:1056C000FFE70E98006842F60041C4F201018842EB
:1056D0003CD0FFE70E980068B0F1804F36D0FFE76E
:1056E0000E98006840F20041C4F2000188422DD0BB
:1056F000FFE70E98006840F60001C4F200018842FE
:1057000024D0FFE70E98006840F60041C4F2000183
:1057100088421BD0FFE70E98006843F20041C4F2B4
:105720000101884212D0FFE70E98006844F20001A0
:10573000C4F20101884209D0FFE70E98006845F2E3
:105740000001C4F20101884219D1FFE70E980068F8
:1057500080680721C0F2010108400C900C980628CF
:105760000CD0FFE70C98B0F5803F07D0FFE70E980C
:105770000168086840F001000860FFE706E00E9845
:105780000168086840F001000860FFE700208DF81C
:105790003F00FFE79DF83F0010B080BD80B586B0A8
:1057A00005900598006842F60041C4F20101884264
:1057B00020D1FFE741F6CC60C2F2000001686FF033
:1057C0000100086140F24820C2F200000190406FE1
:1057D000804702A805F042FC0198C06F804740F264
:1057E000CC20C2F20000806F9FED030ADFED030AB8
:1057F0008047FFE706B080BDCDCC4C3E00000000E6
:1058000081B0009001B07047FFE7FEE783B00290DF
:1058100001918DF8032000208DF802008DF8020020
:10582000FFE79DF802009DF80310884229DAFFE7A0
:105830000298000F092809D8FFE70298000F3030BE
:1058400001999DF8022001F8120009E00299372021
:1058500000EB117001999DF8022001F81200FFE79A
:1058600002980001029001989DF8021000EB41019E
:1058700000204870FFE79DF8020001308DF802001B
:10588000CFE703B07047000081B0009000998868AE
:105890004FF6C072C5F6FF721040886001B07047C5
:1058A00081B00090009880684FF6C071C7F6FF7114
:1058B000084001300099886001B0704781B00090C5
:1058C0000098806840F080504FF6C071C7F6FF71B5
:1058D00008400099886001B07047000081B00090D6
:1058E0000098806800F0E07001B0704781B00090CF
:1058F0000098806800F0E07001B0704781B00090BF
:105900000098806800F01F0001B0704783B00290DB
:1059100001910298019900EB81006030009000989D
:10592000006800F0F84003B07047000081B00090BC
:105930000098C06800F0007001B0704781B000901E
:1059400000988068C0F3C00001B0704781B000903B
:1059500000988068C0F3C00001B0704781B000902B
:10596000009880684FF6C071C7F6FF710840083094
:105970000099886001B0704781B0009000988068FD
:10598000C0F3407001B0704781B00090009880680B
:1059900000F0010001B0704781B00090009880686D
:1059A00000F0010001B0704781B00090009880685D
:1059B000C0F3007001B0704781B00090009880681B
:1059C000C0F3800001B0704781B0009000988068FB
:1059D000C0F3800001B0704784B00390029101923F
:1059E0000398029901F0007100EBD150143000903F
:1059F000009800680299C1F304520721914088433E
:105A00000199914008430099086004B07047000074
:105A100083B00290019100920298D0F8B0000199F1
:105A20006FF3DF418843009A02F018034FF6FF72CC
:105A3000C0F20702DA40114008440299C1F8B000F0
:105A400003B0704782B0019000910198806820F403
:105A50007C10009908430199886002B070470000EB
:105A600082B0019000910198806820F0E070009968
:105A700008430199886002B07047000085B0049027
:105A80000391029201930498039900EB8100603026
:105A90000090009800684FF20001C0F2FF31014011
:105AA000029800F0F840019A1043084340F000408B
:105AB0000099086005B0704784B00390029101928C
:105AC0000398029900EB8100603000900098006814
:105AD00020F00070019908430099086004B07047F5
