:020000040800F2
:1000000060270020B9020008453800088D34000838
:1000100041380008C1030008195900080000000019
:100020000000000000000000000000004D38000843
:100030005104000800000000493800085138000849
:10004000D3020008D3020008D3020008D30200083C
:10005000D3020008D3020008D3020008D30200082C
:10006000D3020008D3020008D3020008D30200081C
:10007000D3020008D3020008D3020008D30200080C
:10008000D3020008D3020008D3020008D3020008FC
:10009000D5570008D3020008D3020008D302000895
:1000A000D3020008D3020008D3020008D3020008DC
:1000B000D3020008D3020008D3020008D3020008CC
:1000C000D3020008D3020008D3020008D3020008BC
:1000D000D3020008D3020008D3020008D3020008AC
:1000E000D3020008D3020008D3020008D30200089C
:1000F000D3020008D3020008D3020008D30200088C
:10010000D3020008D3020008D3020008D30200087B
:10011000D3020008D3020008D3020008D30200086B
:10012000D3020008D3020008D3020008D30200085B
:10013000D3020008D3020008D3020008D30200084B
:10014000D3020008D3020008D3020008D30200083B
:10015000D3020008D3020008D3020008D30200082B
:10016000D3020008D3020008D3020008D30200081B
:10017000D3020008D3020008D3020008D30200080B
:10018000D3020008D3020008D3020008D3020008FB
:10019000D302000800000000D3020008D3020008C8
:1001A000D3020008D3020008D3020008D3020008DB
:1001B000D3020008D3020008D3020008D3020008CB
:1001C000D3020008D3020008D3020008D3020008BB
:1001D000D3020008D302000800F002F800F05CF837
:1001E0000AA090E8000C82448344AAF10107DA4592
:1001F00001D100F051F8AFF2090EBAE80F0013F088
:10020000010F18BFFB1A43F001031847B06200004A
:10021000D06200000A444FF0000C10F8013B13F0CC
:10022000070408BF10F8014B1D1108BF10F8015B4F
:10023000641E05D010F8016B641E01F8016BF9D142
:1002400013F0080F1EBF10F8014BAD1C0C1B09D199
:100250006D1E58BF01F801CBFAD505E014F8016B0B
:1002600001F8016B6D1EF9D59142D6D3704700009D
:100270000023002400250026103A28BF78C1FBD8AF
:10028000520728BF30C148BF0B6070471FB506F04A
:10029000CAF81FBD10B510BD00F05CF81146FFF79D
:1002A000F5FF05F041FB00F07AF803B4FFF7F2FF29
:1002B00003BC00F07DF8000009488047094800476A
:1002C000FEE7FEE7FEE7FEE7FEE7FEE7FEE7FEE706
:1002D000FEE7FEE704480549054A064B7047000063
:1002E000C5380008D90100086021002060270020DF
:1002F00060230020602300204FF0000200B5134669
:1003000094469646203922BFA0E80C50A0E80C5035
:10031000B1F12001BFF4F7AF090728BFA0E80C50E6
:1003200048BF0CC05DF804EB890028BF40F8042BDF
:1003300008BF704748BF20F8022B11F0804F18BF4C
:1003400000F8012B704770477047704700487047AE
:10035000080200207546FFF7F9FFAE460500694622
:10036000534620F00700854618B020B5FFF7B2FFCE
:10037000BDE820404FF000064FF000074FF00008A6
:100380004FF0000BAC46ACE8C009ACE8C009ACE8E3
:10039000C009ACE8C00921F007018D46704710B5CF
:1003A0000446AFF300802046BDE81040FFF77DBF54
:1003B00001491820ABBEFEE726000200704700008E
:1003C000FEE70000002070470020704710B541F2A2
:1003D0009464C2F2000440F69461C2F20001204627
:1003E000002203F057FD40F29461C2F20001204662
:1003F00003F046FD002010BD10B541F29464C2F236
:1004000000040146204603F03BFD204603F064FC57
:10041000002010BD0020704710B541F29462C2F276
:100420000002D2F8BC22D2F81432002B1CBF0120EB
:1004300010BD41F29464C2F200040A46014620460F
:1004400003F028FD2046BDE8104003F0A7BD0000E2
:1004500070470000EFF3108072B600BFFEE70000A7
:100460002DE9F04181B00022009290F85820012A35
:1004700006D14FF0020C604601B0BDE8F08100BF2C
:100480004269012380F8583012B10D6A012D19D14B
:100490004A68092A3FD10A688B6A4FF4785606EAFF
:1004A000524223B1CE6A03F07C0333431A430368FC
:1004B00044F20005DE6CC0F210452E401643DE64A7
:1004C000426628E0866E1EB1436E00220AE000BF3D
:1004D0008B6A6A1E23B1CE6A03F07C0333431A434E
:1004E00000232E46D1E90045013E05F01F05C4F367
:1004F000846404FA05F542EA050242EA0302C0E90F
:10050000192608D1036844F20005DE6CC0F21045DC
:100510002E403243DA64D0F80080D8F80820120761
:1005200015D4D8F80C2091F8256091F8265022F4C3
:100530004012002E4FEA455602D0324305E000BF7C
:1005400091F8245042EA05523243C8F80C20D8F8FA
:100550000820D8F8086002F0040206F00806921994
:1005600016D18A6AC2B1CA6AB2B191F82520012AAD
:100570001CD1C26D4FF0010C42F02002C26591F80F
:100580003060D8F81020012E1ED022F0020223E0A5
:100590004FF0000CEBE000BF91F82560D8F80C207C
:1005A000012E05D142F0007204E000BFD8F80C2003
:1005B00022F000724FF0000CC8F80C2091F8306067
:1005C000D8F81020012EE0D1D1E90D6522F4FF7298
:1005D00032432A4342F00202C8F810200C68042675
:1005E00008F1140206EAD45EC4F340668D6852F83E
:1005F0002660C4F304540727A740B5F1004F26EA4C
:10060000070605D142F80E60126842F0004207E08A
:1006100005FA04F4344342F80E40126822F0004216
:10062000C8F81420D1E90426D8F80C50042A71D156
:10063000D8F86020D8F860200C68C2F3846694FA79
:10064000A4F52246B5FA85F5C4F3846E6FF3DF4254
:100650002C46002A08BF7446A6424FF6FF74C0F22B
:1006600007040ED1D8F8602022F00042C8F86020BC
:100670000D6805EA0402C5F3846E95FAA5F5B5FA8E
:1006800085F5D8F86460D8F86460002AC6F38466FB
:100690002F4608BF7746BE420ED1D8F8642022F01C
:1006A0000042C8F864200D6805EA0402C5F3846EB0
:1006B00095FAA5F5B5FA85F5D8F86860D8F86860B8
:1006C000002AC6F384662F4608BF7746BE420ED185
:1006D000D8F8682022F00042C8F868200D6805EAC2
:1006E000040295FAA5F4C5F3846EB4FA84F5D8F83B
:1006F0006C40D8F86C40002AC4F3846408BF754687
:10070000AC4234D1D8F86C2022F00042C8F86C20FA
:100710002DE000BF062707EA950706FA07FE0E68D8
:1007200008F1600555F822404FF20007C0F2FF378C
:1007300006F0F8463C404EEA0607274347F00047DC
:1007400045F822700A698F6955F8226026F0807694
:10075000374345F822700A690F7F55F82260012F50
:1007600026F0007608BF06F1007645F82260D8F83A
:100770000820D2074ED10E68CF684FF6FF73D8F825
:10078000B050324607F01804C0F207036FF3DF429F
:10079000E340954333402B430025C4F27F05AF422D
:1007A000C8F8B03036D18AB196FAA6F2B2FA82F21F
:1007B000013202F01E03092B02F01F020FD80123A1
:1007C000934002EB420243EA025214E0012202EBA0
:1007D000966202F01E030A2B02F01F02EFD30123E0
:1007E0000027934002EB4202CFF6206707EB02524C
:1007F0001A4342F00072C2F3406708EB87078B6828
:100800007E69C2F3045207259540AE4303FA02F213
:1008100032437A6109680022C8F20802114200F0EE
:100820008F8040F20034C5F20004A4F5007204F594
:100830008065904504BF40F20035C5F200052A46A8
:10084000B8F1A04F04BF40F20032C5F20002966832
:100850000023CCF22133994206F0E07E04D010232D
:10086000C9F2C00399423FD1310269D440F200611C
:10087000C5F20001884502D0B8F1A04F60D191685F
:1008800021F0E07141EA0E0141F40001916040F273
:100890002801C2F20001096842F663528909C0F2D8
:1008A0003E52A1FB0212910901EB4101182202EB19
:1008B000810100910099002942D000BF00990139BF
:1008C00000910099E1B30099013900910099B9B301
:1008D000009901390091009991B300990139009173
:1008E00000990029EAD12BE00023CCF252739942FF
:1008F00008BF16F080731BD00022CCF684329142E0
:1009000008BF16F480011BD1B8F1A04F06D040F209
:100910000011C5F20001884512D02C46A16821F0D3
:10092000E07141EA0E0141F48001A16008E000BFDE
:10093000916821F0E07141EA0E0141F0807191600F
:10094000002180F85810604601B0BDE8F081000039
:1009500070B582B090F85820012A03D102210846D0
:1009600002B070BD002201920092026840F2080CB1
:10097000C5F2000CB2F1A04F0CF1F80508D040F21E
:100980000043C5F200039A423ED10CF59F6300E09C
:100990002B469B68946823435B0735D44FF4E06390
:1009A000D1F800E0AA4208BF4FF44073B2F1A04F63
:1009B00008BF4FF440735CF80340BEF1000F24F40D
:1009C00060442DD04D6890F8386042F4807245EA5A
:1009D00046352C4340F20015C5F20005AA424CF8FA
:1009E000034037D1DCF80020DCF800412243D20775
:1009F0003AD15CF8032040F61F748968A243114382
:100A000041EA0E0122E000BFC16D41F02001C16545
:100A10000121002280F85820084602B070BD00BFB6
:100A200042F4807140F20012C5F2000291424CF88B
:100A300003401BD1DCF80010DCF800211143C9078A
:100A40001ED15CF8031040F61F7291434CF803105E
:100A50000021DEE7DCF80044DCF80055DCF8002675
:100A60002C432243D207C4D00021D2E7DCF8002473
:100A7000DCF80065DCF8001632431143C907E0D00A
:100A80000021C6E7B0B582B00446002001904CB109
:100A9000E06D58B121688868800012D48868C00071
:100AA00019D54CE0012002B0B0BD00BF204600F0D7
:100AB00027F90020206684F85800216888688000A3
:100AC000ECD588684FF6C072C5F6FF72104088609A
:100AD0008868C00033D44FF6C0728868C5F6FF72CC
:100AE00002F18052104000F18050886040F22800EE
:100AF000C2F20000006842F663528009C0F23E5222
:100B0000A0FB02029009022202EB40000190019832
:100B1000A8B100BF019801380190019878B10198FF
:100B200001380190019850B1019801380190019865
:100B300028B101980138019001980028EAD188680D
:100B4000C00009D4E06D40F01000E065206E40F078
:100B500001002066012000E000208A68E36D02F0B9
:100B6000040203F01003D218E26D40F0818022F4F9
:100B700081720232E2658A68D20729D140F20013FD
:100B800041F48072C5F2000340F2080C9A42C5F2AB
:100B9000000C73D1DCF80030DCF800211A43D207D6
:100BA00016D10CF1F8024FF4E063D4F804E091425E
:100BB00008BF4FF44073B1F1A04F08BF4FF440732A
:100BC0005CF8032022F47C1242EA0E024CF8032067
:100BD000627FE36B43EA4232D4E902C31A4394F8DA
:100BE000243042EA0C02012B42EA034207D1D4F836
:100BF00028C00023CFF6FE7303EB4C431A43E36A8D
:100C000033B1D4F830C003F4787343EA0C031A43C9
:100C1000D1F80CC044F20703CFF6F07303EA0C03DB
:100C20001A43CA600A69636B22F040621A430A6180
:100C30008A68120753D494F83820237F520042EA7E
:100C4000833CCB6844F2020223EA020242EA0C022D
:100C5000CA6022690B69FAB143F480330B61D1F8A1
:100C6000C0C043F6FF732CEA03031A431CE000BF25
:100C700042F010010120E16502B0B0BDDCF800E4F3
:100C8000DCF80025DCF8003642EA0E021A43D207EF
:100C90003FF487AF9CE700BF23F480320A61D1F8AC
:100CA000C02043F6FF739A43C1F8C02094F8403047
:100CB0000A69012B10D140F2FD7322EA030CD4E93A
:100CC0001132D4E913E543EA0C031A4342EA0E0257
:100CD0002A4342F0010201E022F001020A61626946
:100CE0000B6B012A23F00F0202D1236A013B1A4346
:100CF0000A63E16D012262F30101E16502B0B0BD5A
:100D000010B59CB004460020CDE91A0002A80430BA
:100D10005021FFF7F1FA2068B0F1A04F02D01CB0CB
:100D200010BD00BF4FF4004002904FF000501390F0
:100D300002A801F027FA002818BFFFF78BFB41F249
:100D40004C00C4F20200016841F4005101600168E6
:100D500001F4005101910199016841F00101016024
:100D6000006817A900F00100019001980720179072
:100D700003201890002019904FF0904000F002F8E6
:100D80001CB010BD2DE9F04F82B00D68002D00F0B1
:100D9000CB8041F2004400F13847C4F6000406223B
:100DA0004FEAB726A04208BF0522052E38BF4FEAFA
:100DB000B722002401274FF0000E0026009209E020
:100DC0000D68013635FA06F20EF1040E04F1020444
:100DD00000F0AA8007FA06FB15EA0B08F0D0D1F85C
:100DE00004A003220AF0030CACF10105A240012D7E
:100DF0006FEA020910D88268CD6802EA0902A540AC
:100E00002A4382604268CAF3001522EA0B02B54009
:100E10002A43426006E000BFBCF1030F02D14FF04D
:100E2000030C21E0C2688D6802EA0902A5402A434A
:100E3000BCF1020FC26017D16FF0030202EA560242
:100E400002440EF01C030F25D2F820C005FA03FA65
:100E50000D692CEA0A0C05FA03F343EA0C0313624A
:100E6000D1F804A00AF0030C02680CFA04F302EAB9
:100E700009021A431AF4403F0260A1D041F2600314
:100E8000C4F202031A6840F2004942F001021A60FB
:100E90001A68C4F2010902F001020192019A26F0D7
:100EA00003024FF6084A4A44CFF6FF7A52F80AC0C6
:100EB0000EF00C050F23009FAB402CEA030307FA4A
:100EC00005F52B4342F80A30D9F808C04B684CEAC4
:100ED0000805DA0258BF2CEA080540F20C4CC9F8A4
:100EE0000850C4F2010CDCF800209F0242EA080519
:100EF00058BF22EA0805CCF80050D9F804209D0319
:100F000042EA080758BF22EA0807C9F80470D9F86E
:100F10000020DB0342EA080758BF22EA0807C9F8A5
:100F2000007001274CE700BF02B0BDE8F08F000061
:100F30001823002A08BF2823C150704742F25C10D2
:100F4000C2F200000068704740F2000042F25C11FB
:100F5000C2F20000C2F2000140680A681044086052
:100F60007047000080B5032000F08CF80F2000F0DF
:100F700009F800281CBF012080BD00F029F80020DE
:100F800080BD000070B540F20006C2F20006716834
:100F9000E1B1044640F22800C2F200004FF47A7238
:100FA0000068B2FBF1F1B0FBF1F001F0DDFE0F2CB7
:100FB0004FF0010508D838B94FF0FF302146002224
:100FC000002500F033F83460284670BD012070BD64
:100FD00082B041F25800C4F20200816841F0010180
:100FE0008160816801F0010101910199016841F07E
:100FF00080510160006800F080500090009802B0BD
:1010000001F0B6B8002848BF7047C1B200F01F0019
:10101000012202FA00F04EF20012CEF2000242EA81
:10102000D10121F0030108607047000010B54EF6B1
:101030000C5CCEF2000CDCF80030C3F3022E8EF014
:101040000704042C28BF0424BEF103034FF0FF3E25
:101050000EFA04F438BF0023A14399400EFA03F3BB
:101060009A43114300F00F0200F160430901043A72
:1010700003F564436244002848BF02F10C03197071
:1010800010BD00004EF60C51CEF200010A684FF67A
:10109000FF031A4060F30A2242F0806040F0FD70C6
:1010A0000860704701220168C0F8D022002280F851
:1010B000C822B1F8540040F00100A1F85400B1F882
:1010C000540040F002020020A1F8542070470000B4
:1010D00010B50129044613D011BB607A48B102F063
:1010E000B9FB4EF61050CEF20000016821F0060167
:1010F0000160D4F8D802BDE8104003F0ABB900BFDE
:10110000D4F8D80203F02CFA607A002808BF10BD8A
:101110004EF61050CEF20000016841F00601016069
:1011200010BD000080B501F0070C0CEB8C0C00EB3F
:10113000CC0C01EB810E0CF1100C00EBCE0009067B
:1011400058BF00F5A87C0020002A19BFCCF8083051
:101150000121ACF8063000218CF80C1080BD000095
:1011600001EB8102D0F8D83200EBC200426A184687
:1011700003F030B801EB8102D0F8D83200EBC200A6
:10118000D0F86421184603F079B8000010B5044681
:1011900048B2B0F1FF3F01F0070000EB800104EB23
:1011A000C10205DD02F5A871002382F8513103E088
:1011B000012302F11001537494F890220870012A5F
:1011C00004BF022010BD2068012284F8902203F0A1
:1011D000DBFD002084F8900210BD0000B0B504468D
:1011E000007901F00F02824284BF0120B0BD48B2F5
:1011F000B0F1FF3F01F0070000EB800104EBC102FA
:1012000006DD02F5A871002382F8513104E000BF29
:10121000012302F11001537494F890220025012A51
:101220008D70087004BF0220B0BD2068012284F8D0
:10123000902203F03DFE284684F89052B0BD000095
:1012400001F0070101EB810100EBC100D0F86C0156
:101250007047000070B5064648B2B0F1FF3F01F09C
:10126000070000EB800107DD06EBC10404F5A8715F
:10127000002584F8515106E006EBC10C01240CF165
:1012800010018CF8114008700A61022BCB7004BF6A
:101290000020087196F89002012804BF022070BD5A
:1012A0003068012286F8902203F048FC002086F87E
:1012B000900270BD10B501F0070C0CEB8C0100EB37
:1012C000C10E00680EF5A8710024CEF86421CEF896
:1012D0006831CEF86C418EF851418EF850C103F060
:1012E0003FFE002010BD000010B50279044601F059
:1012F0000700904284BF012010BD4AB2B2F1FF3F07
:101300000ADD01EB810104EBC10202F5A8710023A3
:1013100082F8513108E000BF00EB800104EBC1020C
:10132000012302F11001537494F890320122012B31
:101330008A70087004BF022010BD206884F89022D3
:1013400003F0F4FD002084F8900210BD80B501F098
:10135000070C0CEB8C0100EBC10101F810CF006809
:101360004FF0010C01F1140781F824C04FF0000E7A
:1013700087E80C400B6281F801C003F0F1FD00200A
:1013800080BD00002DE9F04F81B00446006804F0F4
:1013900027FA010420D4410500F1FA83410400F149
:1013A0000984810400F11E84C10400F12584010533
:1013B00000F14884010600F15B84810500F1688436
:1013C000C00540F1F3832068B0F8441021F4807127
:1013D000A0F84410EAE300BF2068B0F94410B1F16E
:1013E000FF3F00F3E38304F5267140F60F7B009185
:1013F00023E000BFB0F8501094F85021014401EBF5
:10140000C201B1F80634B4F8562100996FF39F2356
:10141000C4F86C3104F0E8F92068018801EA0B0196
:1014200080310180204600F0DDFD00BF2068B0F96A
:101430004410B1F1FF3F00F3B983B0F8442012F03B
:101440000F090DD030F929104FEA490AB1F1FF3FD9
:101450001FFA81F82EDD5FEA0860E7D560E100BF82
:101460000188D2066AD401EA0B0101F5004101802E
:10147000B0F85010227C084400EBC200B0F802041F
:10148000616A6FF39F20E062084460622046002199
:10149000FFF766FE207B0028C8D0A06A0028C5D1CF
:1014A000207B216840F08000C0B2A1F84C000020F1
:1014B0002073BBE730F81A1040F60F7C01EA0B01ED
:1014C000803120F81A1009EB890104EBC10B9BF85D
:1014D0005C110BF5A876002900F082809BF853116F
:1014E000022940F08F80B0F850703178DBF8683115
:1014F00007440BF5B4725FEA484507EBC10700F1FA
:101500009B80B7F8067400256FF39F27DB1B38BF5D
:101510002B46136040F2A6805FEA486200F1B28079
:1015200030F8212048F2C00302EA0C021A4320F8E6
:101530002120002F40F0A780CCE000BF0A053FF536
:1015400059AF09B2B1F1FF3F3FF770AF018801EA2F
:101550000B0180310180B0F8501094F85021014403
:1015600001EBC201B1F806346FF39F23C4F86C316C
:1015700093B1D4F8641179B1B4F8562104F034F978
:10158000D4F86401D4F86C110844C4F8640120460E
:101590000021FFF7EFFD206801880A053FF546AFFF
:1015A00001F44051B1F5405F3FF440AFB0F8501046
:1015B00000F20642535A6FF39F235352D4F860311E
:1015C0003F2BC0F00782DE068E5A4FEA53174FF0CA
:1015D000FF3508BF05EB531746EA87237DE200BFBE
:1015E000B0F850103278014401EBC201B1F8067432
:1015F0006FF39F27002F6DD0DBF86411BBF85621E5
:1016000063E000BF327848F2C00330F8221001EAEC
:101610000C01194320F8221030F82230B0F8501095
:1016200000EBC2025B04114416D4B1F806746FF3E8
:101630009F2747BB4EE000BFB7F8027400256FF349
:101640009F27DB1B38BF2B46136021D95FEA486216
:101650002DD4B7BB3EE000BFB1F802746FF39F27F3
:101660007FBB37E030F8212043F60F731A404CF26D
:101670008003A3F500535A4020F821205FEA486216
:101680007FF54EAF37B3DBF86411BBF85A211CE08D
:1016900030F8212043F60F731A404CF28003A3F573
:1016A00000535A4020F821205FEA4862D1D530F833
:1016B000212048F2C00302EA0C021A4320F821203C
:1016C00047B1DBF86411BBF858213B4604F08CF8B5
:1016D00001E000BF0027DBF86C11DBE95902394457
:1016E0003844CBF86C11CBF864011AB1DBF8600117
:1016F000B8420BD931782046FFF73CFD40F60F7B0E
:101700005FEA08607FF592AE0AE000BF20683146CC
:1017100003F026FC40F60F7B5FEA08607FF586AE9B
:10172000206809EB890130F81A2004EBC10502EAB0
:101730000B0101F5004120F81A10E97C05F11009B0
:10174000012923D1297F00294FF00001A96200F06F
:101750003B815FEA486100F18780697C012900F0E4
:101760001D81002940F03081B0F8501099F8002018
:10177000084400EBC200B0F806146FF39F21A0F8F4
:101780000614B0F8061441F400410FE15FEAC851B5
:101790001ED4B0F8502099F80010024402EBC102A8
:1017A000B2F80224AB6A6FF39F229B1A4FF0000736
:1017B00038BF3B46AB6240F20981696AEB6A11446B
:1017C00069629918E962494603F0CAFB2EE600BF38
:1017D000B0F8507099F800102A4652F8286F5FEA66
:1017E000486300EBC10C59D40CF2064E3EF807706A
:1017F00000236FF39F27F61B38BF1E46166040F28A
:1018000085805FEA484208D430F821204CF28003FA
:1018100002EA0B021A4320F821202A4612F8341F4C
:10182000012940F0A4812B4653F8308F53E904C1BD
:1018300053F8046C39443E44E04543F80C1C43F82B
:10184000046C80F00381B8F1000F00F05D81002787
:10185000C4461F6017706A7C012A40F0FE80B0F811
:1018600050202EF802C075E1697C012900F0A280A9
:10187000002940F0A980B0F8501099F800200844E1
:1018800000EBC200B0F802146FF39F21A0F802141D
:10189000B0F8021441F4004194E000BF0CF2024E93
:1018A0003EF8077000236FF39F27F61B38BF1E46D4
:1018B00016604FD95FEA484208D530F821204CF233
:1018C000800302EA0B021A4320F821202B4613F86A
:1018D000341F012940F04B812A4652F830CF52E99B
:1018E000046152F8048C3944B844B44542F80C1CE5
:1018F00042F8048C80F0CC804FF00008BCF1000F5F
:1019000083F8008040F0C780BC46C6E06A7C012AAC
:101910006CD0002A74D1B0F850206244B2F802347E
:101920006FF39F23A2F80234B2F8023443F4004369
:10193000A2F80234B0F850003EF800206FF39F2266
:101940002EF800203EF8002042F400422EF800203D
:1019500056E000BF6A7C012A5AD0002A62D1B0F852
:1019600050203EF802706FF39F272EF802703EF869
:10197000027047F400472EF80270B0F8500060443F
:10198000B0F806246FF39F22A0F80624B0F80624CE
:1019900042F40042A0F8062444E000BFB0F8501022
:1019A00099F80020084400EBC2000021A0F80614BA
:1019B0000AE000BFB0F8501099F80020084400EB8E
:1019C000C2000021A0F8021499F800102046FFF789
:1019D000C7FB2BE5002B00F07F8003F001078E5A38
:1019E00007EB530346EA83237CE000BFB0F85020A6
:1019F00000236244A2F80234B0F850002EF8003000
:101A00002046FFF7ADFB5FEA484012D5AFE000BFCC
:101A1000B0F8502000232EF80230B0F85000604497
:101A2000A0F806342046FFF79BFB5FEA484040F1F0
:101A30009E80206899F800104CF2800330F8212035
:101A400002EA0B021A4320F8212090E0A8EB0C02D6
:101A50001A606A7C012A3FF402AF002A7AD1B0F8FA
:101A60005070BCF13F0F3EF807206FF39F222EF815
:101A7000072051D35FEACC634FEA5C1237F80E308F
:101A80004FF0FF3608BF06EB5C1243EA82225DE0AE
:101A9000ACEB0608B446C2F800806A7C012A2DD05F
:101AA000002A5FD1B0F85070BCF13F0F3EF807201C
:101AB0006FF39F222EF807203AD35FEACC634FEAF8
:101AC0005C1237F80E304FF0FF3608BF06EB5C12A1
:101AD00043EA822242E000BF8B5A48F20007CFF669
:101AE000FF773B438B52018843F60F7211404CF253
:101AF0008002A2F580525140018097E4B0F8502056
:101B00002EF802C02EE000BF00231370BC466A7C92
:101B1000012AA2D1A3E600BFBCF1000F14D00CF043
:101B2000010237F80E3002EB5C0243EA82220FE03A
:101B3000BCF1000F10D00CF0010237F80E3002EBB0
:101B40005C0243EA82220BE037F80E2042F40042A6
:101B500027F80E206A8B06E037F80E2042F4004288
:101B600027F80E202A8B1FFA8CF303F093FE2068CF
:101B700099F8001040F63F7330F821201A4048F2DF
:101B8000C003103B5A4020F82120FFF74FBC00BF94
:101B90002068B0F8441021F48061A0F84410204679
:101BA00000F0E2F994F8900201280DD101B0BDE8EF
:101BB000F08F00BF2068B0F8441021F48041A0F8F5
:101BC000441001B0BDE8F08F0120002584F8900298
:101BD00025732068002103F055FE84F8905201B06F
:101BE000BDE8F08F2068B0F8441021F40051A0F84F
:101BF000441001B0BDE8F08F2068B0F8401021F02B
:101C00000401A0F84010B0F8401021F00801A0F83D
:101C1000401094F8C802012806D1002084F8C802B8
:101C200020460021FFF754FA204600F0AFF9206863
:101C3000B0F8441021F48051A0F8441001B0BDE880
:101C4000F08F00BF2168B1F8400040F00800A1F813
:101C50004000B1F8440020F40060A1F84400B1F85D
:101C6000400040F004022046A1F840200BE000BFF5
:101C70002068B0F8441021F08001A0F8441094F8D6
:101C8000C81299B1204601B0BDE8F04F00F0C8B9C4
:101C90002168B1F8440020F400722046A1F84420E5
:101CA00001B0BDE8F04F00F085B900BFB0F84010BA
:101CB00041F00401A0F84010B0F8401041F00801D4
:101CC000A0F84010012184F8C812B0F854003C215B
:101CD00001EA900220460121C4F8CC2201B0BDE8FF
:101CE000F04FFFF7F5B90000F0B581B0002800F023
:101CF0000381044690F8910228B9002084F89002EC
:101D0000204600F0FDF8032084F89102206803F0DB
:101D1000C5F82179002900F0DD80A1F1010E01F064
:101D2000030CBEF1030F4FF0000334D301F0FC00AD
:101D300004F1A002012600256F1C02F8687CAF1C8C
:101D400002F8905C02F8407CEF1C043502F88F6CBE
:101D500002F88D3C42E9203342F8783C02F8676C87
:101D600002F8653C42E9163342F8503C02F83F6CF9
:101D700002F83D3C42E90C3342F8283C02F8176C6B
:101D800002F8187C02F8153C42E9023342F8A03B05
:101D90008542D1D12B46BCF1000F29D003EB830043
:101DA00004EBC00501220020BCF1010F6A742B7402
:101DB000E874C5E90800A8621AD05D1C05EB850629
:101DC00004EBC606BCF1020F72743574F074C6E9F8
:101DD0000800B0620CD0981C00EB800204EBC20239
:101DE0000123107400205374D074C2E9080090627B
:101DF00000296FD0BEF1030F4FF0000233D301F082
:101E0000FC0004F5F07100235F1C01F8687C9F1C46
:101E100001F8903C01F8407CDF1C043301F88F2C62
:101E200001F88D2C41E9202241F8782C01F8672C2B
:101E300001F8652C41E9162241F8502C01F83F2C9D
:101E400001F83D2C41E90C2241F8282C01F8172C0F
:101E500001F8187C01F8152C41E9022241F8A02B69
:101E60008342D1D11A46BCF1000F33D002EB82007D
:101E700004EBC0010020BCF1010F81F8510181F891
:101E8000502181F85301C1E95800C1F8680121D0FF
:101E9000511C01EB810304EBC303BCF1020F83F877
:101EA000510183F8501183F85301C3E95800C3F876
:101EB00068010FD0901C00EB800104EBC1010022EF
:101EC00081F8512181F8500181F85321C1E958224C
:101ED000C1F8682194E8070002F0D2FF0020012138
:101EE000207384F89112A17A012903D12046FFF7CB
:101EF000D9F8002001B0F0BD012001B0F0BD000014
:101F000010B596B0044601A804305021FEF7F4F94C
:101F1000206845F60041C4F20001884202D016B0A4
:101F200010BD00BF4FF40050019001A800F02AF945
:101F3000002818BFFEF78EFA41F25800C4F20200E2
:101F40000168002241F4000101600068002100F4F2
:101F50000000009000981420FFF768F81420FFF7A5
:101F600051F816B010BD000010B5044640790228A3
:101F700018BFFEF76FFAD4F8D802012102F084FAF4
:101F8000D4F8D802BDE8104002F030BA10B50446CB
:101F9000407A48B14EF61050CEF20000016821F0B0
:101FA0000601016001F056FCD4F8D802BDE81040EB
:101FB00002F050BAD0F8D80202F056BA10B5044672
:101FC00090F89002012804BF022010BD012084F87F
:101FD00090022173206803F055FC002084F89002E1
:101FE00010BD0000D0F8D82200F52671104602F08E
:101FF00061BA000010B5044690F89002012804BFB1
:10200000022010BD2068012184F8901203F0D8FB53
:10201000206802F02BFF002084F8900210BD000021
:1020200010B50446D0F8D80202F09AFA607A002877
:1020300008BF10BD4EF61050CEF20000016841F00E
:102040000601016010BD0000B0F5007F42D00028FD
:1020500040F0808047F21400C4F2000050F8141CD5
:10206000C26E01F4C06122F48072B1F5806FC26665
:102070002ED150F8141C012262F34A2140F8141C9E
:1020800040F22801C2F200010968322251434DF6A4
:102090008362C4F21B32A1FB0212910C026852054A
:1020A00011D54A1C0FD0026852050CD559B10268EF
:1020B000520508D5012906D00268520503D5022928
:1020C000A1F10401EAD10068400544BF0320704734
:1020D0000020704747F21400C4F2000050F8141CAE
:1020E000C26E01F4C06142F48072B1F5806FC266C5
:1020F000EED150F8141C012262F34A2140F8141C5E
:1021000040F22801C2F200010968322251434DF623
:102110008362C4F21B32A1FB0212910C02685205C9
:1021200011D54A1C0FD0026852050CD559B102686E
:10213000520508D5012906D00268520503D50229A7
:10214000A1F10401EAD10068400544BF03207047B3
:10215000BEE700BF47F21400C4F2000050F8141CA0
:10216000022262F34A2140F8141C0020704700004C
:1021700047F20800C4F20000016841F480410160A8
:10218000704700002DE9F04182B00446807841F2AA
:1021900088060007C4F2020602D400202FE000BF28
:1021A00056F8300C10F080580BD156F8300C40F037
:1021B000805046F8300C56F8300C00F080500190FA
:1021C000019847F20007C4F20007386840F48070B5
:1021D0003860FEF7B3FE05463868C00500F10C8193
:1021E000FEF7ACFE401B0228F6D90320B8F1000F21
:1021F00005D156F8301C21F0805146F8301C21687A
:10220000CA0717D18A071DD44A0723D40A0729D43D
:10221000CA062FD48A0635D44A063BD40A0641D4CE
:10222000CA0547D48A034DD48A0553D44A0559D4E4
:1022300067E000BF3268636822F003021A4332602D
:102240008A07E1D53268A36822F00C021A43326093
:102250004A07DBD53268E36822F030021A43326065
:102260000A07D5D53268236922F0C0021A433260CA
:10227000CA06CFD53268636922F440721A433260CD
:102280008A06C9D53268A36922F440621A433260D3
:102290004A06C3D53268E36922F440521A433260D9
:1022A0000A06BDD53268236A22F440421A433260DE
:1022B000CA05B7D53268636A22F440321A433260E5
:1022C0008A03B1D57269A36A22F003021A437261CC
:1022D0008A05ABD53268E36A22F440221A433260A1
:1022E0004A050ED53268236B22F440121A43B3F527
:1022F000801F326005D156F87C2C42F4801246F8DB
:102300007C2C0A050ED53268636B22F440021A4316
:10231000B3F5800F326005D156F87C2C42F4801260
:1023200046F87C2CCA040ED53268A36B22F04072AA
:102330001A43B3F1807F326005D156F87C2C42F409
:10234000801246F87C2C8A040ED53268E36B22F0AA
:1023500040621A43B3F1006F326005D156F87C2C0D
:1023600042F4801246F87C2C4A040ED53268236C65
:1023700022F040621A43B3F1006F326005D156F883
:102380007C2C42F4801246F87C2C0A040ED532686C
:10239000636C22F040521A43B3F1805F326005D182
:1023A00056F87C2C42F4803246F87C2CCA030ED5B9
:1023B0003268A36C22F040421A43B3F1804F32607E
:1023C00005D156F87C2C42F4803246F87C2C490327
:1023D0000ED57169E26C21F440111143B2F5001F72
:1023E000716105D156F87C1C41F4801146F87C1CC3
:1023F00002B0BDE8F08100BFB06810F4407010D0AA
:10240000216D88420BD0B068B16820F4407041F46F
:102410008031B160B16821F48031B160B060C00733
:102420000CD1B068216D20F440700843B0600020EA
:10243000B8F1000F7FF4E3AEDBE600BFFEF77EFDF0
:10244000054641F2883700BFB0688007E9D4FEF73F
:1024500075FD401BB842F7D9C7E600002DE9F047EB
:1024600000286DD042F2000AC4F2020A0446DAF8EB
:1024700000000D4600F00F0088420CD2DAF8000090
:1024800020F00F002843CAF80000DAF8000000F03E
:102490000F00A84254D1216841F20808C807C4F2CD
:1024A000020803D1880740F1D880BDE060680228A7
:1024B0003AD0032840D158F8082C920140D5D8F8DA
:1024C0000420D8F8043042F20046C3F3031302F0AC
:1024D0000302D8F804700133C0F2F406032A04BFE3
:1024E00041F20026C0F27A06B6FBF3F2D8F80430C7
:1024F000C7F306277A43C3F34163022707EB43037D
:10250000B2FBF3F24BF20043C0F2C4439A4261D9EA
:10251000D8F8002012F0F00F51D089075AD5A168E1
:10252000002957D14BE000BF58F8081C89035CBF55
:102530000120BDE8F08707E058F8081C490503D4DE
:102540000120BDE8F08700BFD8F8001001F00C01B1
:1025500004293FD0D8F8001001F00C01082939D027
:10256000D8F8001001F00C010C2933D1D8F8041070
:10257000D8F8042042F20047C2F3031201F003012D
:10258000D8F804300132C0F2F407032904BF41F245
:102590000027C0F27A07B7FBF2F1D8F80420C3F3A2
:1025A00006235943C2F34162022303EB4202B1FB0B
:1025B000F2F14BF20042C0F2C44291420AD9D8F87B
:1025C0000010082262F307114FF00109C8F800104B
:1025D00002E000BF4FF00009D8F8001021F003011D
:1025E0000843C8F80000FEF7A9FC064641F2883708
:1025F000D8F80000616800F00C00B0EB810F07D044
:10260000FEF79CFC801BB842F2D90320BDE8F0879E
:102610002168880708D4B9F1000F1ED0D8F800004F
:1026200020F0F00017E000BF480705D5D8F80000FB
:1026300040F4E060C8F80000080706D5D8F80000AC
:10264000072262F30D20C8F80000D8F80000A26845
:1026500020F0F0001043C8F80000DAF8000000F0A5
:102660000F00A8421BD9DAF8000020F00F00284321
:10267000CAF80000FEF762FC064641F2883700BF48
:10268000DAF8000000F00F00A84207D0FEF756FC71
:10269000801BB842F4D90320BDE8F08721684807C1
:1026A00007D5D8F80000E26820F4E0601043C8F8CD
:1026B0000000080708D5D8F80000216920F4605010
:1026C00040EAC100C8F80000D8F8000042F200411A
:1026D000C0F2F40100F00C00042808462DD0D8F810
:1026E000000000F00C00082841F20020C0F27A003F
:1026F00023D0D8F8002002F00C020C2A1CD1D8F804
:102700000420D8F8043002F00302C3F30313D8F80E
:1027100004700133032A08BF0146B1FBF3F0D8F877
:102720000410C7F30627C1F341610222784302EB8C
:102730004101B0FBF1F000E00020D8F8001046F2B3
:10274000AC42C1F30311C0F60002515C40F2280212
:1027500001F01F0120FA01F140F20000C2F2000076
:102760000068C2F200021160BDE8F047FEF70ABC43
:102770002DE9F04182B0002800F00681044600787F
:1027800041F20006C007C4F2020655D12078800746
:1027900074D42078000700F197802078400700F17A
:1027A000B7802078800600F10781E569002D00F0F0
:1027B0003082B06800F00C000C2840F05981012DE7
:1027C00000F0E280F068216A00F003028A4240F0E3
:1027D000DB80626A6FF00F0300F0F00103EB02127E
:1027E000914240F0D180A16A00F4FE42B2EB012F89
:1027F00040F0CA80E16A00F07842B2EBC16F40F06D
:10280000C380226B0023CFF6E07303EA025200F488
:10281000C001A2F50012914240F0B680616B4FF00A
:102820007E4202EA016100F0C06001F17E4188420F
:1028300040F0AA80EDE100BFB06800F00C01F06844
:1028400008295BD0032281F00C0122EA0000084431
:10285000B0FA80F0400951D16068B0F5803F07D0F0
:10286000B0F5A02F40F0DA80306840F4802030606E
:10287000306840F480303060DBE000BFB068F16861
:1028800000F00C00042869D001F0030180F00C0076
:1028900081F002010844B0FA80F040095ED1E1689D
:1028A0003068002900F0D28040F480703060FEF77C
:1028B00045FB05463068400500F1FC80FEF73EFB15
:1028C000401B0228F6D92EE16169D6F89400002950
:1028D00000F0908040F00100C6F89400FEF72EFB57
:1028E000054600BFD6F8940080073FF556AFFEF7C7
:1028F00025FB401B0228F5D915E100BF3068800395
:102900007FF544AF606800287FF440AF3CE000BF33
:10291000B06D10F0805808D1B06D40F08050B065B7
:10292000B06D00F080500190019847F20007C4F2AA
:1029300000073868C0052BD4386840F480703860D0
:10294000FEF7FCFA054600BF3868C00520D4FEF744
:10295000F5FA401B0228F7D9E5E000BF30684005D2
:1029600001D5E06880B17068216920F0FE4040EA3E
:102970000160706040F20000C2F200000068FEF7E3
:1029800001FB00283FF405AF012002B0BDE8F08153
:10299000A068012808D0052840F0AA80D6F8900049
:1029A00040F00400C6F89000D6F8900040F0010016
:1029B000C6F89000A9E000BFA169D6F898000029E8
:1029C00000F0808040F00100C6F89800FEF7B6FAEB
:1029D000054600BFD6F8980080073FF5E6AEFEF743
:1029E000ADFA401B02284FF00300F3D902B0BDE856
:1029F000F08100BF20F00100C6F89400FEF79EFAB7
:102A0000054600BFD6F8940080077FF5C6AEFEF7F6
:102A100095FA401B0228F5D985E000BF31680028EF
:102A200021F480313160316821F48021316000F07F
:102A30007F80FEF783FA0546306880033FF5A6AE37
:102A4000FEF77CFA401B6428F6D96CE020F4807015
:102A50003060FEF773FA0546306840057FF599AEA1
:102A6000FEF76CFA401B02284FF00300F4D9BDE7D3
:102A7000306820F080703060FEF760FA022D054665
:102A80000CD100BF3068800140F17E80FEF756FA1D
:102A9000401B02284FF00300F4D9A7E730688001FB
:102AA00040F1B080FEF74AFA401B02284FF00300C5
:102AB000F4D99BE77068216920F0FE4040EA01608C
:102AC000706066E620F00100C6F89800FEF736FA5E
:102AD000054600BFD6F8980080077FF566AEFEF782
:102AE0002DFA401B02284FF00300F3D97EE700BF08
:102AF000D6F8901021F00101C6F89010D6F8901089
:102B000021F00401C6F8901010B3FEF717FA05463D
:102B100041F28837D6F8900080072BD4FEF70EFAE2
:102B2000401BB842F6D9032002B0BDE8F08100BFD7
:102B3000FEF704FA054600BF306880037FF526AE35
:102B4000FEF7FCF9401B64284FF00300F4D94DE771
:102B5000FEF7F4F9054641F2883700BFD6F8900039
:102B6000800707D5FEF7EAF9401BB8424FF0030093
:102B7000F4D93BE7B8F1000F7FF413AEB06D20F04D
:102B80008050B0650DE600BFF06848F20C01C0F25D
:102B90009F1104F1200700EA010C8ECF6FF00F00A7
:102BA000D4E90C5400EB02100022CFF6E07241EAA7
:102BB0000C0102EA05520843A2F500124FF07E45CF
:102BC00040EA032005EA0465104305F17E4540EA2A
:102BD000C7602843F060306840F080703060F06873
:102BE00040F08070F060FEF7A9F90446306880017B
:102BF0000FD4FEF7A3F9001B02284FF00300F5D90C
:102C0000F4E600BFF0684FF6FC71CFF6EE610840C5
:102C1000F060002002B0BDE8F0810000002804BF91
:102C200001207047B0B50446406A28B100202061F9
:102C300004F1140006E000BF6068B0F5827F03D0A5
:102C400004F11C00002101600025A56294F85D00DC
:102C500020B9204684F85C5000F052F8022084F835
:102C60005D002068D4F80CE00268BEF5E06F22F049
:102C7000400202604EF4006298BF0125B2F5706F09
:102C80001CBF0023A3624FEA053CD4E90135D4E917
:102C9000042103F4827305F404452B4402F002027C
:102CA0001A44A36901F00101E569114403F40072BB
:102CB000114405F03802256A114405F08002A56A26
:102CC000114405F40052114301600421626A0EF4BC
:102CD000706501EA1341636B45EA0C0502F01002CE
:102CE000294303F00803114319434160C16921F4EA
:102CF0000061C16100200121206684F85D10B0BD33
:102D000080B586B0006843F20001C4F20101884238
:102D100002D006B080BD00BF41F24C00C4F20200F8
:102D2000416941F480514161416901F4805101914F
:102D30000199016841F002010160006801A900F0F9
:102D4000020001900198382001900220029000209A
:102D5000CDE903000520059040F20040C4F60000D4
:102D6000FEF710F806B080BD411E0020B0EB116FD9
:102D70001CBF012070474EF21002CEF200025160DB
:102D80004EF62351CEF20001F0230B700721906024
:102D900011607047B0B590F83C20012A04BF0220B2
:102DA000B0BDD1E90232D1E900CE22F47C5223F445
:102DB000705343EA020448F2FF73CEF6F0730EEA52
:102DC0000302224303F5006404EA0C0442EA040C03
:102DD0000C6903F5C05222404C6942EA0C022243BE
:102DE00003F5605422400C6B03F5F04323401A4373
:102DF0008B6940F2000CCC69CEF6FF7C0CEA034CE8
:102E00001443026842F60043C4F201039A4244EAC2
:102E10000C030BD045F20004C4F20104A24205D019
:102E200043F20044C4F20104A24217D14FF6FF74EA
:102E3000CDF60F4403EA040ED1E9084CD1E90A317A
:102E40000025CDF6F04505EA035343EA0E0324F0CE
:102E500008552B432CF000552B430B4300215364A2
:102E600080F83C100846B0BD70B590F83C20012AAF
:102E70004FF0020265D080F83D20026842F6004320
:102E80005468D2F808C0C4F2010345F2000E9A4219
:102E9000C4F2010E18BF72452CD14D6824F47004A1
:102EA0002C434FF68F75CFF6FF550E682C4042F637
:102EB000FF35C4F201053443AA4254600EDC40F2EF
:102EC000FF73C4F200039A421CDCB2F1804F2DD094
:102ED00040F20043C4F2000326E000BF43F6FF7453
:102EE000C4F20104A24219DC9A421FD043F200430B
:102EF00018E000BF43F20045C4F20105AA42CCD05D
:102F0000CFE700BF40F60003C4F200039A420DD0A1
:102F100040F60043C4F2000306E000BF724505D04E
:102F200044F20003C4F201039A4204D189682CF0F0
:102F30008003194391600121002280F83D1080F840
:102F40003C20104670BD00002DE9F04186B00068BD
:102F500042F60041C4F20101884203D006B0BDE848
:102F6000F08100BF41F24C00C4F20200016840F25F
:102F7000004841F0040101600168C4F6000801F056
:102F8000040101910199016801AD41F00101016065
:102F90000168022601F001010191019901680027F1
:102FA00041F0020101600068294600F00200019032
:102FB00001980720019008F580600296CDE903771B
:102FC0000596FDF7DFFE802001A9C1C106244FF060
:102FD0009040294604970594FDF7D4FE032001A9EB
:102FE000C1C140462946CDE90474FDF7CBFE06B0C9
:102FF000BDE8F0812DE9F04190F83C30012B04BF91
:103000000220BDE8F0814FEAB202052A00F2A28157
:10301000DFE812F006005400AE0008016201A801CA
:1030200003681D6A1A6AA3F1804622F001021A623F
:103030001A46D3F8048052F818EF8F68A6F5963632
:10304000D1F800C025F002054FEAB626092E45EA60
:1030500007050BD80127B74040F2E52427421FBFE0
:10306000CC6825F00C0524F004042543092E0CD867
:103070000124B44040F2E52634421FBF28F44074D6
:10308000D1E90567344344EA07084FF68C74CFF65C
:10309000FE740EEA040747EA0C07C3F804809F6138
:1030A0004F6809695F631D629F6947F008079F6168
:1030B0009F6927F004079F6192E100BF036842F611
:1030C00000461D6A1A6AC4F2010622F010021A6252
:1030D0001A46D3F804C052F8188FB3428E68D1F85C
:1030E00000E025F0200545EA06150BD045F2000664
:1030F000C4F20106B34205D043F20046C4F2010611
:10310000B34207D1CE686FF0400725F0C00507EA4B
:1031100006163543A3F18046A6F596364FEAB62645
:10312000092E0DD8012707FA06F640F2E5273E42A0
:103130001FBFD1E905672CF44064374344EA870C8C
:1031400048F6FF44CFF6FF6404EA080444EA0E2779
:10315000C3F804C09F614F6809699F631D629F693E
:1031600047F400679F619F6927F480679F6136E19C
:10317000036842F600461D6A1A6AC4F2010622F488
:1031800080721A621A46D3F804C052F81CEFB34298
:103190008E68D1F8008025F4007545EA06250BD02D
:1031A00045F20006C4F20106B34205D043F20046E0
:1031B000C4F20106B34207D1CE6840F2FF4736029F
:1031C00025F44065BE433543A3F18046A6F5963607
:1031D0004FEAB626092E0DD8012707FA06F640F267
:1031E000E5273E421FBFD1E905672CF44054374321
:1031F00044EA071C4FF68C74CFF6FE740EEA0407FF
:1032000047EA0807C3F804C0DF614F680969DF6354
:103210001D62DF6947F00807DF61DF6927F00407F7
:10322000DF61DDE0036842F600461D6A1A6AC4F2F7
:10323000010622F480521A621A46D3F804C052F8EA
:103240001C8FB3428E68D1F800E025F4005545EAA2
:1032500006350BD045F20006C4F20106B34205D094
:1032600043F20046C4F20106B34207D1CE6844F6E9
:10327000FF77360325F44045BE433543A3F180462E
:10328000A6F596364FEAB626092E0DD8012707FA7D
:1032900006F640F2E5273E421FBFD1E905672CF450
:1032A0004044374344EA871C48F6FF44CFF6FF64A6
:1032B00004EA080444EA0E27C3F804C0DF614F683B
:1032C00009691F641D62DF6947F40067DF61DF6918
:1032D00027F48067DF6182E00368D3F820C01A6AB0
:1032E000A3F1804722F480321A621A46A7F5963776
:1032F0005D6852F8508FD1F800E08E684FEAB7272A
:10330000092F0AD80124BC4040F2E5273C421EBFE9
:103310004C6925F4803545EA04252CF4003747EA4A
:1033200006474FF68C76CFF6FE76033606EA080699
:1033300046EA0E065D601E654E6809699E641F625E
:103340001F6D47F008071F651F6D27F004071F65F5
:1033500046E000BF0121002280F83C200846BDE87D
:10336000F08100BF0368D3F820C01A6AA3F1804738
:1033700022F480121A621A46A7F596375D6852F851
:10338000508FD1F800E08E684FEAB727092F0AD88E
:103390000124BC4040F2E5273C421EBF4C6925F4A5
:1033A000802545EA84252CF4001747EA065748F69D
:1033B000FF46CFF6FF6606F5407606EA080646EABF
:1033C0000E265D601E654E680969DE641F621F6D12
:1033D00047F400671F651F6D27F480671F650902AA
:1033E0001368194311600021002280F83C20084630
:1033F000BDE8F081002804BF0120704710B50446E5
:1034000090F83D0028B9002084F83C00204600F0E8
:1034100023F8022084F83D002068211D00F05CFAAA
:10342000012084F8480084F83E0084F83F0084F8C6
:10343000400084F8410084F8420084F8430084F896
:10344000440084F8450084F8460084F8470084F876
:103450003D00002010BD000081B0006842F6004130
:10346000C4F20101884201D001B0704741F260000E
:10347000C4F20200016841F400610160006800F4D8
:1034800000600090009801B070470000FEE7000067
:1034900010B592B0002468463C211194CDE90F4448
:1034A000FCF72AFF41F66410C2F200004FF0A04181
:1034B00001234FF0040C4FF4403280E81600C0E9BD
:1034C0000344C0E9053C8483036280F8244080F80B
:1034D0003840C46380F84040FDF7D4FA002818BF94
:1034E000FCF7B8FF41F66410C2F200000FA90F9478
:1034F000FDF72EFA002818BFFCF7ACFF0220C0F23F
:10350000304000900920019004207F210290CDE9F5
:103510000310002005900321ADF824008DF826004B
:10352000CDE90A008DF8300041F664100891C2F22E
:1035300000006946FCF794FF002818BFFCF78AFFDB
:103540000420C0F66000009040F20F10019041F698
:103550006410C2F200006946FCF782FF002818BF21
:10356000FCF778FF0820C0F69040009040F215204C
:10357000019041F66410C2F200006946FCF770FF4A
:10358000002818BFFCF766FF12B010BD2DE9F0430C
:1035900087B04FF0000941F24C00CDF81890C4F20A
:1035A0000200016840F6000441F004010160016876
:1035B000C4F6000401F004010191019901680022A0
:1035C00041F02001016001684FF4604601F02001E4
:1035D00001910199016841F001010160016801F068
:1035E000010101910199016841F002010160016846
:1035F00001F0020101910199016841F008010160A7
:1036000000684FF4604100F00800019001982046E6
:10361000FDF78EFC04F580652846042100224FF05A
:103620000408FDF785FC029602AE012720463146CC
:10363000CDE90379CDF81490FDF7A4FB2846314677
:10364000CDE90287CDE90499FDF79CFB07B0BDE801
:10365000F083000070B541F6AC4043F20001C2F2C5
:103660000000C4F201014FF4827200234FF4706C29
:103670004FF0020E012480E80E5000F114014FF4C7
:103680000075202670C10721C0E90833C0E90A315E
:10369000C0E90C33FFF7C2FA002808BF70BDBDE8CF
:1036A0007040FCF7D7BE000010B598B0002401A808
:1036B00034211494CDE91244CDE91044CDE90E44EF
:1036C000FCF71AFE41F6105042F60041C2F200002B
:1036D000C4F201014022C0E9001400F1080141F2E6
:1036E0009A031CC1C0E90544FFF784FE002818BFF7
:1036F000FCF7B0FE41F61050C2F2000015A9CDE96A
:1037000015441794FFF7B0FB002818BFFCF7A2FE82
:1037100060200E900020CDE90F00CDE91100CDE929
:10372000130041F61050C2F200000EA90022FFF76C
:1037300061FC002818BFFCF78DFE41F61050C2F264
:1037400000000EA90422FFF755FC002818BFFCF763
:1037500081FE41F61050C2F200000EA90822FFF7C8
:1037600049FC002818BFFCF775FE41F61050C2F264
:1037700000000EA90C22FFF73DFC002818BFFCF743
:1037800069FE00204FF40051CDE906104FF00071A2
:103790000590CDE90300CDE90100CDE90800CDE9B0
:1037A0000A10CDE90C0041F61050C2F2000001A948
:1037B000FFF7F0FA002818BFFCF74CFE41F6105056
:1037C000C2F20000FFF7C0FB18B010BD80B541F297
:1037D000946040F20801C2F20000C2F2000100222F
:1037E00000F0BEFC002818BFFCF734FE41F29460E4
:1037F00040F22C01C2F20000C2F2000100F0D8FE3B
:10380000002818BFFCF726FE41F2946040F25011E8
:10381000C2F20000C2F2000100F074FA002818BFE2
:10382000FCF718FE41F29460C2F2000000F0E0FEE6
:10383000002808BF80BDBDE88040FCF70BBE00003B
:10384000FEE70000FEE70000704700007047000040
:10385000FDF77ABBB0B594B000240020CDE90A444E
:10386000CDE90844FEF7F0FB212006904FF48030AC
:10387000079001200C90022054210325CDE910105F
:1038800004210D90CDE90E50CDE9121006A8FEF7E7
:103890006FFF28B1EFF3108072B600BFFEE700BFE4
:1038A0000F20CDE9010501A80421CDE903440594C9
:1038B000FEF7D4FD20B1EFF3108072B6FEE700BF33
:1038C00014B0B0BD4EF68850CEF20000016841F44D
:1038D000700101607047000080B540F6FF33026858
:1038E000C4F2000343F2FF3C9842C4F2010C0BDD2A
:1038F00060452FDC40F60043C4F20003984235D007
:1039000042F600432EE000BFB0F1804F2ED040F2CF
:103910000043C4F20003984228D040F60003C4F2EA
:103920000003984222D0604526DC40F2FF73C4F2C7
:103930000003984236DD40F60003C4F200039842CB
:1039400044D040F60043C4F2000398423ED042F611
:10395000004337E045F20003C4F20103984205D06A
:1039600043F20043C4F201039842DCD14B6822F0D9
:1039700070021A436045D8DD44F2FF33C4F20103FC
:10398000984217DD44F20043C4F2010398421DD06F
:1039900045F20003C4F20103984217D044F6000335
:1039A00010E000BFB0F1804F10D040F20043C4F2ED
:1039B000000309E043F20043C4F20103984205D03A
:1039C00044F20003C4F20103984203D1CB6822F40D
:1039D00040721A434B6922F0800E8A6843EA0E0354
:1039E000D1F800C00360C262A0F18042A2F5963215
:1039F0004FEAB222092AC0F828C008D8012303FAE6
:103A000002F240F2E5231A421CBF09690163012159
:103A100041610169C90708BF80BD016921F0010149
:103A2000016180BD10B540F27424C2F200040A4660
:103A300002A0214600F026FB204610BD434443204F
:103A4000436F6E666967000010B5D0F8BC323BB3B7
:103A50008E4601EB810100EB810151F8184F64B1F2
:103A6000D0F8C4C20EEB8E020CEBC202D2F820C01A
:103A7000B4FBFCF202FB1C42A2B10024C3F81442C6
:103A8000D0F8C002D0F810C0BCF1000F06D0D3F8B7
:103A9000080203F504717246E0470024204610BD79
:103AA000032010BD00240C6071460022002300F0AA
:103AB00061FD204610BD0000B0B5D0F8BC527DB10C
:103AC000044600F013FCD4F8C02205F50371D36856
:103AD000D5F80422C5F80C02104698470020B0BD66
:103AE0000320B0BDB0B58121044600F061FB002584
:103AF00020460121258700F05BFB20468221A4F8A7
:103B0000785100F055FBD4F8BC02E56448B1D4F814
:103B1000C00240688047D4F8BC0201F007F8C4F83E
:103B2000BC520020B0BD000040F2EC001222C2F2F4
:103B300000000A807047000010B5D0F8BC428CB17C
:103B4000D0F8C01281B194F80002FF280CD08B6825
:103B500094F8012221469847FF2084F800020020B3
:103B600010BD00BF032010BD002010BD014640F273
:103B700000100A22C2F200000A807047014640F29B
:103B800064004322C2F200000A807047014640F2FE
:103B9000A8004322C2F200000A807047014640F2AA
:103BA0000C104322C2F200000A807047F0B581B0C9
:103BB00004464FF4077000F0BBFFE8B30546C4F8B5
:103BC000BC02207C4026002808BF4FF40076204627
:103BD00081210222334600F0E3FB01272046012128
:103BE00002223346278700F0DBFB1020A4F84E00AA
:103BF0002046822103220823A4F8787100F0D0FB2C
:103C0000D4F8C002A4F84C70006880470020C5F8C2
:103C10001402C5F81802207CD5F80422002820469A
:103C20004FF001010CBF4FF40073402300F0CCFBB8
:103C3000002001B0F0BD00BF0020C4F8BC0202208B
:103C400001B0F0BD10B540F27424C2F200040A467F
:103C500002A0214600F016FA204610BD434443203E
:103C6000496E7465726661636500000040F264101D
:103C70000422C2F200000A807047000010B540F232
:103C80007424C2F200040A4602A0214600F0FAF9A8
:103C9000204610BD53544D6963726F656C65637443
:103CA000726F6E696373000010B540F27424C2F243
:103CB00000040A4602A0214600F0E4F9204610BDA7
:103CC00053544D3332205669727475616C20436FC2
:103CD0006D506F727400000080B5D0F8BC1279B1DD
:103CE00090F810C0D1F8042240230121BCF1000F4C
:103CF00008BF4FF4007300F067FB002080BD00BFD9
:103D0000032080BD00290EBF0320C0F8C012002090
:103D100070470000B0B547F29050C1F6FF700268DE
:103D200083684FF01A0C9B18A1F800C000F0A38024
:103D30004FF0370C1A0F0CEB13714068B3F1204FA2
:103D400038BF02F1300140F26812C2F200029170F5
:103D500019014FF0000E0CEB117582F803E0C3F36C
:103D60000364B1F1204F38BF04F130051902157119
:103D70000CEB117582F805E0C3F30354B1F1204F49
:103D800038BF04F13005190395710CEB117582F8F9
:103D900007E0C3F30344B1F1204F38BF04F130050D
:103DA000190415720CEB117582F809E0C3F30334A2
:103DB000B1F1204F38BF04F13005190595720CEBB5
:103DC000117582F80BE0C3F30324B1F1204F38BF23
:103DD00004F1300519061573C3F303140CEB1175C8
:103DE000B1F1204F4FEA037103F00F0382F80DE0A9
:103DF00038BF04F1300503F13704957382F80FE002
:103E0000B1F1204F38BF03F13004010F0CEB1073F8
:103E1000147482F811E0B0F1204F38BF01F1300383
:103E200001010CEB1174937482F813E0C0F3036387
:103E3000B1F1204F38BF03F1300401021475C0F313
:103E400003530CEB1174B1F1204F4FEA003182F8AB
:103E500015E038BF03F130040CEB1173947582F850
:103E600017E0C0F30340B1F1204F38BF00F1300339
:103E7000137682F819E040F26810C2F20000B0BD7B
:103E8000D0F8BC0200280EBF0320C0F804120020A6
:103E900070470000D0F8BC0200280FBF0320C0F814
:103EA0000812C0F8102200207047000070B582B0E0
:103EB000D0F8BC62044600208DF80700ADF804007D
:103EC000C6B108780D4610F0600117D020295DD1E9
:103ED000EA88002A2AD040B2B0F1FF3F32DD68788C
:103EE000314686F80002204686F8012200F096F856
:103EF000002617E00326304602B070BD68780B2814
:103F000044D80026DFE800F0060E42424242424218
:103F100042422C3A94F89C02032837D101A920464A
:103F2000022225E0304602B070BD00BFD4F8C002C6
:103F3000294683686878002200269847304602B0F8
:103F400070BD00BFD4F8C0023146836868789847D6
:103F5000EA8820463146072A28BF072208E000BF2A
:103F600094F89C02032811D10DF10701204601228B
:103F700000F06EF80026304602B070BD94F89C0246
:103F8000032803D10026304602B070BD20462946E2
:103F900000F038F80326304602B070BD80B5D0F886
:103FA000BC223AB1D2F8141200294FF0010103D01B
:103FB000084680BD032080BDC2F81412D2F810322A
:103FC000D2F808228121C36200F0D4FA0021084609
:103FD00080BD000080B5D0F8B8220AB15268904781
:103FE000002080BD80B513460A46002100F0ECF9A0
:103FF000002080BD80B513460A46002100F0BAFAC1
:10400000002080BD10B58021044600F085FA2046CE
:104010000021BDE8104000F07FBA000080B51346D3
:104020000A460321C0F894120021C0E9563300F07B
:10403000CBF9002080BD000080B50521C0F89412A6
:1040400000210022002300F0BFF9002080BD000005
:1040500080B513460A460221C0F894120021C0E937
:10406000063300F087FA002080BD000080B50421EF
:10407000C0F8941200210022002300F07BFA0020F7
:1040800080BD000010B5002868D00378B3B100F1FE
:10409000020E4FF0000C00BF1EF8013C93B19EF8D9
:1040A00000309BB19EF80130A3B19EF802300CF1B4
:1040B000040C002B0EF1040EEED10DE04FF0000CBD
:1040C0000AE000BF4CF0010C06E000BF4CF0020C0F
:1040D00002E000BF4CF0030C5FFA8CFC022303EB00
:1040E0004C03138003220B704A7090F800E0BEF17D
:1040F000000F33D0841C02224FF0000C1AE000BFE6
:10410000101DC0B20B5440F0010001F800C06378EC
:10411000002B08BF10BD901DC0B20B5440F0010031
:1041200001F800C094F802E00832BEF1000F04F17B
:10413000040413D0D3B201F803E043F0010301F803
:1041400003C014F8013C4BB1901CC0B20B5440F0BA
:10415000010001F800C02378002BD1D110BD000070
:10416000002804BF032070470023C0F8B832C0F80D
:10417000C0320029C0F8CC3218BFC0F8B4120121F7
:1041800080F89C12027000F0B5B8000080B5D0F83D
:10419000C402FDF723F840F20032C100C0F2013240
:1041A00022FA01F1032888BF0321C8B280BD0000B4
:1041B00080B5D0F8C402FCF7E9FF40F20032C1003C
:1041C000C0F2013222FA01F1032888BF0321C8B2EC
:1041D00080BD0000B0B5044671B194F89C0203287C
:1041E0004AD1D4F8B8024269002A45D02046904707
:1041F000002808BF0020B0BDD4F89402022834D1B2
:10420000D4E9070188420DD9431A204611461A46BF
:10421000E361FFF7EFFE204600210022002300F0BB
:10422000D3F822E010D1A16981420DD3D4F89802CD
:10423000814209D22046002100220025FFF7DAFE44
:10424000C4F89852E7E700BF94F89C02032805D110
:10425000D4F8B802C16809B12046884720468021B9
:1042600000F05AF92046FFF7E7FE94F8A002012873
:1042700004BF002084F8A0020020B0BD10B50446A1
:1042800071B194F89C0203281DD1D4F8B802826958
:10429000CAB120469047002808BF002010BD00BFCB
:1042A000D4F8940203280ED1D4E9570398420DD9CB
:1042B000C01AC4F85C01984238BF03462046114634
:1042C0001A46FFF78FFE002010BD00BF94F89C0235
:1042D000032805D1D4F8B802016909B120468847FE
:1042E0002046FFF7C3FE002010BD0000D0F8C40236
:1042F000FCF7A6BF10B5044641F6D01045F60041C4
:10430000C2F20000C4F2000101604FF4027181802A
:104310000221C1710021C0F8D842C4F8C4028160F2
:10432000FDF7E2FC002818BFFCF794F8D4F8C402AB
:10433000002100221823FCF7F5FED4F8C4028021E6
:1043400000225823FCF7EEFED4F8C402812100229B
:10435000C023FCF7E7FED4F8C402012100224FF489
:104360008873FCF7DFFED4F8C402822100224FF4E8
:104370008073FCF7D7FE002010BD00004AB2D0F8D1
:10438000C40201F07F0101EB810100EBC10000F5E7
:10439000A971002A48BF00F1120108787047000097
:1043A00080B59446D0F8C4021A466346FCF752FF23
:1043B00040F20032C100C0F2013222FA01F10328BA
:1043C00088BF0321C8B280BD80B5D0F8C402FCF715
:1043D00071FF40F20032C100C0F2013222FA01F155
:1043E000032888BF0321C8B280BD0000F0B581B0AA
:1043F00004460120002184F89C02C4F89412D4F8E9
:10440000B8026160C4F8A41200B3D4F8BC1221B1A0
:10441000426812B120460021904720460021002228
:10442000402300254026FFF7BBFF012720468021BF
:1044300000224023A4F86471C4F86061FFF7B0FF64
:10444000A7842662284601B0F0BD00BF0325284698
:1044500001B0F0BD90F89C12042904BF90F89D12A1
:1044600080F89C120020704780B5D0F8B81249B18E
:1044700090F89C22032A02D1C96901B18847002023
:1044800080BD00BF032080BD02460020117470472C
:1044900080B5D0F8C402FDF791FD40F20032C100B2
:1044A000C0F2013222FA01F1032888BF0321C8B209
:1044B00080BD0000B0B500F2AA250446284600F0F1
:1044C0006BF80120C4F8940294F8AA02B4F8B02260
:1044D00000F01F010229C4F8982209D001290DD04B
:1044E00091B920462946BDE8B04000F083B800BF2E
:1044F00020462946BDE8B04000F036BA204629469D
:10450000BDE8B04000F0D4BA00F080012046BDE81C
:10451000B04000F001B8000080B5D0F8C402FCF74C
:10452000E3FE40F20032C100C0F2013222FA01F192
:10453000032888BF0321C8B280BD000080B5D0F831
:10454000C402FDF757FD40F20032C100C0F2013253
:1045500022FA01F1032888BF0321C8B280BD000000
:10456000014690F89C02042281F89D02002081F807
:104570009C22704780B5D0F8C402FCF7E7FE40F2F9
:104580000032C100C0F2013222FA01F1032888BFD3
:104590000321C8B280BD00000A7802704A784270D8
:1045A0004A8842808A888280C988C180704700001A
:1045B00010B582B004460020ADF8060061B1CA6AA9
:1045C000C4F8B81222B10DF106009047C4F8CC022D
:1045D000002002B010BD00BF032002B010BD0000DB
:1045E000D0F8B822002A04BF032070471268104791
:1045F000FFF7A4BFB0B582B00D460978044611F0AC
:1046000060010DD0402901D020292FD1D4F8B80263
:1046100029468268204602B0BDE8B040104700BF7E
:104620006878092800F2D680DFE810F00A002C0034
:10463000D4003E00D40046006600D4008000940000
:1046400094F89C020138022800F2C480E88802280D
:1046500040F0C080D4F8A4020322002808BF012241
:10466000214641F80C2F2046022203E120468021FA
:10467000FFF752FF204600210025FFF74DFF284697
:1046800002B0B0BD94F89C020138022800F2A2806A
:10469000688800250128F2D12046C4F8A452FFF70B
:1046A000E5FC284602B0B0BD6888012840F068806B
:1046B0000120C4F8A40211E1A888002840F08A80F3
:1046C000E888002840F0868068887F2800F2828091
:1046D00094F89C12032900F07D80C5B284F89E02F4
:1046E00020462946FFF7D4FE2046FFF7BFFC002DE9
:1046F0000CBF012002201DE168884FF0FF3101EB63
:10470000102100220E29ADF8062000F2B980DFE862
:1047100001F0096D7BB7B78791B7B7B7B7B7B7B730
:104720009D0000BFD4F8B402026893E0E888012835
:1047300050D194F89C02411E022945D20025214601
:1047400041F8085F20460122FFF782FC284602B0AC
:10475000B0BD00BF688840F27025C2F2000510F0BD
:10476000FE0F287010D020468021FFF7D5FE20468E
:104770000021FFF7D1FE0325284602B0B0BD00BFDF
:104780000025284602B0B0BD94F89C22C1B2032A8D
:1047900000F08280022A40F0A980002900F09E806B
:1047A00020466160FFF71CFF002800F0BF8005462F
:1047B00020468021FFF7B0FE20460021FFF7ACFE27
:1047C000284602B0B0BD00BF032803D1211D2046FA
:1047D00001224FE020468021FFF79EFE2046002167
:1047E0000025FFF799FE284602B0B0BD217CD4F821
:1047F000B80200290CBF816AC16A0DF10600884722
:104800000146022020E000BFC0B2052838D8DFE80A
:1048100000F003979B9FA3A7D4F8B402426818E066
:10482000207C68BBD4F8B802416B0DF106008847C4
:1048300014E000BF207C18BBD4F8B802016B0DF166
:104840000600884701460720487008E0D4F8B40203
:10485000C269AAB1207C0DF1060190470146EA88A1
:10486000E2B3BDF8060058B1904238BF0246204678
:10487000ADF80620FFF7ECFB0025284602B0B0BDDE
:1048800020468021FFF748FE20460021FFF744FE26
:104890000025284602B0B0BDC1B3606888421DD073
:1048A000C1B22046FFF796FB297820466160FFF7EA
:1048B00097FE98B1054620468021FFF72DFE204641
:1048C0000021FFF729FE21792046FFF783FB022014
:1048D00084F89C02284602B0B0BD00BF2046FFF716
:1048E000C5FB0025284602B0B0BD00BF2046802190
:1048F000FFF712FE20460021FFF70EFE2978204622
:10490000FFF768FB0325284602B0B0BD022084F8FB
:104910009C026160204600210025FFF75BFB2046DA
:10492000FFF7A4FB284602B0B0BD00BF2046FFF74A
:104930009DFB032084F89C020025284602B0B0BDF0
:10494000D4F8B402826884E7D4F8B402C26880E77D
:10495000D4F8B40202697CE7D4F8B402426978E77B
:10496000D4F8B402826974E7B0B50D4609780446FC
:1049700011F060010CD0402901D0202922D1D4F8B7
:10498000B802294682682046BDE8B040104700BF03
:104990006878297900B3012836D0032868D194F8C3
:1049A0009C02032834D1688838B911F07F0004D004
:1049B000E88810B92046FFF7AFFD2046FFF756FB09
:1049C0000020B0BD20468021FFF7A6FD2046002133
:1049D000FFF7A2FD0020B0BD94F89C02032825D06B
:1049E000022808BF5FEA416042D111F0800004F163
:1049F00014014FF0140004BF4FF4AA7004F5AA711B
:104A00000022225020464DE094F89C02032839D021
:104A100002282DD148062BD02046FFF77DFD2046E9
:104A20008021FFF779FD0020B0BD00BF01F00F002D
:104A300000EB8000802904EB80002CBF808CB0F854
:104A40006401A8B101F07F0000EB800004EB80005E
:104A500000F11405802938BF00F5AA7548061DD05D
:104A60002046FFF78BFC002818BF012017E000BF8D
:104A700020468021FFF750FD20460021FFF74CFD26
:104A80000020B0BD68880028A4D1480602D0204686
:104A9000FFF77CFB2046FFF7E9FA70E7002028606B
:104AA000204629460222FFF7D3FA0020B0BD0000BD
:104AB000B0B50D460978044611F0600118BF4029D1
:104AC00014D194F89C020138022803D8A88810F069
:104AD000FE0F17D020468021FFF71EFD2046002143
:104AE0000025FFF719FD2846B0BD00BF2029E8D0FA
:104AF00020468021FFF710FD204600210025FFF70A
:104B00000BFD0BE0D4F8B802294682682046904796
:104B1000E9880546002908BF002D01D02846B0BD10
:104B20002046FFF7A3FA0020B0BD00007047000048
:104B300040F27440C2F20000704700002DE9F041DD
:104B40000D78024691F803E000EB850330F825006C
:104B500047F27067BEF1030F20EA070408D800206F
:104B6000DFE80EF002080F0C44F4007408E000BF08
:104B7000012006E044F4806402E000BF44F4C06415
:104B8000002048F28007CFF6FF7744EA07061E8030
:104B90001E8840F60F7426402E4337431F800F7B3C
:104BA00048F2800C002F49D01C8840F60F66344034
:104BB00048F28006BEF1020F08BF06F58076344346
:104BC0001C80B2F850400E8902EBC5052C4426F03B
:104BD0000106A4F80064B2F850204C892A4424F05D
:104BE0000104A2F8044449781A88002902F480419B
:104BF0004AD039B1198840F60F7211400CF5804245
:104C0000114319801988490607D5198840F60F7293
:104C100011400CF1400211431980198840F63F728F
:104C200011400CF120024A40BEF1010F08BF41EAD9
:104C30000C021A80198843F60F7244E04E78B2F8DD
:104C40005080CC88EF00002E24F0010642D0D1190C
:104C50004144A1F800641988490607D5198840F62F
:104C60000F7211400CF1400211431980198840F66F
:104C70003F72BEF1010F01EA020125D00CF12002C2
:104C800051401980BDE8F08139B1198840F60F72A2
:104C900011400CF58042114319801988490607D547
:104CA000198840F60F7211400CF14002114319802F
:104CB000198843F60F7211400CF54052514019808B
:104CC000198840F63F72114041EA0C011980BDE895
:104CD000F08100BFD41904EB0807A7F80464B2F808
:104CE00050E004F2064434F80E606FF39F2624F877
:104CF0000E6009693F290DD3CF063EF804704FEAD4
:104D000051164FF0FF3808BF08EB511647EA8621CD
:104D100012E000BF71B101F001063EF8047006EB2D
:104D2000510147EA81212EF80410198849040DD455
:104D300014E000BF3EF8041048F20006CFF6FF76FC
:104D400031432EF804101988490407D5198840F614
:104D50000F7739400CF580473943198055B11988D0
:104D600043F60F7211400CF5005251401980BDE816
:104D7000F08100BF118843F60F7211400CF54052CC
:104D800051401980BDE8F081B0B50C784B78097BB3
:104D9000024630F824004CF2800C4CF280050029C9
:104DA0004FEA44013AD0002B00F4804040D040B19B
:104DB00032F8110040F60F73184040EA0C0022F858
:104DC000110032F8110043F60F7E400640F63F70A6
:104DD00009D532F8113040F60F742340ACF57F54FA
:104DE000234322F8113032F8113040F60F7423407B
:104DF0002B43ACF5804522F8113032F811301840C1
:104E0000284322F8110032F81100ACF5804300EA83
:104E10000E000343002022F81130B0BDF3B140066C
:104E200040F63F7EEFD5ACF57F5540F60F70E4E7D6
:104E300040B132F8110040F60F73184040EA0C0000
:104E400022F8110032F81100ACF57F55400640F60B
:104E50003F7E43F60F70BCD4C5E700BF400443F665
:104E60000F7ED0D540F60F70C7E700000146B0F8BE
:104E7000580040F400420020A1F85820704700007C
:104E800001460120A1F8400000220020A1F84020A6
:104E9000A1F84420A1F85020704700000146B0F866
:104EA000400044F27F0202400020A1F840207047F9
:104EB00080B50A7B12B1002080BD00BF0A784B7814
:104EC00030F822C04FEA4202B3B15FEA4C6348F2C5
:104ED000A00E0BD530F812C040F60F730CEA030C8D
:104EE0000EF1200343EA0C0320F81230C97801299F
:104EF000E1D040F63F7110E05FEA4C414BF2800E8A
:104F000009D530F8121040F60F7319400EF5805392
:104F1000194320F8121043F60F7130F8123019407F
:104F200081EA0E0120F81210002080BD02460B78A5
:104F3000487832F823C040F63F71002848F29000CC
:104F400008BF43F60F71CFF6FF7008BF00F57F6012
:104F500001EA0C014140002022F8231070470000B4
:104F60002DE9F04F82B04B78012B5FD18B690A6934
:104F70000F7B934228BF1346002F00F08180CF782B
:104F80000C6A022F40F0C4800D7840F60F6630F8AE
:104F900025704FEA450E944206EA070648F2B00C27
:104FA00040F2168148F2B007CFF6FF77D0373E4384
:104FB000A4EB030A20F81E60C1F820A030F81E7090
:104FC000B0F85060ED007F0600EB050800F1548159
:104FD00008EB0604A4F80234D1F814B09DB2002DF9
:104FE00000F026830E89064406F580696E1C4FF09A
:104FF000FF3505EB5604C6F34105002D4FEA560771
:1050000000F0E2815E46CDE9004836F8028B5C464E
:10501000CB46012D2BF8028B40F0DA81D946DDF822
:105020000480A346009C013FF1E200BF0A7B002AF6
:105030004AD0CA78012A00F0A180022A40F0C48038
:10504000002B40F0BC82B0F850300A78034403F2E1
:10505000024737F832306FF39F2327F832300B695D
:105060003F2BC0F04F81DC064FEA531637F8324031
:105070004FF0FF3508BF05EB531644EA8626C9E119
:105080001A0400F07381CA88D1F814E0024402F5D2
:105090008068012212FA83F24FF0FF37C2F3410415
:1050A00007EB520C002C4FEA520200F04C8177467D
:1050B00037F8025B4646012C26F8025B40F00A8175
:1050C000013ABE46B0463EE18E690A69B31A38BF5E
:1050D00000238B61B0F850700B78074407F2064745
:1050E00037F8335038BF32466FF39F253F2A27F8F1
:1050F0003350C0F0D481D40637F833404FEA52160B
:105100004FF0FF3508BF05EB521644EA8622D3E183
:10511000E21A0F780A6230F82720B0F85040FD00FC
:10512000520605444FEA470E9AB248F2B00C2C449E
:1051300000F18080002AA4F8023400F0D7800B89A7
:105140000132496903444FF0FF34C2F3410503F5CE
:10515000806304EB5208002D4FEA520200F0CB812D
:105160000E4636F8024B1F46012D27F8024B40F041
:105170000D81013A31463B46BDE100BF0A698F69A6
:10518000BE1A3CBF00263A46002B8E6140F0988143
:10519000B0F850700B78074407F2024737F83360D5
:1051A0003F2A6FF39F2627F83360C0F0B780D406FC
:1051B0004FEA521637F833404FF0FF3508BF05EB82
:1051C000521644EA862655E1012002B0BDE8F08F70
:1051D00048F2B002CFF6FF72303A324320F81E2078
:1051E000B0F8502000EBC5031A442304A2F802448F
:1051F00000F080800A894969024402F58063012237
:1052000012FA84F24FF0FF34C2F3410504EB520866
:10521000002D4FEA520200F08E810E4636F8024B06
:105220001F46012D27F8024B40F0BA80013A314663
:105230003B4680E1002AA4F806345FD04B89013256
:10524000496903444FF0FF34C2F3410503F580631D
:1052500004EB5208002D4FEA520200F08C810E46FA
:1052600036F8024B1F46012D27F8024B40F0A28072
:10527000013A31463B467EE108EB0605A5F80634C7
:10528000D1F814B09DB2002D00F026824E8906445C
:1052900006F580696E1C4FF0FF3505EB5604C6F32A
:1052A0004105002D4FEA560700F090805E46CDE99B
:1052B000004836F8028B5C46CB46012D2BF8028B5A
:1052C00040F09680D946DDF80480A346009C013F5B
:1052D000F1E100BFBEF80250022CA8F8025029D11B
:1052E00008F104080EF1040E023A2CE040F63F717A
:1052F000F1E000BF40F63F71EDE000BF40F63F71C6
:10530000E9E000BF002B00F0838003F0010637F8CE
:10531000325006EB530645EA862680E0002A00F06C
:10532000A78002F0010637F8335006EB520645EA33
:105330008626A4E0BEF804400EF1060EA8F804404C
:1053400008F10608033ABCF1030F0FD3AEF10807CA
:10535000A8F1080637F8085F043A26F8085F7D8848
:105360007580BD88B580FD88F580F3D1B0F85020F8
:105370000978024402EBC10248F2B00CA2F80234F0
:105380004FEA410E40F63F71A5E000BF4C88022D68
:105390005C8040F0AB8004330431023AABE000BFE4
:1053A0004C88022D5C8040F0C18004330431023A05
:1053B000C1E000BF4C88022D5C8040F0D7800433F0
:1053C0000431023AD7E000BF5E4620E15E4672E15A
:1053D0006688A346A9F80260DDF80480009C022DCF
:1053E00040F00C8109F104090BF10406023F0EE1C3
:1053F0006688A346A9F80260DDF80480009C022DAF
:1054000040F0508109F104090BF10406023F52E11A
:1054100037F8326048F20005CFF6FF752E4327F8C3
:105420003260B0F850703F2B074407F2064737F858
:1054300032606FF39F2627F832600DD3DC0637F811
:1054400032404FEA53164FF0FF3508BF05EB5316B5
:1054500044EA8623ACE000BF002B00F0A78003F0F5
:10546000010637F8325006EB530345EA8323A4E0E4
:1054700037F8336048F20005CFF6FF752E4327F862
:105480003360B0F850703F2A074407F2064737F8F8
:1054900033606FF39F2627F83360BFF42CAE4AB118
:1054A00002F0010637F8335006EB520245EA822239
:1054B00004E000BF37F8332042F4004227F83320DD
:1054C00009784FEA410E42F6D071A1F5E041A1F50D
:1054D000756C43F60F7130F81E20114081EA0C0103
:1054E00020F81E10002002B0BDE8F08F8C88063135
:1054F0009C800633033AB8F1030F03D240F63F71A4
:10550000E9E700BFA1F10804083B00BF34F8081F19
:10551000043A23F8081F61885980A1889980E1889E
:10552000D98040F63F71F1D1D5E700BF8C880631B4
:105530009C800633033AB8F1030F03D240F63F7163
:10554000C9E700BFA1F10804083B00BF34F8081FF9
:10555000043A23F8081F61885980A1889980E1885E
:10556000D98040F63F71F1D1B5E700BF8C88063194
:105570009C800633033AB8F1030F03D240F63F7123
:10558000A9E700BFA1F10804083B00BF34F8081FD9
:10559000043A23F8081F61885980A1889980E1881E
:1055A000D98040F63F71F1D195E700BF37F832302E
:1055B00048F20006CFF6FF76334327F83230CA6947
:1055C000002A3FF47DAF0A7844F2400730F82230D9
:1055D0003B40BB4202D0002B7FF472AF520030F848
:1055E000123040F60F773B4048F2B007CFF6FF7716
:1055F0003B43103320F8123062E700BFBBF8045081
:105600000BF10606A9F8045009F10609033F032C23
:105610000ED3083EA9F1080536F8084F043F25F8D7
:10562000084F74886C80B488AC80F488EC80F3D127
:105630000BEB030600244E61924588BFAAEB0304DE
:105640000C62B0F8502088BF9A4608EB02031FFA9C
:105650008AF2A3F806A4CAB14989013201444FF085
:10566000FF33C2F3410401F5806103EB5203002CC8
:105670004FEA52026DD036F8027B0D46012C25F818
:10568000027B07D1013A294663E000BF40F63F7133
:1056900021E700BF36F8025B022C4D8054D1043163
:1056A000023A56E0BBF804500BF10606A9F8045084
:1056B00009F10609033F032C0ED3083EA9F10805A2
:1056C00036F8084F043F25F8084F74886C80B4887A
:1056D000AC80F488EC80F3D10BEB030600244E6120
:1056E000924588BFAAEB03040C62B0F8502088BF33
:1056F0009A4608EB02031FFA8AF2A3F802A4BAB191
:105700000989013201444FF0FF33C2F3410401F52E
:10571000806103EB52034FEA5202C4B336F8027BB6
:105720000D46012C25F8027B06D1013A29462EE0D0
:1057300040F63F71CFE600BF36F8025B022C4D8089
:1057400020D10431023A22E036F8024B033A8C8031
:105750000631032B02D240F63F71BCE6A6F10803E6
:10576000A1F1080433F8081F043A24F8081F5988E7
:1057700061809988A180D988E18040F63F71F1D19C
:10578000A9E600BF36F8024B033A8C800631032BA2
:1057900002D240F63F719EE6A6F10803A1F108048B
:1057A00033F8081F043A24F8081F59886180998843
:1057B000A180D988E18040F63F71F1D18BE60000ED
:1057C00001460020A1F844004BF680720020A1F8A9
:1057D0004020704741F6D010C2F20000FBF7D2BD66
:1057E000B0F844007047000070B51044022B00F57B
:1057F000806440D34FF0FF32C3F34105580802EBF9
:10580000530C4DB1224632F8026B8E46012D2EF814
:10581000026B07D1013815E02246BCF1030F144694
:105820002AD315E06288022D4A8005D1221D01F19C
:10583000040E023806E000BFA688A21D01F1060E84
:1058400003388E807146BCF1030F144614D300BF99
:1058500032F8086B043821F8086B32F8066C21F82E
:10586000066C32F8046C21F8046C32F8026C21F8F2
:10587000026CEDD114468E46D8071CBF20888EF8E6
:10588000000070BD002904BF8021A0F84C1000204A
:1058900070470000B0B5002B3CD0104400F5806E7E
:1058A000581C4FF0FF32C0F3410302EB500C4FEA9B
:1058B0005000E3B10A4632F8025B7446012B24F82B
:1058C000025B03D101381146A64610E04A88022B3C
:1058D000AEF8022004D10EF1040E0431023806E0C5
:1058E0008A880631AEF804200EF1060E0338BCF1AA
:1058F000030F38BFB0BD0839AEF1080231F8083FD8
:10590000043822F8083F4B8853808B889380CB88DB
:10591000D380F3D1B0BD0000FEE7000003680A4663
:1059200081881846FBF704BB94B0FBF71BFB0024EF
:105930000020CDE90A44CDE90844FCF785FB21208D
:1059400006904FF48030079001200C9002205421E3
:105950000325CDE9101004210D90CDE90E50CDE9BD
:10596000121006A8FCF704FF20B1EFF3108072B606
:10597000FEE700BF0F20CDE9010501A80421CDE914
:1059800003440594FCF76AFD20B1EFF3108072B672
:10599000FEE700BFFDF7FAFDFDF75CFEFDF784FEB4
:1059A000FDF714FFFDF774FD40F28414C2F2000409
:1059B000606F8047E06F804700F0EEF9F8E7000085
:1059C00070B582B040F28416C2F20006D6F880109C
:1059D0000020884706F1180401AD204648F2FF3147
:1059E0002A46C82300F06AF9AA1C20464FF6FF7128
:1059F000C82300F063F9D6F8801001208847BDF86D
:105A000006109DF804006FF00F0202EA911242EABC
:105A10008020C1F303110844B06302B070BD0000E0
:105A200040F28410C2F20000806F0047014640F24D
:105A30008410C2F200001C30FFF770BF2DE9F04364
:105A400081B02DED108B40F28417C2F20007D7F819
:105A50003880386D3D69A8EB000090FBF5F19FEDB3
:105A6000909A01FB150405EBD570002C48BF2C441F
:105A7000B4EB600F786DC8BF641B97ED12CA204469
:105A800097ED0FBA97ED110AC7E9148097ED10DA78
:105A90002CEE091A404631EE00EA31EE0B8A00F096
:105AA000F7FAB0EE480A81460E4600F0C3F910EE50
:105AB000100A00F047FC02460B464846314600F00B
:105AC00053FB00F00BFA00EE105A0FEE100AB8EE7E
:105AD000C0AA8FEE0A0A00F0E5F997ED161A20EE3B
